:020000040800F2
:1000000000000220990D0008490C00084B0C000864
:100010004D0C00084F0C0008510C000800000000B7
:10002000000000000000000000000000615C00080B
:10003000530C000800000000F15C0008550C00089B
:10004000E90D0008E90D0008E90D0008E90D0008B8
:10005000E90D0008E90D0008E90D0008E90D0008A8
:10006000E90D0008E90D0008E90D0008E90D000898
:10007000E90D0008E90D0008E90D0008E90D000888
:10008000E90D0008E90D0008E90D00080000000076
:100090000000000000000000000000006D0C0008DF
:1000A000E90D0008E90D0008E90D0008E90D000858
:1000B000E90D0008E90D0008E90D0008E90D000848
:1000C000E90D0008E90D0008E90D0008E90D000838
:1000D000E90D0008E90D0008E90D00080000000026
:1000E000730C0008E90D0008E90D0008000000008D
:1000F000000000000000000000000000E90D000802
:1001000000000000E90D0008E90D0008E90D0008F5
:1001100000000000000000000000000000000000DF
:10012000E90D0008E90D0008E90D0008E90D0008D7
:10013000E90D0008000000000000000000000000C1
:100140000000000000000000000000007D0C00081E
:10015000E90D0008E90D0008E90D0008E90D0008A7
:10016000E90D0008E90D0008000000000000000093
:10017000000000000000000000000000000000007F
:1001800000000000E90D0008000000000000000071
:08019000E90D0008E90D00086B
:1001A00010B5054C237833B9044B13B10448AFF3B1
:1001B00000800123237010BD3802002000000000E1
:1001C000686A000808B5034B1BB103490348AFF345
:1001D000008008BD000000003C020020686A0008A2
:1001E00001F0FF01102A2BDB10F0070F08D010F8E8
:1001F000013B013A8B422DD010F0070F42B3F6D1EC
:10020000F0B441EA012141EA014122F007047FF004
:1002100000070023F0E80256083C85EA010586EA5B
:10022000010685FA47F5A3FA87F586FA47F6A5FA97
:1002300087F68EB9EED1F0BC01F0FF0102F00702A3
:1002400032B110F8013B013A83EA010313B1F8D14E
:100250000020704701387047002D06BF354603382F
:10026000073815F0010F07D1013015F4807F02BF68
:10027000013015F4C03F0130F0BC0138704700BFB9
:1002800053B94AB9002908BF00281CBF4FF0FF31FD
:100290004FF0FF3000F074B9ADF1080C6DE904CEF9
:1002A00000F006F8DDF804E0DDE9022304B0704751
:1002B0002DE9F047089D04468E46002B4DD18A4219
:1002C000944669D9B2FA82F252B101FA02F3C2F14C
:1002D000200120FA01F10CFA02FC41EA030E9440DD
:1002E0004FEA1C48210CBEFBF8F61FFA8CF708FBFE
:1002F00016E341EA034306FB07F199420AD91CEBD6
:10030000030306F1FF3080F01F81994240F21C8107
:10031000023E63445B1AA4B2B3FBF8F008FB10334F
:1003200044EA034400FB07F7A7420AD91CEB040484
:1003300000F1FF3380F00A81A74240F20781644454
:10034000023840EA0640E41B00261DB1D4400023D9
:10035000C5E900433146BDE8F0878B4209D9002D3D
:1003600000F0EF800026C5E9000130463146BDE8C7
:10037000F087B3FA83F6002E4AD18B4202D3824231
:1003800000F2F980841A61EB030301209E46002DE0
:10039000E0D0C5E9004EDDE702B9FFDEB2FA82F235
:1003A000002A40F09280A1EB0C014FEA1C471FFA93
:1003B0008CFE0126200CB1FBF7F307FB131140EA7A
:1003C00001410EFB03F0884208D91CEB010103F147
:1003D000FF3802D2884200F2CB804346091AA4B209
:1003E000B1FBF7F007FB101144EA01440EFB00FEDD
:1003F000A64508D91CEB040400F1FF3102D2A64542
:1004000000F2BB800846A4EB0E0440EA03409CE7E0
:10041000C6F12007B34022FA07FC4CEA030C20FA8D
:1004200007F401FA06F31C43F9404FEA1C4900FAAD
:1004300006F3B1FBF9F8200C1FFA8CFE09FB18112A
:1004400040EA014108FB0EF0884202FA06F20BD99D
:100450001CEB010108F1FF3A80F08880884240F2ED
:100460008580A8F102086144091AA4B2B1FBF9F031
:1004700009FB101144EA014100FB0EFE8E4508D92C
:100480001CEB010100F1FF346CD28E456AD90238B1
:10049000614440EA0840A0FB0294A1EB0E01A14296
:1004A000C846A64656D353D05DB1B3EB080261EB04
:1004B0000E0101FA07F722FA06F3F1401F43C5E9DE
:1004C000007100263146BDE8F087C2F12003D84014
:1004D0000CFA02FC21FA03F3914001434FEA1C4756
:1004E0001FFA8CFEB3FBF7F007FB10360B0C43EA48
:1004F000064300FB0EF69E4204FA02F408D91CEBF8
:10050000030300F1FF382FD29E422DD902386344F5
:100510009B1B89B2B3FBF7F607FB163341EA034195
:1005200006FB0EF38B4208D91CEB010106F1FF38E4
:1005300016D28B4214D9023E6144C91A46EA0046DB
:1005400038E72E46284605E70646E3E61846F8E66D
:100550004B45A9D2B9EB020864EB0C0E0138A3E7B6
:100560004646EAE7204694E74046D1E7D0467BE797
:10057000023B614432E7304609E76444023842E70F
:10058000704700BF2DE9FF471B4F1C4DDFF87480FB
:10059000DFF86C903E46002464220123CDE901324D
:1005A000009516F8012B6E21404601F0D7F810B9DE
:1005B0002B7804F809300134102CEDD1104EDFF8FF
:1005C00048A04FF064084FF00109CDE9019817F8F1
:1005D000012B009501236E21504601F0BFF808B9A8
:1005E0002B783374631E13F0FF0406F10106ECD17F
:1005F00004B0BDE8F08700BF0200002074020020B4
:100600005402002080020020D40200207FB5FF2386
:100610008DF8173064220123CDE901320DF1170264
:1006200000926E218622034801F008F807B05DF8B9
:1006300004FB00BFD4020020F0B587B001230DF108
:1006400013026424CDE9013400924F488DF8133031
:100650008A226E2101F082F89DF81330012B40F0C0
:1006600090804A4E4A4D02948023CDE900630022D7
:1006700001236E21284600F0E1FF0028F3D1032377
:10068000434C8DF814306426012505AB0093CDE969
:100690000156012386226E21204600F0CFFF00285C
:1006A000F3D14FF4FA7004F088F83A4D384E6427CD
:1006B0000224CDE900540297012394226E21304692
:1006C00001F04CF80028F3D13249314E224602F0B5
:1006D00021FF642004F071F86427CDE901470095FB
:1006E00001237E226E21304600F0A8FF0028F4D1BD
:1006F0008DF81540264C642601250DF11503009355
:10070000CDE90156012386226E21204600F096FF96
:100710000028F2D1DC2004F050F81D4C02238DF8A3
:100720001630642601250DF116030093CDE901561C
:10073000012388226E21204601F010F80028F2D112
:100740009DF81630DBB1124E01254FF47A7004F09B
:1007500034F800238DF8173064270DF11704CDE924
:1007600001570094012389226E21304600F0F6FFE4
:100770000028F2D10122214602F0CCFEE5E7FFF786
:1007800045FF07B0F0BD00BF80020020A46A00084A
:10079000D402002000000020F0B505208BB004F04A
:1007A0000CF8FFF749FF214B01AA03F1200614467C
:1007B00018685968154603C50833B3422A46F7D16D
:1007C000186828601A4D032003F0F7FF2B78012BDF
:1007D000F9D1FFF7D7FE174B20214FF490721F4637
:1007E000FE2013F8016BFF2E02D103F8010C01E08B
:1007F000FD2EFAD013F8016C013911F0FF013244DB
:10080000EFD10D490DF10703202011F8016B0138DC
:10081000BE5D03F8016B10F0FF00F6D152428DF877
:1008200027202146242202F075FECCE7806A0008CA
:100830002903002054020020246B000808B50F4C47
:10084000052003F0BAFF2378042B11D006D8022B21
:100850000BD0032BF4D100F0C1F9F1E7102B0AD033
:10086000F02BEDD100F0C6F9EAE700F0CBF9E7E7AD
:1008700000F0BAF9E4E700F0C6F9E1E72803002048
:1008800008B5074A0748002103F04EFF064B074A08
:1008900018600021064803F047FF064B186008BDAA
:1008A0007C6B0008990700087C020020586B000848
:1008B0003D0800087802002030B514228BB00DEB03
:1008C0000200002105F054FC00242B4B01941A6B0C
:1008D0002A4842F004021A631A6B02F004020192E1
:1008E000019A02941A6B42F080021A631A6B02F0AA
:1008F00080020292029A03941A6B42F002021A6377
:100900001A6B02F002020392039A04941A6B42F0EB
:1009100001021A631B6B03F00103224604934FF498
:1009200000510125049B00F0F3FB4FF4005305A98F
:100930001248CDE90535CDE9075400F021FB4FF40D
:10094000041348F2800205A90D480795CDE9052357
:1009500000F016FB22460521172000F0BDFA1720F3
:1009600000F0ECFA22460521282000F0B5FA2820F4
:1009700000F0E4FA0BB030BD00380240000802403D
:100980000004024008B50B480B4A0C4BC0E9002399
:1009900000234FF48042C0E90233C0E90423C0E9D8
:1009A0000633036200F0A2FD18B1BDE8084000F074
:1009B00013B908BD8002002000540040A086010049
:1009C00008B50B480B4A0C4BC0E9002300234FF439
:1009D0008042C0E90233C0E90423C0E90633036260
:1009E00000F084FD18B1BDE8084000F0F5B808BD7E
:1009F000D4020020005C0040A08601002DE9F041F7
:100A000014228AB0044600210DEB020005F0B0FB71
:100A10002368354A934227D1344C35480025009548
:100A2000236B43F002032363236B03F00203009361
:100A3000009B4FF440721223CDE9052301210323CB
:100A4000CDE90713042305A9099300F099FA01954C
:100A5000236C43F400132364236C03F40013019309
:100A6000019B0AB0BDE8F081224A9342F9D11F4CA4
:100A7000214800250295236B43F001032363236B78
:100A800003F001030293029B0395236B43F00203DF
:100A90002363236B03F002030393039B4FF01208BD
:100AA0004FF48073CDE9053801270423032605A9F7
:100AB0000993CDE9077600F063FA1023CDE90538F4
:100AC0000B48092305A90993CDE9077600F058FAE8
:100AD0000495236C43F400032364236C03F40003A4
:100AE0000493049BBDE700BF00540040003802405F
:100AF00000040240005C00400000024010B594B0C9
:100B0000102200210AA805F033FB1422002103A8BB
:100B100005F02EFB1F4B002101911A6C42F0805210
:100B20001A641B6C03F080530193019B1A4B0291D2
:100B30001A6842F440421A601B6803F4404302936F
:100B4000029B01224FF480330224CDE908234FF4A5
:100B50008003CDE90E431921C023CDE9101308A865
:100B600004231294139301F057FC08B172B6FEE708
:100B70000F23CDE903344FF48053CDE906300590BF
:100B8000032103A801F026FE08B172B6FEE714B0F7
:100B900010BD00BF003802400070004008B500F0F2
:100BA00049F9FFF7ABFFFFF787FEFFF7EBFEFFF713
:100BB00007FF00F093F802F043FC01224FF40051CC
:100BC000044800F0A5FA03F083FDFFF759FE03F097
:100BD00091FDFEE70008024072B6FEE7014B0122DC
:100BE0001A70704729030020014B00221A707047C9
:100BF0002903002002492522002002F08BBC00BFFF
:100C0000120000207047704782B00E4B0022009205
:100C1000596C41F480415964596C01F48041009150
:100C200000990192196C41F0805119641B6C03F01A
:100C300080530193019B0F216FF0010002B000F07F
:100C40004BB900BF00380240FEE7FEE7FEE7FEE7D3
:100C5000FEE7704708B500F007F904F067FD0128CA
:100C600003D0BDE8084005F075B808BD802000F04D
:100C700055BA4FF4004000F051BA0000014801F0AD
:100C80005FB800BF300300200B4A116810B503465F
:100C900009B90A491160106809490A4C0344091B43
:100CA0008B4206D905F02CFA0C2303604FF0FF307D
:100CB00010BD1360FCE700BF2C030020405A002049
:100CC0000000022000040000034AD2F8883043F4F8
:100CD0007003C2F88830704700ED00E00C4808B59A
:100CE0004FF0A0420423C0E9002300230222C0E900
:100CF0000323C0E90623C0E90833C0E90B3300F041
:100D000035FE18B1BDE80840FFF766BF08BD00BF5B
:100D10003003002030B5044689B01422002103A816
:100D200005F026FA2368B3F1A04F2ED1184C1948CC
:100D300000250195236B43F001032363236B03F02C
:100D4000010301934FF4C052019B0223CDE9032319
:100D500003210A23CDE9061303A900F011F9636BFF
:100D600043F0800363630295636C43F480436364E0
:100D7000636C03F48043029343202A460521029BBF
:100D800000F0AAF8432000F0D9F809B030BD00BF48
:100D90000038024000000240DFF834D00D480E4910
:100DA0000E4A002302E0D458C4500433C4188C42C5
:100DB000F9D30B4A0B4C002301E013600432A2422A
:100DC000FBD3FFF781FF05F0A1F9FFF7E7FE7047BE
:100DD000000002200000002038020020706C000893
:100DE00038020020405A0020FEE7000038B50E4AC5
:100DF0000E4B054618784FF47A73B3FBF0F3106886
:100E0000B0FBF3F000F0A8F8044658B90F2D09D84C
:100E1000024629464FF0FF3000F05EF8044B2046B2
:100E20001D6038BD0120FCE7380000203C00002098
:100E30004000002008B50B4B1A6842F400721A609B
:100E40001A6842F480621A601A6842F480721A606A
:100E5000032000F02FF80F20FFF7C8FFFFF7D4FEA4
:100E6000002008BD003C0240034A044B11681B7877
:100E70000B441360704700BF3C0800203C0000207A
:100E8000014B1868704700BF3C08002038B5044685
:100E9000FFF7F6FF631C1CBF054B1B78054618BF08
:100EA000E418FFF7EDFF431BA342FAD338BD00BFA0
:100EB0003C0000200749CA6822F4E06203021204E1
:100EC00003F4E063120C134343F0BF6343F40033B5
:100ED000CB60704700ED00E0164B30B5DC68C4F322
:100EE0000224C4F10705231D042D28BF0425062B69
:100EF0004FF0FF338CBF033C002403FA05F521EAD1
:100F00000501A34022EA0302A140002841EA0203AE
:100F1000ACBF00F16040084A4FEA0313B8BF00F0CD
:100F20000F00DBB2AABF00F56140135480F8003314
:100F300030BD00BF00ED00E014ED00E0002808DB4C
:100F40004209012300F01F0003FA00F0014B43F8AF
:100F50002200704700E100E00138B0F1807F0BD241
:100F60004FF0E023054A5861F02182F82310002059
:100F7000072298611A6170470120704700ED00E078
:100F80002DE9F74FDFF884915E4A00230D680124B4
:100F90009C4004EA050CAC4340F0A5804D6805F088
:100FA00003044FEA43080326671E06FA08F6012FDA
:100FB0006FEA060634D8876807EA060ECF6807FA94
:100FC00008F747EA0E078760476827EA0C0EC5F363
:100FD00000179F4047EA0E074760C76807EA060EFA
:100FE0008F6807FA08F747EA0E07022CC76019D185
:100FF0004FEAD30A00EB8A0A03F0070BDAF82070F5
:101000004FEA8B0B4FF00F0E0EFA0BFE27EA0E0E77
:101010000F6907FA0BF747EA0E07CAF8207001E0DC
:10102000032CDAD1076804FA08F43E40264315F48D
:10103000403F066057D04FF0000ACDF804A0D9F821
:101040004460314C46F48046C9F84460D9F84460A5
:1010500006F480460196019E23F0030606F18046C1
:1010600006F59C3603F0030ED6F808804FEA8E0E84
:101070000F2707FA0EF7A04228EA07073AD004F52F
:101080008064A04238D004F58064A04236D004F5D4
:101090008064A04234D004F58064A0420CBF0424D4
:1010A000072404FA0EF43C43B46094686FEA0C061B
:1010B000EF0254BF34404CEA04049460D468AF0299
:1010C00054BF34404CEA0404D4605468AF0354BFA6
:1010D00034404CEA040454601468ED0354BF3440B7
:1010E0004CEA040414600133102B7FF44FAF03B0BB
:1010F000BDE8F08F5446D4E70124D2E70224D0E7BC
:101100000324CEE7003C01400000024000380240CA
:101110000AB1816170470904FBE77047044A5169CD
:10112000014208B502D05061FFF7F7FF08BD00BFCC
:10113000003C014001684B6913F480634FF00002EA
:1011400010D06FF480634B612023026380F83D3040
:1011500080F83E20036C80F83C2043F004030364D5
:1011600001207047184670472DE9F84606460F469D
:1011700091461D464FEA114A3368BAF1010F0CBF80
:101180005C699C6927EA0404A4B2B4FA84F4640993
:10119000A14501D0002017E06A1CEED0FFF770FED9
:1011A000089BC01AA84201D8002DE5D100232022B7
:1011B000336386F83D2086F83E30326C86F83C304A
:1011C00042F0200232640120BDE8F8862DE9F041AA
:1011D00004460F46164698462568686927EA0000C7
:1011E00080B2B8B16B695A0516D52B6843F4007309
:1011F0002B606FF480636B6120220023236384F8EB
:101200003D2084F83E30226C42F00402226484F8CF
:101210003C300120BDE8F081731CDED0FFF730FECA
:10122000A0EB0800B04201D8002ED5D10023202227
:10123000236384F83D2084F83E30226C42F0200283
:10124000E4E770B504460D46164621684B6913F075
:10125000400301D0002010E04A69D2060ED56FF09D
:1012600010024A612022236384F83D2084F83E3036
:10127000226C226484F83C30012070BDFFF700FE30
:10128000801BA84201D8002DDFD100232022236338
:1012900084F83D2084F83E30226C42F02002E8E7DA
:1012A00070B504460D46164623685B695B0701D599
:1012B000002070BD2046FFF73DFFA8B96A1CF3D09F
:1012C000FFF7DEFD801BA84201D8002DECD10023E2
:1012D0002022236384F83D2084F83E30226C84F879
:1012E0003C3042F0200222640120E2E770B504465F
:1012F0000D46164623685B691B0601D5002070BDAC
:101300002046FFF717FFA8B96A1CF3D0FFF7B8FD16
:10131000801BA84201D8002DECD10023202223639A
:1013200084F83D2084F83E30226C84F83C3042F052
:10133000200222640120E2E72DE9F043154602680D
:1013400085B0DDE90C789946136843F48073136027
:101350000E463B46CDF8008000224FF001110446B6
:10136000FFF702FF236838B11B68DB0502D54FF495
:101370000073236403200AE006F0FE061E6119498B
:1013800043463A462046FFF721FF18B1012005B039
:10139000BDE8F083236803905A6903929B69039325
:1013A000424639462046039BFFF7A0FF40B1236C1D
:1013B000042B01BF2268136843F400731360E5E750
:1013C000B9F1010F236802D1EDB21D61DFE72A0AEE
:1013D0001A61394642462046FFF788FF0028E6D1C9
:1013E0002368F1E7020001002DE9FF479A460368F0
:1013F00015461A6842F480621A601A68DDE90C78B2
:1014000042F480721A600E463B46CDF800800022FE
:101410004FF001110446FFF7A7FE236848B11B688F
:10142000DB0502D54FF400732364032004B0BDE84C
:10143000F0875FFA86F906F0FE061E612A494346E8
:101440003A462046FFF7C2FE08B10120EEE72368C6
:1014500003905A6903929B6903934246394620469A
:10146000039BFFF743FF40B1236C042B01BF2268AD
:10147000136843F400731360E7E7BAF1010F2368C0
:101480001AD1EDB21D61424639462046FFF72EFFC4
:101490000028E9D12268136843F4807313604FF089
:1014A00001110246CDF800803B462046FFF75CFE66
:1014B000226860B11368B3E72A0A1A6139464246C6
:1014C0002046FFF713FF0028CED12368D9E749F063
:1014D00001031361044943463A462046FFF776FE6E
:1014E000003818BF0120A1E70200010070B50446D2
:1014F00008B9012070BD90F83D3003F0FF021BB920
:1015000080F83C20FFF77AFA242384F83D302368E2
:101510001A6822F001021A601A6842F400421A6046
:101520001A6822F400421A6001F0F6F93F4B656830
:101530009D4294BF3E4B3F4B98428CBF00230123FA
:10154000002BD6D12268394E53683B49B0FBF1F1EC
:1015500023F03F030B43B542536088BF4FF49676A8
:10156000136A88BF714323F03F0384BF4FF47A7638
:10157000B1FBF6F1013119431162D169431E2B48C9
:1015800021F44F41854221F0FF0132D86D0040F631
:10159000FC70B3FBF5F30133034242D0C3F30B03FA
:1015A0000B43D361D4E907301168034321F0C00134
:1015B0000B4313609168D4E9030321F4034103430F
:1015C00021F0FF010B439360D4E90530D168034358
:1015D00021F0FF010B43D360136843F00103136054
:1015E00000202023206484F83D30206384F83E00EE
:1015F00080E7A06850B905EB4505B3FBF5F301336F
:10160000C3F30B037BB143F40043C9E719204543FF
:10161000B3FBF5F30133C3F30B0323B143F44043AE
:10162000BEE70423BCE70123BAE700BFA0860100A0
:101630007F841E00FF083D0040420F002DE9F74364
:10164000044699460C9E0F469046FFF719FC94F805
:101650003D30202B054603D0022003B0BDE8F083C7
:1016600000903C49192301222046FFF77DFD002808
:10167000F2D194F83C30012BEED02068012384F89D
:101680003C300368D9075EBF036843F00103036081
:10169000036823F400630360212384F83D30402372
:1016A00084F83E30002323640A9B6362BDF82C302B
:1016B0006385638D2385284BE362CDE900654B4646
:1016C000424639462046FFF737FE00282AD001203F
:1016D000C3E7FFF70BFE40B1236C042B01BF226868
:1016E000136843F400731360F1E7636A27681A46CE
:1016F00012F8011B39616262628D218D013A92B24A
:1017000062857A69481E80B2520720850AD548B1A1
:101710005A783A6102336362638D013B02399BB2AE
:1017200021856385238D2A4631462046002BD0D162
:10173000FFF7B6FD0028CFD12268136843F4007389
:101740001360202384F83D3084F83C0084F83E0088
:1017500083E700BF020010000000FFFF2DE9F04307
:10176000044687B09946109F0D469046FFF788FBC8
:1017700094F83D30202B064604D00225284607B0B9
:10178000BDE8F08300907649192301222046FFF737
:10179000EBFC0028F1D194F83C30012BEDD020680F
:1017A000012384F83C300368DB075EBF036843F025
:1017B00001030360036823F400630360222384F8B9
:1017C0003D30402384F83E30002323640E9B636247
:1017D000BDF83C306385638D2385624BE362294607
:1017E000CDE900764B4642462046FFF7FDFD054613
:1017F00008B10125C2E7228D2368B2B902905A6967
:1018000002929A690292029A1A6842F400721A606D
:10181000DFF85481238D002B2CD1202284F83D2029
:1018200084F83C3084F83E30A8E7012A0AD11A68CF
:1018300022F480621A6003905A6903929A690392B3
:10184000039AE1E7022A0ED11A6822F480621A6034
:101850001A6842F400621A6004905A6904929B6903
:101860000493049BD4E705905A6905929B690593FC
:10187000059BCDE7032B56D8012B15D132463946AF
:101880002046FFF7DEFC0028B3D123681A69636A9B
:101890001A70636A01336362238D013B2385638D74
:1018A000013B9BB26385B5E7022B00963B464FF0A8
:1018B00000024146204619D1FFF756FC002898D176
:1018C00023681A6842F400721A601A69636A1A700F
:1018D000626A531C6362238D013B2385638D013B48
:1018E0009BB2638523681B695370D2E7FFF73CFC0A
:1018F00000287FF47EAF23681A6822F480621A60A1
:101900001A69636A1A70636A009601336362238DF1
:10191000013B2385638D013B9BB2638502463B46B9
:1019200041462046C8E7324639462046FFF789FC43
:1019300000287FF45EAF23681A69636A1A70626ACE
:10194000531C6362238D013B2385638D013B9BB256
:1019500063852368596949077FF55CAFC3E700BF1A
:10196000020010000000FFFF04000100F0B5044673
:101970008BB060B390F8BD34056803F0FF021BB96B
:1019800080F8BC24FFF7C6F9032384F8BD34EB6B61
:10199000254613F4807355F8100B08BF236101F03E
:1019A000A7F80FCD6E460FC60FCD0FC695E8030002
:1019B00086E803002546271D97E80E0055F8100B12
:1019C00000F0E0FF064620B1022384F8BD34012573
:1019D0004EE00146206801F091F83046D4F804C08A
:1019E00024264FF0010E0146C2B2944500F10100D9
:1019F0001CD8002324261946D8B2844503F10103DC
:101A000022D80FCD6E460FC60FCD0FC695E8030046
:101A100086E8030097E80E00206801F0F1F8012342
:101A20000546F0B1022284F8BD24D0E706FB02434C
:101A3000C3E9121183F83DE083F83C20A3F8442069
:101A400083F840105965CFE706FB0042C2E9A211B6
:101A500082F87D1282F87C0282F88012C2F8941219
:101A6000CAE784F83800206884F8BD3401F070FCBF
:101A700028460BB0F0BD10B50446006894F8BC349D
:101A8000012B15D0012384F8BC34A36A012B06D1A5
:101A9000A369012B1EBF836B43F48033836301F082
:101AA00021F8206801F046FC002084F8BC0410BD39
:101AB0000220FCE710B590F8BC24012A04460BD0A4
:101AC000012280F8BC2480F83810006801F022FC64
:101AD000002084F8BC0410BD0220FCE770B501F0C2
:101AE0000F0606EBC60411F0800F05464FEA84048A
:101AF0004FF024001FD000FB065004F13C010124EC
:101B0000294480F83D40CA604A780E700B7102B1DA
:101B10000E81022B04BF00234B7195F8BC34012BBE
:101B200012D00123286885F8BC3401F02CF900207C
:101B300085F8BC0470BD00FB065004F51F7100243D
:101B4000294480F87D42DEE70220F3E710B5044621
:101B500001F00F0000EBC00311F0800F4FEA830388
:101B60004FF0240216D002FB004203F13C01012396
:101B7000214482F83D30087094F8BC34012B12D017
:101B80000123206884F8BC3401F03CF9002084F87B
:101B9000BC0410BD02FB004203F51F710023214469
:101BA00082F87D32E7E70220F3E738B501F00F0550
:101BB000242404FB050104FB050401F51F71C4F88E
:101BC00094320023C4F88C22C4F89C3284F87D320D
:101BD00084F87C5203690068012B08BFC4F8902286
:101BE000DAB21DB901F064F9002038BD01F032FA13
:101BF000FAE701F00F01242303FB0100D0F89C0257
:101C0000704738B501F00F05242404FB050104FBDF
:101C100005043C3163650023E3650123E26484F835
:101C20003D3084F83C5003690068012B08BF2265F1
:101C3000DAB21DB901F03CF9002038BD01F00AFA12
:101C4000FAE738B5436801F00F059D4204462CD8E9
:101C500011F0800F4FF024001ED000FB054200FB66
:101C6000054101233C3182F83D3001238B700D701A
:101C700094F8BC249A421AD0206884F8BC3401F04D
:101C8000F5FA2DB9217C206804F2C44201F0B2FBC0
:101C9000002084F8BC0438BD00FB01431A4603F55C
:101CA0001F71002382F87D32DFE70120F3E7022075
:101CB000F1E738B5436801F00F029A4204462AD88A
:101CC00002EBC20311F0800F4FEA83034FF02400B0
:101CD00018D000FB024003F13C010123214480F8AD
:101CE0003D3000258D700A7094F8BC34012B14D05F
:101CF0000123206884F8BC3401F0E3FA84F8BC5472
:101D0000284638BD00FB024003F51F710023214423
:101D100080F87D32E5E70120F3E70220F1E701F0EA
:101D20000F0303EBC3030A064FEA83034CBF03F11F
:101D30003C0103F51F710144006801F035B9000052
:101D40002DE9F04F066889B00446304601F03DFBAE
:101D50000390002840F05681206801F007FB00281E
:101D600000F05081D6F808382068C3F30D23C4F87A
:101D7000FC3401F0FBFA810748BF2268206842BFAB
:101D8000536903F00203536101F0F0FAC20606F54D
:101D900000652CD52268936923F010039361D6F86F
:101DA0002080C8F34343022B08F00F0740F02D8139
:101DB00047F6F07318EA030F14D0242303FB0747F8
:101DC000C8F30A19D7F88C124A46304601F02EFAA9
:101DD000D7F88C324B44C7F88C32D7F89C324B443E
:101DE000C7F89C322268936943F01003936120681E
:101DF00001F0BCFA030300F11A81206801F0B6FA81
:101E000047030CD5206801F0BDFA2746049006F57B
:101E1000106A4FF00009049B002B40F0D08120682D
:101E200001F0A4FA002813DA6B6823F001036B6059
:101E300094F8F434012B40F06B82002184F8F41400
:101E4000204600F0E7FA2268536903F0004353612B
:101E5000206801F08BFA01050AD5AB68DA0702D5D4
:101E6000204602F06FFB2268536903F4006353615C
:101E7000206801F07BFAC30433D56B68206823F037
:101E800001036B60102100F069FE06F510634FF648
:101E90007F3162680398824200F24282EB6943F02C
:101EA0000113EB61236B002B00F05282D5F88430D4
:101EB00043F00B03C5F884306B6C43F00B036B6489
:101EC000D6F80038217C206823F4FE63C6F8003879
:101ED00004F2C44201F08EFA2268536903F480537D
:101EE0005361206801F042FA870416D5206801F09A
:101EF00070FA206800F03CFFE060276800F006FD03
:101F0000227B0146384600F07DFD204602F007FBAB
:101F10002268536903F400535361206801F026FAE4
:101F2000000707D5204602F0F6FA2268536903F04D
:101F300008035361206801F019FA010600F11382C9
:101F4000206801F013FAC2020CD5A04606F512690A
:101F500001276368BB4200F21F822268536903F4C1
:101F600080135361206801F001FA83022DD5D4F863
:101F700004E0234606F5326001218E4520D993F80E
:101F8000A4C20268BCF1010F40F01C82002A80F25A
:101F90001982D4F8FC7402F4803207F00107BA42C7
:101FA00040F0108283F8A3C2B26942F08002B261AD
:101FB0007269170600F106826B6843F400736B6068
:101FC0002268536903F400135361206801F0CEF9CD
:101FD000410007D5204602F0D9FA2268536903F080
:101FE00080435361206801F0C1F942070AD5236894
:101FF0005D686B0702D5204602F0CCFA2268536870
:102000002B43536009B0BDE8F08F062B7FF4EAAE96
:10201000082204F2C441304601F008F9242303FBEE
:102020000747C8F30A18D7F89C324344D8E620681B
:1020300001F0A0F906F530680490A2460027049B41
:10204000002B3FF4DAAE049BD80776D55FFA87FB06
:102050002068594601F09EF910F0010F81461CD00E
:10206000206821690123C8F8083000F5306303EBCC
:1020700047130129D0F840C09A6840F08B801107BF
:1020800007D5A5498C4508D9100406D54FF4004260
:1020900002E091065AD520229A6019F0080F21D04B
:1020A0000823C8F8083023689B481A6C03F530638E
:1020B00003EB47138242996804D9090444BF4FF4E3
:1020C000004199602046059202F00EFA924B059A63
:1020D0009A4207D92169012904D1206804F2C44237
:1020E00001F088F919F0100F1CBF1023C8F8083050
:1020F00019F0020F14D073691B0642BF6B6843F4DA
:1021000080636B609AF87F32012B06D100238AF836
:102110007F325946204602F031FA0223C8F80830CF
:1021200019F0200F1CBF2023C8F8083019F4005FF5
:102130001CBF4FF40053C8F80830049B5B080137FC
:10214000049308F120080AF1240A78E712F0280F16
:10215000A3D171498C4501D9120497D41A69DAF8D0
:102160009832C2F312029B1ACAF89C326FB9D4F8A3
:1021700094222AB904F2C442012101F03BF904E09F
:10218000D4F88C221344C4F88C325946204602F00D
:10219000B1F982E761498C4507D111043FF576AF6B
:1021A0009006F2D520229A60EFE7002FEDD1D4F807
:1021B0009432002BE9D104F2C4423946DDE7049B96
:1021C000D80740F19C805FFA89FB2068594601F0EE
:1021D000EAF810F0010F804620D001216B6B09F066
:1021E0000F0201FA02F223EA02036B630B46CAF8FC
:1021F0000810216999420DD1D7E912231344FB64D9
:10220000B9F1000F06D1636D23B9206804F2C4420E
:1022100001F0F0F85946204602F075F918F0080F61
:102220001CBF0823CAF8083018F0100F1CBF102379
:10223000CAF8083018F0400F1CBF4023CAF8083015
:1022400018F0020F12D04946304600F087FC97F88C
:102250003F30012B07D14FF0000387F83F3059463C
:10226000204602F08FF90223CAF8083018F0800FD8
:1022700045D0FA6D7B6D9A4241D89B1ABA6C2168A1
:102280000591934228BF134603339B08069301F53B
:10229000106303EB49130793079B06989969FA6D3E
:1022A0007B6D89B2814228D39A420CD3059B09F0F9
:1022B0000F01D3F83428012000FA01F122EA0102CB
:1022C000C3F834281BE0A3EB0208BB6C05989845C3
:1022D00028BF984608F103039B080693237C0093CC
:1022E000F96C1FFA88F35A4600F0A0FEFB6C4344D9
:1022F000FB64FB6D4344FB65CEE79A42D6D2049B58
:102300005B0809F10109049324370AF1200A82E5E8
:10231000204602F02FF996E50A30544F0A31544F07
:1023200099601A6822F400121A60C3F80812D3F8F0
:10233000002222F40012C3F80022D3F8002242F057
:102340000062C3F80022039A013203922033A0E511
:102350006B6943F4005343F02B036B612B6943F02B
:102360000B032B61ACE5B36923F08003B361012754
:1023700004F27F284FF024096368BB427FF6E0AD8A
:1023800009FB07F318F80330012B03D1F9B22046FB
:10239000FFF7C5FC0137EFE798F86430D9F8002063
:1023A000012B09D1002A07DA67F07F0188F8633032
:1023B000C9B22046FFF7B3FC013708F1240809F140
:1023C0002009C6E5013124332030D6E5006870B518
:1023D0001204446A19B922438262002070BD836AE4
:1023E0004D1E04EB134400235E1CDBB29D4205D856
:1023F0003F3100EB810022434260EEE7403300EBC7
:1024000083035B6804EB13443346EDE70368002065
:1024100059627047704700002DE9F341044640B30C
:102420000368DD0710D4236898075ED423681A0771
:1024300000F1A08023685B0700F1C080A06900283C
:1024400040F0288100202BE08F4B9A6802F00C02AC
:10245000042A07D09A6802F00C02082A0BD15A68A5
:10246000510208D5884B1B689A03DCD56368002BA2
:10247000D9D1012014E06268B2F5803F13D11A6807
:1024800042F480321A60FEF7FBFC7F4E054633684B
:102490009B03C8D4FEF7F4FC401B6428F7D9032043
:1024A00002B0BDE8F081784DB2F5A02F2B6807D1BE
:1024B00043F480232B602B6843F480332B60E2E7E6
:1024C00023F480332B602B6823F480232B60002AB5
:1024D000D9D1FEF7D5FC06462B689F03A3D5FEF79E
:1024E000CFFC801B6428F7D9D9E7674B9A6812F0B4
:1024F0000C0F07D09A6802F00C02082A11D15B6811
:102500005E020ED4604A13689D0702D5E368012B72
:10251000AFD11368216923F0F80343EAC1031360C4
:1025200084E7E268594BB2B101221A60FEF7A8FCB9
:10253000554D06462B68980707D52B68226923F06E
:10254000F80343EAC2032B6070E7FEF799FC801B97
:102550000228EFD9A3E71A60FEF792FC4A4E05461F
:10256000336899077FF562AFFEF78AFC401B0228AB
:10257000F6D994E76269454B82B10122C3F8802EF7
:10258000FEF77EFC404E0546736F9F073FF552AF46
:10259000FEF776FC401B0228F6D980E7C3F8802EB0
:1025A000FEF76EFC384E0546736F98077FF542AF15
:1025B000FEF766FC401B0228F6D970E7324B1A6C16
:1025C00012F0805228D101921A6C42F080521A64A3
:1025D0001B6C03F080530193019B01272C4D2B684A
:1025E000D9051BD5A368284D012B27D12B6F43F0AC
:1025F00001032B67FEF744FC234E054641F2883861
:10260000336F9B0739D5002F3FF418AF1E4A136C68
:1026100023F08053136411E70027DFE72B6843F4AE
:1026200080732B60FEF72CFC06462B68DA05D9D4A4
:10263000FEF726FC801B0228F7D930E7052B04D1D2
:102640002B6F43F004032B67D0E72A6F22F00102BF
:102650002A672A6F22F004022A67002BCAD1FEF7EC
:102660000FFC41F2883806462B6F9807CBD5FEF752
:1026700007FC801B4045F7D911E7FEF701FC401B22
:102680004045BDD90BE700BF00380240000047427B
:1026900000700040364DAB6803F00C03082B3DD0B2
:1026A000344B002202281A662BD1FEF7E9FB0646BE
:1026B0002B6899011FD4D4E907321343626A43EAB5
:1026C0008213E26A43EA0263A26A5208013A43EAC9
:1026D00002436B60274B264D01221A66FEF7D0FBA2
:1026E00004462B689A013FF5ADAEFEF7C9FB001B0F
:1026F0000228F6D9D3E6FEF7C3FB801B0228D7D900
:10270000CDE6FEF7BDFB04462B689B017FF59AAE34
:10271000FEF7B6FB001B0228F6D9C0E601283FF4FD
:10272000BFAE6B68E26903F4800191427FF4A1AE11
:10273000216A03F03F028A427FF49BAE616A47F64A
:10274000C0721A40B2EB811F7FF493AEA26A5208A6
:1027500003F44031013AB1EB024F7FF48AAEE26AF2
:1027600003F07063B3EB026F3FF46CAE81E600BF21
:102770000038024000004742134908B58B6803F057
:102780000C03042B1CD0082B1CD14A684B684968E9
:1027900013F4800314BF0D480D48C1F3881118BF0E
:1027A000002302F03F02A1FB0001FDF769FD064B8B
:1027B0005B68C3F3014301335B00B0FBF3F008BD7A
:1027C0000248FCE70248FAE70038024040787D0101
:1027D0000024F4002DE9F0410D46044610B9012013
:1027E000BDE8F081444B1A6802F007028A4228D300
:1027F000226897072DD4D00741D43F4B1A6802F0C6
:102800000702AA4266D8226851076CD4130707D57D
:102810003A4A2169936823F4604343EAC103936011
:10282000FFF7AAFF354B364A9B68C3F30313D35C0B
:10283000D840344B1860344B1868FEF7D7FA0020A4
:10284000CEE7CAB21A701B6803F007038B42C6D1E9
:10285000CEE72A4B12F0040F1EBF996841F4E051F5
:102860009960160742BF996841F460419960234915
:10287000A0688B6823F0F00303438B60BBE76268BA
:102880001E4B012A1CD11B6813F4003FA7D01B4E1E
:10289000B36823F003031343B360FEF7F1FA41F288
:1028A00088380746B368626803F00C03B3EB820F05
:1028B000A3D0FEF7E5FAC01B4045F3D903208FE70C
:1028C000911E01291B6802D813F0007FDEE713F088
:1028D000020FDBE7EAB21A701B6803F00703AB4292
:1028E0007FF47DAF8FE70549E0688B6823F4E05300
:1028F00003438B608AE700BF003C0240003802407F
:10290000A06B00083800002040000020014B186830
:10291000704700BF38000020044B054A9B68C3F392
:102920008223D35C034A1068D840704700380240C5
:10293000B06B00083800002082B00023104A0193D9
:10294000019B01330193019B934216D80369002B2D
:10295000F6DA002301930369094A43F00103036196
:10296000019B01330193019B934206D8036913F045
:102970000103F5D1184602B070470320FBE700BF02
:10298000400D030084B038B505AD85E80E000A9B04
:10299000012B044625D1836B23F480338363C36802
:1029A00023F4840323F04003C360C36823F440137B
:1029B000C360119B012B02BFC36843F48013C36043
:1029C000FFF7BAFF089B012B07D1A36843F006036A
:1029D000A360A36843F02003A360BDE8384004B0BF
:1029E0007047C36843F04003C360FFF7A5FF0E9B29
:1029F00023B9A36B43F48033A363E3E7A36B23F40E
:102A00008033F9E7022A4AD1274B284A0B449342E4
:102A100039D9274B274A0B44934236D9264AA1F588
:102A20007403A3F51053934231D9244AA1F183735F
:102A3000A3F5E74393422CD3214B224A0B44934204
:102A400029D9214B214A0B44934226D3204B214ABA
:102A50000B44934223D3204AA1F1B773A3F55853F3
:102A600093421ED31D4B1E4A0B44934234BF07238F
:102A70000623C26822F47052C260C26842EA83230D
:102A8000C360002070470F23F3E70E23F1E70D2307
:102A9000EFE70C23EDE70B23EBE70A23E9E7092334
:102AA000E7E70823E5E700BF405327FFFF340C00AA
:102AB000401E1BFF3F420F007F4F120020D6130025
:102AC00060B6E5FE5FE3160000D3CEFE40771B0044
:102AD000C05BB3FEC091210020753800E05459FE60
:102AE000E09C4100836843F001038360002070474D
:102AF000836823F0010383600020704738B5C36802
:102B0000012923F0C0430546C36010D1C36843F0D8
:102B10000053C36000240120FEF7B8F96B69D907A0
:102B200004F1010415D4322CF5D1012038BD00295F
:102B3000FBD1C36843F08043C3600C460120FEF71D
:102B4000A5F96B69DA0704F1010402D5322CF5D13D
:102B5000EBE7A4F1320358425841E7E782B0002383
:102B6000104A0193019B01330193019B934216D8B4
:102B70000369002BF6DA8901002341F02001094A9C
:102B800001930161019B01330193019B934206D89C
:102B9000036913F02003F5D1184602B070470320F3
:102BA000FBE700BF400D030082B000230F4A0193F2
:102BB000019B01330193019B934214D80369002BBD
:102BC000F6DA00230193094A10230361019B0133C4
:102BD0000193019B934206D8036913F01003F5D1CA
:102BE000184602B070470320FBE700BF400D03000A
:102BF000D0F800381943C0F80018002070470000D2
:102C000084B02DE9F843044609A880E80E00139D1E
:102C100000230E46194603F1400204EB8202013301
:102C20000F2B5160F7D104F50067002D6CD17B6844
:102C300043F002037B60A36B43F40013A363A36B15
:102C400023F40023A363A36B23F48023A363002353
:102C5000C4F8003ED4F80038C4F800380E9B012BAD
:102C60005CD10B99002957D12046FFF7C1FF1021F5
:102C70002046FFF773FF01462046FFF795FF084304
:102C8000C0B2002300383B6118BF01207B6104F50E
:102C90001062FB6119464FF0904C4FF0006E4FF6FA
:102CA0007F38B3423CD1002204F5306311464FF027
:102CB000904C4FF0006E4FF67F38B24243D13B69E3
:102CC00023F480733B610023A3616FF08043636151
:102CD0000C9B1BB9A36943F01003A361A269234BAA
:102CE0001343A3610F9B1BB1A36943F00803A361C6
:102CF000012D01BFA36943F0804343F00403A361A6
:102D0000BDE8F84304B07047A36B23F40013A3633A
:102D1000A36B43F4002399E71946A5E70321A3E732
:102D2000D2F80090B9F1000F0BDA3BB9C2F800E01D
:102D300011610133C2F808802032B2E7C2F800C046
:102D4000F6E71160F4E7D3F80090B9F1000F0BDA61
:102D50003AB9C3F800E019610132C3F808802033A2
:102D6000ABE7C3F800C0F6E71960F4E700383C8031
:102D7000D0F8083813F0060004D013F0020F14BF87
:102D800002200F20704730B50D78012405F00F03A5
:102D90009C404B7800F50062012B00EB4510D36995
:102DA00018D11C43D461D0F800391A0410D4CA6871
:102DB000D0F80049C2F30A030A79234343EA824365
:102DC00043EA855343F0805343F40043C0F800398D
:102DD000002030BD43EA0444D461D0F8003B1B041A
:102DE000F6D4CB68D0F8002BC3F30A0313430A7957
:102DF00043EA824343F0805343F40043C0F8003B6E
:102E0000E6E7000010B50A784978012900EB421383
:102E100000F5006002F00F0222D1D3F8001900295A
:102E20000BDAD3F8001941F00061C3F80019D3F8A8
:102E3000001941F08041C3F80019C46B012101FA67
:102E400002F224EA0204C463C16921EA0202C261F7
:102E5000D3F80019144A0A40C3F80029002010BD15
:102E6000D3F8001B00290BDAD3F8001B41F00061F6
:102E7000C3F8001BD3F8001B41F08041C3F8001BCE
:102E8000C46B4FF4803101FA02F224EA0204C463F5
:102E9000C16921EA0202C261D3F8001B034A0A4059
:102EA000C3F8002BDAE700BF007833EC0078F3EFCB
:102EB0004B78DFF8F0C0F0B50E788D69384F012BF4
:102EC00000EB461446D104F51063BDB91D692F40CF
:102ED0001F611D6945F400251D611D6905EA0C058A
:102EE000012A1D6123D14A6902B15A61D4F800391F
:102EF00043F00443C4F800390020F0BDD3F810E0DB
:102F00000EEA0C0CC3F810C0D3F810C00CEA070787
:102F10001F61CF68AF421D6938BF8F6145F400253E
:102F20001D618D691F69C5F312053D43D8E7D4F8CB
:102F3000003943F00443C4F800398B69002BDBD01F
:102F4000D0F8342806F00F060123B3401343C0F82D
:102F50003438D1E7D4F8100B00EA0C00C4F8100B99
:102F6000D4F8100B384004F530631861C86805B117
:102F700088611D69C86145F400251D611D69C0F3A4
:102F800012002843012A186102D10A6902B15A616C
:102F9000D4F8003B43F00443C4F8003BACE700BF67
:102FA000FFFF07E00000F8FF82B000234A7801939A
:102FB0000B78012A4FEA43131ED100F51060C118A7
:102FC000C258002A02DB002002B07047C25842F00B
:102FD0000062C250C25842F08042C25042F21072A7
:102FE000019B01330193019B934201D90120EBE73F
:102FF0000B68002BF4DBE6E700F53060C118C2581F
:10300000002AE0DAC25842F00062C250C25842F0D0
:103010008042C25042F21072019B01330193019B26
:103020009342E3D80B68002BF6DBCCE710B59DF894
:10303000084044B9033301329B0800EB023001EB36
:1030400083038B4201D1002010BD51F8042B026094
:10305000F7E700002DE9F3414D780F788B690E7981
:10306000DFF8BCC1DFF8BCE1012D00EB471440F0F4
:103070008E8004F51065D5F810806BBB08EA0C0C47
:10308000C5F810C0D5F810C04CF4002CC5F810C01D
:10309000D5F810C00CEA0E0EC5F810E0012A4ED18A
:1030A0004B6903B16B61012E0CD1D0F8083813F4D1
:1030B000807FD4F800390CBF43F0005343F08053B5
:1030C000C4F80039D4F8003943F00443C4F8003997
:1030D000002002B0BDE8F08108EA0E0EC5F810E04D
:1030E000D5F810E00EEA0C0CD1F80CE0C5F810C0D1
:1030F0000EEB030C0CF1FF3CBCFBFEFEDFF828C11D
:10310000D5F810800CEACE4C4CEA080CC5F810C07B
:10311000D5F810E0C3F3120C4CEA0E0C012EC5F8E2
:1031200010C0BBD1D5F810C02CF0C04CC5F810C0F1
:10313000D5F810C04CF0005CC5F810C0AEE7D4F86C
:103140000059012E45F00445C4F800590BD0002B5E
:10315000BED0D0F8343807F00F02012797401F4344
:10316000C0F83478B4E7D0F8085815F4807FD4F864
:1031700000590CBF45F0005545F08055C4F8005982
:10318000009209699BB23A46FFF750FFA0E7D4F8D6
:10319000105B05EA0E05C4F8105BD4F8105B05EA75
:1031A0000C0504F530673D61CD681BBB3B69C5F379
:1031B00012051D433D613B6943F400233B61012A35
:1031C00002D10B6903B17B61012E0CD1D0F8083814
:1031D00013F4807FD4F8003B0CBF43F0005343F05E
:1031E0008053C4F8003BD4F8003B43F00443C4F8D8
:1031F000003B6DE72B44DFF830C0D7F810E0013B0F
:10320000B3FBF5F39BB25D430CEAC34343EA0E0301
:10321000CD613B613B69C5F312051D433D61CEE7BE
:10322000FFFF07E00000F8FF0000F81F034670B53D
:103230009008002402F0030203F58055844210D365
:1032400001EB800062B103F580531C680023D900B4
:1032500024FA01F1C154013399B28A42F7D11044E2
:1032600070BD2E6841F824600134E7E74A780B7896
:10327000012A00EB431012D1D0F80029002A06DB06
:103280002BB1D0F8003923F08043C0F80039D0F8D2
:10329000003943F40013C0F8003900207047D0F81B
:1032A000002B002A06DB2BB1D0F8003B23F0804333
:1032B000C0F8003BD0F8003B43F40013C0F8003BDB
:1032C000EBE70B784A7800EB43100B79012AA3F166
:1032D0000203DBB20FD1D0F80029012B22F4001237
:1032E000C0F8002905D8D0F8003943F08053C0F861
:1032F000003900207047D0F8002B22F40012012B77
:10330000C0F8002B9EBFD0F8003B43F08053C0F8BC
:10331000003BEEE7D0F8003823F4FE63C0F8003835
:10332000D0F80038090101F4FE611943C0F8001813
:1033300000207047D0F8003E23F00303C0F8003EA1
:10334000D0F8043823F00203C0F804380020704796
:10335000D0F8003E23F00303C0F8003ED0F8043854
:1033600043F00203C0F804380020704742698069C6
:1033700010407047D0F8183800F50060C069184058
:10338000000C7047D0F8183800F50060C06918408C
:1033900080B2704700EB411100F50060D1F8082BB6
:1033A00040691040704710B5D0F81048D0F8343854
:1033B00000EB411001F00F01CB4000F51060DB0184
:1033C0008068DBB22343184010BD406900F0010063
:1033D0007047D0F8003923F4FF6323F00703C0F8E7
:1033E0000039D0F8043843F48073C0F80438002062
:1033F0007047000030B5056C104CA54200F53063F5
:1034000003D9D0F8004B002C16DB00241C611C698A
:1034100044F400241C611C6944F018041C611C69FC
:10342000012944F0C0441C6101BF5A61D0F8003B3F
:1034300043F08023C0F8003B002030BD0A30544FD9
:1034400008B500F0EBFB0F490F48002200F050FCDC
:1034500008B1FDF7C1FB0D490B4800F05AFC08B15B
:10346000FDF7BAFB0A49084800F0ACFA08B1FDF7CD
:10347000B3FB054800F06DFC18B1BDE80840FDF74E
:10348000ABBB08BD58000020400800208801002088
:103490004400002000207047202903D021290ED0AD
:1034A00000207047124B116843F8301003EBC00343
:1034B000117919715179597192799A71F0E70C4B20
:1034C00053F83010117053F83010090A517053F846
:1034D0003010090C917053F8301003EBC003090E43
:1034E000D17019791171597951719B799371D7E71D
:1034F0005C0B00200020704708B5044A044902EB29
:10350000C01200F075FA002008BD00BF640B002057
:103510004008002038B513460A4A4FF4077505FBEA
:1035200000220446D2F814224AB90A46064900F09D
:1035300051FA20460449BDE8384000F065BA012040
:1035400038BD00BFE40D00204008002037B50B78DF
:10355000FF2B05460C4604D14B78F02B0DD1FDF71F
:1035600049FB22461549284600F042FA13492846ED
:1035700000F06EFA002003B030BD032B09D1104BD0
:1035800001221A7000220F484FF40051FDF7C0FDD0
:10359000E7E7042B04D10A4B00221A700122F2E75C
:1035A000102B08D10422084B01930DEB02010020DF
:1035B000FFF7B0FFD5E7012BD3D1E0E740080020AB
:1035C0002903002000080240FF1000F112230148E7
:1035D0000B80704774000020042301480B80704763
:1035E00088000020002370B54D1C1E46040FB0F16A
:1035F000204F34BF3034373401F8134005F81360DE
:103600000133DCB2A2424FEA0010EFD870BD0000D7
:103610001A2310B50B800A4BD3F8100AD3F8182AD6
:1036200080180AD0D3F8144A06490822FFF7DAFFB7
:10363000042210312046FFF7D5FF034810BD00BF1C
:103640000070FF1F8E0000208C00002010B5044C7D
:1036500004480A46214600F0E5FE204610BD00BFA2
:10366000E40B0020B86B000810B5044C04480A466F
:10367000214600F0D7FE204610BD00BFE40B00201D
:10368000CB6B000810B5044C04480A46214600F0F4
:10369000C9FE204610BD00BFE40B0020E26B00080D
:1036A00010B5044C04480A46214600F0BBFE2046F3
:1036B00010BD00BFE40B0020F26B000838B5D0F855
:1036C000BC326BB1074C94F80012FF2908D09D68FA
:1036D00094F8013222460020A847FF2384F80032E4
:1036E000002038BDE40D00204B23038000487047C4
:1036F000E40000204B230380004870473001002085
:103700000A230380004870477C01002010B504465E
:1037100000F085FF064BD4F8BC22C3F80C02D46835
:10372000D3F8041203F503720020A047002010BD57
:10373000E40D0020F8B5142505FB01050446AA692F
:103740000B4682B1D0F81063242707FB0166B66CE4
:10375000B2FBF6F706FB17222AB9AA61134600F05E
:10376000A4FF0020F8BDD4F8BC220649146900204B
:10377000C1F81402002CF4D001F50472D1F808123B
:10378000A047EEE7E40D00202DE9F3410B78002778
:1037900013F0600405460E468DF80570ADF806700E
:1037A0002DD0202C60D1CC884978ECB11B0610D5E7
:1037B000D0F8BC322F4AD3F8088038462346C04799
:1037C000F2882C49072A28BF0722284600F046FE27
:1037D00008E0284B224683F8001283F8014219467C
:1037E00000F051FE3C4606E0D0F8BC3232469D68FF
:1037F00020462346A847204602B0BDE8F0814F7816
:103800000B2F31D801A353F827F000BF3D38000833
:10381000F737000869380008693800086938000877
:1038200069380008693800086938000869380008F4
:10383000693800084D3800086138000890F89C325B
:10384000032B11D102220DF10601BEE790F89C3244
:10385000032B09D101220DF1050100F0FFFDCAE79C
:1038600090F89C32032BC6D03146284600F0CFFD9D
:103870000324C0E7E40D0020F8B5154D154F297855
:10388000044600F0EEFE2A783978142602F00F0282
:1038900006FB024200259584204600F0E2FE3A78BD
:1038A0000D4F02F00F0206FB02423978A2F8645174
:1038B000204600F0D6FE3B7803F00F0306FB0343DF
:1038C00028465D62D4F8BC325B6898472846F8BD4C
:1038D0000310002004100020001000202DE9F0410A
:1038E000314F037C3978314D314E0446002B49D19C
:1038F0004FF40073022200F0A8FE3B78142703F077
:103900000F0307FB03434FF00108A3F824804FF493
:10391000007329780222204600F097FE2B7803F0EE
:103920000F0307FB03431022A3F86481337803F0ED
:103930000F0307FB03432046DA8431780823032270
:1039400000F083FE3378142203F00F0302FB0343DD
:1039500001229A84D4F8BC3200201B689847154A8B
:103960000023C2F81432C2F81832237CD3B94FF4C2
:103970000073D2F804222978204600F09FFE002030
:10398000BDE8F0814023022200F05FFE3B7814275F
:1039900003F00F0307FB03434FF00108A3F8248053
:1039A0004023B6E74023E4E7031000200410002082
:1039B00000100020E40D00204B23038000487047D6
:1039C000E400002019B1C0F8BC12002070470320A9
:1039D0007047000010B505494FF4077404FB001050
:1039E000C0F80822C0F81032002010BDE40D0020FD
:1039F000044B4FF4077101FB0030C0F80422002093
:103A0000704700BFE40D00200F4A70B54FF40773F4
:103A1000044603FB04220846D2F8145201238DB950
:103A2000C2F81432094B195DD2F81032D2F80822CC
:103A300001F00F04142606FB0404A36100F035FE18
:103A4000284670BD1846FCE7E40D00200310002056
:103A500010B50346094A0846D15C094A4FF4077479
:103A600004FB0323D3F80422037C2BB94FF4007327
:103A700000F024FE002010BD4023F9E704100020D0
:103A8000E40D002070B59DF810509DF814609DF86D
:103A9000184080F84630C1724476C17480F8232003
:103AA00080F82B1080F82C2080F82F5080F83620DA
:103AB00080F83F6006480370064B1E70064B1D7071
:103AC000064B1970064B1A70064B1C7070BD00BF78
:103AD000031000200410002000100020011000201E
:103AE000021000200510002008B5024B1B68984703
:103AF000002008BDA800002008B5024B5B6898476D
:103B0000002008BDA800002008B5024B1B6998479B
:103B1000002008BDA800002000207047002070474A
:103B20004B23038000487047541000204B23038030
:103B300000487047061000200A23038000487047A1
:103B4000C40100201FB50F4B1B788B4214464FF069
:103B5000000314D30C4A12788A42CDE90033CDE930
:103B6000023309D1094A1021684602F009FB0849CD
:103B70002246684600F056FC054804B010BD1846C1
:103B8000FBE700BFCE01002005100020066C0008F6
:103B90009F100020064A0B7912789A4203D0054AFA
:103BA00012789A4202D1044B9B6818470320704751
:103BB0000110002002100020A8000020084B1B78F4
:103BC00003F07F038B4205D0064B1B7803F07F0385
:103BD0008B4202D1044B5B6918470320704700BF3A
:103BE0000310002000100020A8000020044B1B78C8
:103BF0008B4202D1034B9B6918470320704700BFDB
:103C000004100020A800002000207047002070470A
:103C10004B23038000487047541000202DE9F047E3
:103C2000DFF8C490DFF8C480D9F82C302A4C86B075
:103C30000025ADF816500DF116009847012698F8AA
:103C4000003002934FF0820A812332462946CDE9A3
:103C500000A60746FFF716FFBDF8162007F1090179
:103C6000093A04F1090002F075FAD9F828301B4F1F
:103C70000DF11600984798F80030CDF800A0CDE976
:103C800001633246812329468146FFF7FBFEBDF8DA
:103C9000162009F10901093A07F1090002F05AFA60
:103CA00098F800300E4AE570334488F800300D4B28
:103CB0006671C7E900230922227002223223627052
:103CC0004B212271C0223B72A170A571E271237257
:103CD00006B0BDE8F08700BF061000205410002099
:103CE00009024B00020100C0A8000020CE01002004
:103CF00068B10023C0F8B832C0F8183309B1C0F871
:103D0000B412012380F89C32027000F047BC0320FB
:103D1000704773B500260546ADF80660B9B1047C5E
:103D2000C0F8B8124CB98B6A23B10DF10600984760
:103D3000C5F81803204602B070BDCC6A002CF9D03B
:103D40000DF10600A0473446C5F81803F2E7032436
:103D5000F0E700F071BCD0F8B8320BB11B6818471F
:103D60000320704708B5D0F8B8320BB15B689847AC
:103D7000002008BD38B5044600F2AA25284600F008
:103D80003BFB012394F8AA12C4F89432B4F8B03281
:103D9000C4F8983201F01F03012B08D0022B0CD07D
:103DA0008BB929462046BDE8384000F023B92946A2
:103DB0002046BDE8384000F069BA29462046BDE8F3
:103DC000384000F089BA204601F08001BDE8384053
:103DD00000F050BC70B504461546F9B9D0F89432DD
:103DE000032B0CD1D0E9573293420AD99B1A9A423D
:103DF000C0F85C3128BF1A46294600F051FB00206C
:103E000070BD90F89C32032B04D1D0F8B8321B69F6
:103E100003B19847204600F04BFBF0E790F89C3246
:103E2000032BECD1D0F8B8329B69002BE7D0BDE86A
:103E30007040184773B50446164600293FD1D0F8A4
:103E40009422022A0FD1D0E90752954215D9AA1A15
:103E50000191C261314600F00EFB019B1A461946E2
:103E6000204600F02BFC94F8A032012B02D1002355
:103E700084F8A032002002B070BD0ED18269954254
:103E80000BD8D0F89852AA4207D20A46019100F006
:103E9000F2FA019BC4F89832E0E794F89C32032BC5
:103EA00005D1D4F8B832DB680BB1204698478021A1
:103EB000204600F0DFFB204600F005FBD3E790F83A
:103EC0009C32032BD6D1D0F8B8325B69002BD1D00D
:103ED00002B0BDE870401847012370B580F89C32ED
:103EE000D0F8B83200210446C0F894124160C0F8FE
:103EF000A412C3B15B6803B1984700221146402564
:103F000040230126204600F0A0FBA4F86461C4F819
:103F100060512B4600228021204600F096FBA684AB
:103F20002562002070BD0320FCE70174002070476B
:103F300090F89C32DBB280F89D32042380F89C32EA
:103F40000020704790F89C32042B02BF90F89D32FD
:103F5000DBB280F89C3200207047D0F8B82208B558
:103F600042B190F89C32032B02D1D36923B1984718
:103F7000002000E0032008BD1846FCE7D0F8B82276
:103F800008B542B190F89C32032B02D1136A23B1D9
:103F90009847002000E0032008BD1846FCE7D0F851
:103FA000B82208B542B190F89C32032B02D1536A73
:103FB00023B19847002000E0032008BD1846FCE725
:103FC00000207047012208B580F89C22D0F8B82262
:103FD00012B1526801799047002008BD10B58021C8
:103FE000044600F047FB20460021BDE8104000F0E9
:103FF00041BB0000F7B50D7805F06005202D0446A3
:104000000E4614D0402D12D0002D40F009814F787B
:10401000092F00F20581DFE817F00A012C010301E6
:10402000220103018B0013000301F200A700D4F862
:10403000B8329B683146204603B0BDE8F0401847CF
:1040400049880023ADF806300B0A013B062B37D810
:10405000DFE803F0041C293636596300D0F8B43287
:104060001B68207C0DF106019847F288002A00F0B9
:10407000FC80BDF806301BB39A4228BF1A46ADF843
:1040800006200146204600F0E9F91CE0027CD0F849
:10409000B83232B99B6A0DF106009847022343708B
:1040A000E3E7DB6AF7E7C9B2052923D8DFE801F0C7
:1040B000030E12161A1ED0F8B4325B68002BD0D152
:1040C0002046FFF78BFF284603B0F0BDD0F8B4328E
:1040D0009B68F3E7D0F8B432DB68EFE7D0F8B4328E
:1040E0001B69EBE7D0F8B4325B69E7E7D0F8B4328C
:1040F0009B69E3E7D0F8B8329B6B002BE0D00DF161
:1041000006029847B1E7037C002BD9D1D0F8B8322A
:104110000DF106005B6B9847A7E7037C002BCFD11E
:10412000D0F8B8320DF106001B6B98470723B6E7AD
:104130008B88002BC4D1CB88002BC1D14E887F2E19
:10414000BED890F89C32032BBAD0F1B280F89E1200
:1041500000F0A2FA204600F0ABF91EB1022384F869
:104160009C32B0E70123FAE78E78474F012E3E706C
:1041700003D9FFF733FF0325A5E790F89C32022B04
:10418000DAB208D0032A14D0FFF728FF3978204686
:10419000FFF7E8FDEFE7002E67D001214160FFF750
:1041A000DAFD05462046002D8BD100F081F903236E
:1041B000D5E75EB9022380F89C3246603146FFF7AE
:1041C000D1FD204600F074F935467CE741680129AD
:1041D0004BD0C9B2FFF7C6FD397861602046FFF7C2
:1041E000BAFD0646002840D02046FFF7F7FE2179A9
:1041F0002046FFF7B7FD022384F89C32E4E7CA8823
:10420000012A7FF45DAF90F89C120229CBB205D849
:1042100033B10146002341F8083F33E7032B04D0B4
:104220002046FFF7DBFE00254DE7011D2AE790F849
:104230009C32013B022BF3D8CB88022B7FF440AF9A
:104240000123C360D0F8A4320BB10323C360022260
:1042500004F10C01204600F001F93D4633E74B889C
:10426000012B7FF430AFC4F8A432204600F020F9CF
:1042700029E790F89C32013B022BD1D84B88012BC7
:104280007FF421AF0023EEE7DF10002070B50B783C
:1042900003F06002402A04460E4601D05B0616D4A5
:1042A00094F89C32013B022B11D833790F2B0ED896
:1042B000D4F8B83231469B6820469847F3880546C3
:1042C0001BB910B9204600F0F3F8284670BD20460F
:1042D000FFF784FE0025F8E770B50B7803F0600364
:1042E000202B04460D4653D0402B51D073BB6B7826
:1042F0008A880979012B3AD0032B20D033BB90F860
:104300009C32022BD8B254D003281FD101F00F03E6
:1043100012F0800F4FF0140202FB034358D09B8C25
:10432000A3B101F07F05013505EB850504EB85059B
:1043300011F07F0358D12B600222294644E090F807
:104340009C32022BDAB22BD0032A03D02046FFF78F
:1043500045FE0AE06B882BB94A0603D0EB880BB9FF
:1043600000F088F9204600F0A3F8002070BD90F816
:104370009C32022BDAB213D0032AE7D16B88002BD0
:10438000F3D14E0601D000F07EF9204600F090F8FF
:10439000D4F8B832294620469B68BDE870401847DB
:1043A0004B06D3D000F066F98021204600F062F978
:1043B000DBE74906CAD113064CBF04F1140104F52A
:1043C000AA7100230B600222204600F047F8CCE7D8
:1043D000B3F86431002BB9D001F07F05142303FB3F
:1043E000054505F5AA75A3E7204600F005F908B1D3
:1043F0000123A0E728609FE70B7803704B78437098
:104400004B8843808B888380CB88C380704710B5EE
:104410008021044600F02EF920460021BDE810401E
:1044200000F028B930B588B10024013823460134A2
:10443000055D002DFAD1DBB201335B0013800B70F8
:1044400003234B70022310F8012F02B930BDCA5468
:104450005A1CD2B202338D54DBB2F4E710B50224F9
:104460001346C0E90622C0F894420A46002100F033
:104470001CF9002010BD08B513460A46002100F0C3
:1044800014F9002008BD10B503241346C0E95622D4
:10449000C0F894420A46002100F010F9002010BD37
:1044A00008B513460A46002100F008F9002008BDAF
:1044B00008B504220023C0F8942219461A4600F0D9
:1044C000F4F8002008BD08B505220023C0F89422A6
:1044D00019461A4600F0F2F8002008BD9208FDF7D0
:1044E00075BF8908FDF792BF00F2C441D0F80805F6
:1044F000FFF740BC242303FB0103D0F80805D3F8E1
:104500008C22FFF767BC242303FB0103D0F80805C6
:10451000DA6CFFF78FBCD0F80805FFF71EBDC16845
:10452000022910B5044602D011B1FCF755FB012158
:10453000D4F80805FFF7F9FCD4F80805BDE81040E9
:10454000FFF7CABC10B50446D0F80805FFF7F0FC29
:104550002268D2F8003E43F00103C2F8003E236A0D
:1045600023B1034A136943F00603136110BD00BF72
:1045700000ED00E0D0F80805FFF7E4BCD0F808052E
:10458000FFF70DBDD0F80805FFF7F8BCD0F8080517
:10459000FFF716BDD0F80805FFF714BD38B5124C6B
:1045A000124B23600578EDB9C3F808054FF400718C
:1045B000C0F810331846FFF794FF402229462068C0
:1045C000FFF78CFF0A4B20681978802201F07F01E9
:1045D000FFF784FF074B20681978402201F07F0124
:1045E000FFF77CFF002038BDE010002030030020E2
:1045F000031000200010002011F0800FD0F81033BD
:104600004FF024021BBF01F07F0102FB013102FBCE
:10461000013191F83E0008BF91F87E027047D0F852
:104620001003FDF7E6BA000003289ABF014B185C9F
:1046300003207047166C000808B5D0F81003FDF78A
:104640001AFABDE80840FFF7EFBF10B51446D0F8DE
:1046500010031A462346FDF741FABDE81040FFF764
:10466000E3BF08B5D0F81003FDF770FABDE80840C5
:10467000FFF7DABF08B5D0F81003FDF7E2FABDE89E
:104680000840FFF7D1BF08B5D0F81003FDF711FBC4
:10469000BDE80840FFF7C8BF08B5D0F81003FDF724
:1046A00009FABDE80840FFF7BFBF08B5D0F810030E
:1046B000FDF7A7FABDE80840FFF7B6BF08B5D0F888
:1046C0001003FDF772FABDE80840FFF7ADBF000028
:1046D000EFF305832BB9064B186828B901221A603D
:1046E00070476FF0050070474FF0FF30704700BF14
:1046F0004013002010B5EFF305845CB9084B1A682D
:10470000012A0AD1074AD47702221A6000F088FDF4
:10471000204610BD6FF00500FBE74FF0FF30F8E7D3
:104720004013002000ED00E0F0B587B014460022F1
:104730000B460592EFF30582D2B9C8B1002C2FD0F9
:10474000A569002D08BF1825691E3729AC462BD84E
:104750006168C90728D466696EB1B208D4E9027EDF
:10476000216857B1BEF15B0F02D9246904B1EEB9DB
:10477000059807B0F0BD8022F0E7BEF1000FF7D139
:104780002469002CF4D10C4605A9CDE900C192B2F0
:10479000214600F018FD01281CBF00230593E7E720
:1047A0004FF0180C8022EFE71046E2E7CDE9014711
:1047B000009500F0D0FC0590DAE710B5EFF3058422
:1047C00024B910B100F08AFE204610BD6FF005003C
:1047D000FBE70000034B0360034B0B608023136077
:1047E000704700BFE4120020E4100020034B036078
:1047F000034B0B604FF48073136070474417002025
:104800004413002000F108034FF0FF32C0E90223F7
:104810004360036100230360704700230361704716
:1048200043684B609A688A609A685160996003682F
:10483000086101330360704730B50C68631C0AD10E
:1048400003695A684A6091608B6059600368086127
:104850000133036030BD00F1080213465268156849
:10486000A542FAD9EDE7D0E9011203698A605160E7
:104870005968814208BF5A60002202611A68013AF1
:104880001A601868704710B5044601F0FBF9A46B74
:1048900001F018FAB4FA84F0400910BDF8B51546D5
:1048A000026C866B044652B9076847BB806800F00B
:1048B0004DFFA76005460136A6632846F8BD65B9D9
:1048C000406801F047FC6368226C1344A26863608F
:1048D0009342F0D323686360EDE7C06801F03AFCCF
:1048E000226CE36851429B1A2268E36093423EBF08
:1048F000A3685B18E360022D01D116B1013E0025CB
:10490000D9E73546D7E7034610B41A6C08466AB1B2
:10491000DC68996814448C4228BF1968DC6028BFA1
:10492000D960D9685DF8044B01F014BC5DF8044B04
:10493000704770B5044601F0A5F994F8455004F1AC
:1049400024066DB2002D14DCFF2384F8453001F0FD
:10495000B9F901F097F994F8445004F110066DB2DA
:10496000002D12DCFF2384F84430BDE8704001F0D4
:10497000A9B9636A002BE7D0304600F045FE08B1C4
:1049800000F0CEFE013D6DB2DCE72369002BE9D0DB
:10499000304600F039FE08B100F0C2FE013D6DB2B4
:1049A000DEE738B50D46044640B94FF0500383F3B7
:1049B0001188BFF36F8FBFF34F8FFEE701F062F9ED
:1049C000D4E90F31226862604B43D0185B1A13445C
:1049D000A060E3600020FF23A06384F8443084F8E3
:1049E0004530A5B9236973B104F1100000F00CFE45
:1049F00048B14FF0E0234FF08052C3F8042DBFF3CD
:104A00004F8FBFF36F8F01F05DF9012038BD04F1C6
:104A10001000FFF7F7FE04F12400FFF7F3FEF2E7C2
:104A200013B51C4640B94FF0500383F31188BFF310
:104A30006F8FBFF34F8FFEE743B94FF0500383F3FF
:104A40001188BFF36F8FBFF34F8FFEE74AB191B963
:104A50004FF0500383F31188BFF36F8FBFF34F8F75
:104A6000FEE741B14FF0500383F31188BFF36F8F1E
:104A7000BFF34F8FFEE750230193019B502B08D0CB
:104A80004FF0500383F31188BFF36F8FBFF34F8F45
:104A9000FEE7002908BF2246019B22600123C4E9EA
:104AA0000F0184F8463019462046FFF77AFF9DF83B
:104AB000103084F84C30204602B010BD2DE9F04390
:104AC00085B0884601921F46044640B94FF0500316
:104AD00083F31188BFF36F8FBFF34F8FFEE751B998
:104AE000036C43B14FF0500383F31188BFF36F8F12
:104AF000BFF34F8FFEE7022F0BD1E36B012B08D0E2
:104B00004FF0500383F31188BFF36F8FBFF34F8FC4
:104B1000FEE700F00BFE064650B9019B4BB14FF08B
:104B2000500383F31188BFF36F8FBFF34F8FFEE7FE
:104B300000264FF0000937E0019D1DB901F0C2F8D1
:104B4000002052E016B902A800F0A2FD01F0BAF868
:104B500000F0ACFB01F096F894F84430FF2B08BF4E
:104B600084F8449094F84530FF2B08BF84F84590B2
:104B700001F0A8F801A902A800F096FD00284AD18A
:104B800001F080F8A26BE36B9A4231D101F09AF800
:104B9000019904F1100000F0FFFC2046FFF7C9FE68
:104BA00000F028FC60B3012601F06CF8A26BE36B07
:104BB0009A4201D3022FBFD13A4641462046FFF721
:104BC0006DFE636A1BB104F1240000F01DFD48B1C5
:104BD0004FF0E0234FF08052C3F8042DBFF34F8F06
:104BE000BFF36F8F01F06EF8012005B0BDE8F083D0
:104BF00001F068F82046FFF79CFE00F0FBFBD2E7CF
:104C00004FF0E0234FF08052C3F8042DBFF34F8FD5
:104C1000BFF36F8FC7E72046FFF78BFE00F0EAFB7C
:104C20008EE72DE9F843894690461F46044640B971
:104C30004FF0500383F31188BFF36F8FBFF34F8F93
:104C4000FEE751B9036C43B14FF0500383F3118871
:104C5000BFF36F8FBFF34F8FFEE7022F0BD1E36BD4
:104C6000012B08D04FF0500383F31188BFF36F8FEF
:104C7000BFF34F8FFEE701F01BF9EFF311864FF002
:104C8000500383F31188BFF36F8FBFF34F8FA26B75
:104C9000E36B9A4201D3022F23D194F84550A36BC2
:104CA0006DB23A4649462046FFF7F8FD6B1C13D11A
:104CB000636A0BB901200BE004F1240000F0A4FCAE
:104CC0000028F7D0B8F1000FF4D00120C8F8000098
:104CD00086F31188BDE8F88301356DB284F845503C
:104CE000E8E70020F4E72DE9FF410F460192044672
:104CF00040B94FF0500383F31188BFF36F8FBFF3B8
:104D00004F8FFEE751B9036C43B14FF0500383F36B
:104D10001188BFF36F8FBFF34F8FFEE700F006FDE2
:104D2000064650B9019B4BB14FF0500383F31188F5
:104D3000BFF36F8FBFF34F8FFEE700264FF00008E1
:104D40003DE0019D1DB900F0BDFF002056E016B901
:104D500002A800F09DFC00F0B5FF00F0A7FA00F0FB
:104D600091FF94F84430FF2B08BF84F8448094F8F6
:104D70004530FF2B08BF84F8458000F0A3FF01A950
:104D800002A800F091FC002841D12046FFF77BFDEE
:104D9000B8B3019904F1240000F0FEFB2046FFF7B0
:104DA000C8FD00F027FB48B94FF0E0234FF08052D8
:104DB000C3F8042DBFF34F8FBFF36F8F012600F0B0
:104DC00061FFA56B002DBCD039462046013DFFF7A1
:104DD0009AFDA563236973B104F1100000F014FC7F
:104DE00048B14FF0E0234FF08052C3F8042DBFF3D9
:104DF0004F8FBFF36F8F00F065FF012004B0BDE857
:104E0000F0812046FFF795FD00F0F4FAD6E7204642
:104E1000FFF78FFD00F0EEFA2046FFF734FD002883
:104E2000CCD092E710B5074A002352F833402CB992
:104E300042F8331002EBC303586010BD0133082B56
:104E4000F3D1FAE7A017002070B504460D461646C8
:104E500000F018FF94F84430FF2B04BF002384F8BF
:104E6000443094F84530FF2B04BF002384F84530CC
:104E700000F028FFA36B2BB93246294604F1240029
:104E800000F0A4FB2046BDE87040FFF752BD0000D3
:104E90002DE9F041044600F0F5FE304B304E1A6823
:104EA000304F01321A603568002D4BD134601B68D9
:104EB000012B1FD1B84640460135FFF7A3FC382D22
:104EC00008F11408F7D1DFF8C480274D4046FFF7FA
:104ED00099FC2846FFF796FC2448FFF793FC2448EA
:104EE000FFF790FC2348FFF78DFC234BC3F80080AD
:104EF000224B1D60224A136801331360214A636408
:104F00001168E36A14208B4200FB037004F1040172
:104F100088BF1360FFF784FC00F0D4FE1A4B1B68B7
:104F200073B13368DA6AE36A9A4209D24FF0E02338
:104F30004FF08052C3F8042DBFF34F8FBFF36F8F34
:104F4000BDE8F081104B1B68002BD3D13368DA6ABF
:104F5000E36A9A4298BF3460CCE700BF4C1C002043
:104F6000E0170020EC170020741C0020941C002087
:104F7000C01C0020AC1C0020E4170020E817002013
:104F8000581C00205C1C0020A81C0020601C002075
:104F9000F8B5154B154E1D680446306804300F46B1
:104FA000FFF761FC631C07D137B131681048BDE8D9
:104FB000F8400431FFF734BC33682C195C6007D328
:104FC0000C4B18683168BDE8F8400431FFF734BC79
:104FD000094B186831680431FFF72EFC074B1A683B
:104FE000A24288BF1C60F8BDD41C0020E01700203E
:104FF000AC1C0020E8170020E4170020881C0020CB
:10500000064A13681968064B19B94FF0FF321A6047
:1050100070471268D268D2685268F8E7E417002037
:10502000881C002010B590F8593004463BB9006B3D
:1050300001F028F82046BDE8104001F023B8012B0C
:10504000F9D0022B08D04FF0500383F31188BFF33F
:105050006F8FBFF34F8FFEE710BD000080B5134C7C
:10506000134F144D236873B9134B1B68012BF8D9E8
:105070004FF0E0234FF08052C3F8042DBFF34F8F61
:10508000BFF36F8FEDE700F0FDFDFB68DE68301DBC
:10509000FFF7E9FB2B68013B2B602368013B236092
:1050A00000F010FE3046FFF7BDFFDBE7501C00208C
:1050B000C01C00204C1C0020EC1700202DE9F047FC
:1050C000DDE909844FEA82094A4606460D46206B0F
:1050D000A5211F4601F04CF8226BA9F10409914467
:1050E00029F00709A5B36B1E04F134020F3513F83C
:1050F000010F02F8010B08B1AB42F8D1002384F88C
:105100004330089D372D28BF37254FF0000AE56250
:10511000E564201DC4F850A0FFF77FFBC5F13805FA
:1051200004F11800FFF779FBC4F854A02461A561CD
:10513000646284F858A03A463146484600F074FD4F
:105140002060B8F1000F01D0C8F80040BDE8F0873A
:1051500084F83450D5E770B586B0DDE90B5445B915
:105160004FF0500383F31188BFF36F8FBFF34F8F5E
:10517000FEE744B94FF0500383F31188BFF36F8FFC
:10518000BFF34F8FFEE75C260596059E5C2E08D088
:105190004FF0500383F31188BFF36F8FBFF34F8F2E
:1051A000FEE72563022584F8595004AD01950A9D58
:1051B00002940095059EFFF781FF2046FFF768FEE9
:1051C000049806B070BD2DE9F043074685B0900005
:1051D00088461646994600F0BDFE0546E8B15C20BB
:1051E00000F0B8FE0446A8B1002380F859300D9BAA
:1051F000056301930C9B0290009332464B46414657
:105200003846FFF75BFF2046FFF742FE012005B05E
:10521000BDE8F083284600F035FF4FF0FF30F6E799
:1052200010B588B0002407AA06A905A8CDE9054451
:10523000FFF7D0FA059B0293069B079A1649174879
:10524000CDE900432346FFF786FF18B300F014FBB7
:10525000012814D14FF0500383F31188BFF36F8FEF
:10526000BFF34F8F0E4B4FF0FF321A600D4B18609B
:105270000D4B1C6008B0BDE8104000F093BD01303C
:1052800008D14FF0500383F31188BFF36F8FBFF342
:105290004F8FFEE708B010BD1A6C00085D50000883
:1052A000881C0020A81C0020D41C0020024A13687F
:1052B00001331360704700BF541C0020014B186875
:1052C000704700BFD41C00203F4B1B682DE9F74FEF
:1052D000002B73D13D4B1D6801351D60BDB93C4BA2
:1052E0001A68126842B14FF0500383F31188BFF37C
:1052F0006F8FBFF34F8FFEE7364A1968106818604A
:105300001160354A136801331360FFF779FE334E9D
:10531000334F3368DFF8D4809D424FF0000411D240
:10532000D8F80030DB6A14225343FB58022B2D4B74
:105330001B6828BF0124002B18BF0124204603B09E
:10534000BDE8F08FDFF88890DFF8A4A0D9F800302E
:105350001B681BB94FF0FF333360E1E7D9F8003029
:10536000DB68D3F80CB0DBF80420954201D2326040
:10537000D6E70BF1040108460191FFF774FADBF858
:105380002820019922B10BF11800FFF76CFA01995E
:10539000DBF82C00DAF800201423904288BFCAF80A
:1053A000000003FB0070FFF73BFAD8F80010DBF8B1
:1053B0002C20CB6A9A4228BF0124C7E70A4A136807
:1053C000013313600024B9E7541C0020D41C0020D2
:1053D000E4170020E81700208C1C0020881C002007
:1053E000EC170020D81C0020901C0020E0170020A3
:1053F0005C1C0020F7B5314C236843B94FF05003D3
:1054000083F31188BFF36F8FBFF34F8FFEE700F078
:1054100039FC2368013B236024682CB1002400F090
:1054200051FC204603B0F0BD254B1B68002BF5D086
:10543000244D254E254F1EE0EB68DC6804F1180072
:10544000FFF711FA211D08460191FFF70CFAE36AF4
:10545000326801991420934200FB037088BF3360C7
:10546000FFF7DEF91A4BE26A1B68DB6A9A4202D345
:10547000184B01221A602B68002BDDD10CB1FFF70D
:10548000BFFD154D2C6844B1124E0127FFF71CFFDC
:1054900000B13760013CF9D12C600E4B1B68002B2A
:1054A000BCD04FF0E0234FF08052C3F8042DBFF37F
:1054B0004F8FBFF36F8F0124B1E700BF541C002052
:1054C0004C1C0020941C00205C1C0020EC170020C9
:1054D000E0170020D81C0020901C002008B550B90F
:1054E0004FF0E0234FF08052C3F8042DBFF34F8FED
:1054F000BFF36F8F08BD0A4B196841B14FF05003DD
:1055000083F31188BFF36F8FBFF34F8FFEE7FFF771
:10551000CDFEFFF73DFDFFF76DFF0028E0D0E9E786
:10552000541C0020174B1A68174B70B512B101229A
:105530001A6070BD154D1A602A681549142606FBBD
:1055400002F3C818CC588CB14468083364684460CE
:105550000B449C4204BF63684360142303FB0211A5
:105560004B68D9680B4B19602A60E2E742B94FF0EB
:10557000500383F31188BFF36F8FBFF34F8FFEE7A4
:10558000013ADCE7541C0020D81C00205C1C0020E1
:10559000EC170020E017002010B50C4640B94FF082
:1055A000500383F31188BFF36F8FBFF34F8FFEE774
:1055B000054B19681831FFF73FF920460121BDE876
:1055C0001040FFF7E5BC00BFE017002038B50D46DE
:1055D000144640B94FF0500383F31188BFF36F8F27
:1055E000BFF34F8FFEE7074B19681831FFF718F923
:1055F000002C21460CBF28464FF0FF30BDE8384054
:10560000FFF7C6BCE0170020C36813B5DC6844B9D7
:105610004FF0500383F31188BFF36F8FBFF34F8FA9
:10562000FEE704F1180108460191FFF71CF9124B3F
:1056300001991B68EBB9211D08460191FFF713F989
:105640000E4AE36A10680199834288BF13600C4ACE
:10565000142000FB0320FFF7E3F80A4BE26A1B6803
:10566000DB6A9A4285BF084B01200020186002B017
:1056700010BD0648EFE700BF541C00205C1C002052
:10568000EC170020E0170020D81C0020941C0020FC
:10569000034B1B680360034B1B684360704700BFEC
:1056A0008C1C0020D41C002070B50C46054640B967
:1056B0004FF0500383F31188BFF36F8FBFF34F8F09
:1056C000FEE741B94FF0500383F31188BFF36F8FAA
:1056D000BFF34F8FFEE700F0D5FA0F4B1968236830
:1056E0005A1C10D00D482E6800686A68864201D0A6
:1056F0008A420FD9881A83420AD95B1A134423605D
:105700002846FFF7C5FF002400F0DCFA204670BDF4
:10571000002323600124F7E7D41C00208C1C002008
:10572000014B01221A607047D81C0020054B1B68F2
:1057300033B1054B1B68002B0CBF022000207047C3
:1057400001207047A81C0020541C002013B510B97C
:10575000002002B010BD1C4B1C68844208D04FF0E2
:10576000500383F31188BFF36F8FBFF34F8FFEE7B2
:10577000236D43B94FF0500383F31188BFF36F8F4C
:10578000BFF34F8FFEE7E16AE26C013B9142236574
:10579000DED0002BDCD1211D08460191FFF763F814
:1057A000E36C0199E362C3F13802A261074A106811
:1057B000834288BF1360064A142000FB0320FFF7D2
:1057C0002FF80120C5E700BFE01700205C1C002077
:1057D000EC170020F7B5114C00F054FA2568BDB95C
:1057E0000F4F104E3846FFF70DF83046FFF70AF816
:1057F0000D4B0E4A1F600E4B10211E600A200D4BF0
:105800000095FFF70DF9206010B10B49FFF70AFB77
:1058100003B0BDE8F04000F055BA00BF001E002004
:10582000841D0020981D0020DC1C0020E41C0020AA
:10583000E01C0020B01D00201F6C0008914208B53C
:10584000416000610AD8D21A83699A420DD2084B8E
:10585000011D1868FEF7F0FF002008BD9A4201D232
:10586000994202D2034B011DF3E70120F5E700BF87
:10587000E01C0020DC1C002010B588B0FFF7AAFF58
:10588000124B1B68B3B1002407AA06A905A8CDE9ED
:105890000544FEF7ABFF059B0293069B0193022391
:1058A0000093079A0A490B482346FFF754FC0A4B1A
:1058B000186040B94FF0500383F31188BFF36F8F26
:1058C000BFF34F8FFEE7012008B010BD001E00207F
:1058D000246C0008E1590008041E00207FB516461C
:1058E00004461A4640B94FF0500383F31188BFF3C2
:1058F0006F8FBFF34F8FFEE70D4D286880B10529EC
:10590000CDE9001602940DDCFFF710FF00230228FA
:1059100008BF089A286818BF1A466946FFF7CEF8EC
:1059200004B070BD00236946FFF77BF9F8E700BFBC
:10593000001E00202DE9FF47DFF8A0800646FFF794
:10594000BDFCD8F800308342054640D9214F4FF0C6
:1059500000093B681A685AB91F4A11683960136018
:10596000012328463360C8F8005004B0BDE8F08732
:10597000DB68DC68D3F800A0211D08460391FEF720
:1059800072FF236A2046984794F82830039913F051
:10599000040FDED0A36953449A4505D2386863608A
:1059A0002461FEF749FFD4E70023CDF8009052466A
:1059B00019462046FFF792FF0028CAD14FF0500346
:1059C00083F31188BFF36F8FBFF34F8FFEE7002380
:1059D000C7E700BFDC1C0020E01C0020AC1D00203D
:1059E0002DE9F0436E4D6F4E89B02B68D3F80080DF
:1059F000B8F1000F35D0DB68D3F800800024FFF742
:105A000055FC04A8FFF796FF049B8146002B69D143
:105A1000002C4CD1404550D3FFF7ECFC2B68DB68E1
:105A2000DF68381DFEF71FFF97F8283058071AD592
:105A3000B96943464A4641443846FFF7FFFEB0B1D4
:105A400000942346424621463846FFF747FF70B987
:105A50004FF0500383F31188BFF36F8FBFF34F8F65
:105A6000FEE70124CBE723F0010387F828303B6AE7
:105A7000384698473068002204A9FFF734F9002817
:105A8000B3D0049B0698002B2FDB069C6369002B88
:105A900032D103A8FFF74EFF049B0246092BE9D839
:105AA000DFE803F02E2E2E575E762E2E575E3E4BED
:105AB0001B681C68B4FA84F4640930682246A8EBB9
:105AC0000901FFF7C1F9FFF795FC0028D2D14FF08B
:105AD000E0234FF08052C3F8042DBFF34F8FBFF384
