:020000040800F2
:1000000000000220B12200084D1D0008511D00080B
:10001000551D0008591D00085D1D00080000000066
:1000200000000000000000000000000001A800081F
:10003000611D00080000000091A800081D8D000847
:100040000123000801230008012300080123000800
:1000500001230008012300080123000801230008F0
:10006000012300080123000801230008651D000882
:10007000711D00087D1D00080123000801230008F0
:10008000891D00080123000801230008000000006A
:10009000000000000000000000000000951D0008A6
:1000A000012300089D1D000801230008012300080A
:1000B000012300080123000801230008A91D0008EE
:1000C000B51D0008012300080123000801230008D2
:1000D000012300080123000801230008000000009C
:1000E000012300080123000801230008000000008C
:1000F00000000000000000000000000001230008D4
:10010000000000000123000801230008012300086B
:1001100000000000000000000000000000000000DF
:10012000012300080123000801230008012300081F
:100130000123000800000000000000000000000093
:10014000000000000000000000000000C11D0008C9
:1001500001230008012300080123000801230008EF
:10016000CD1D0008D91D000800000000000000009F
:10017000000000000000000000000000000000007F
:100180000000000001230008000000000000000043
:0801900001230008012300080F
:1001A00010B5054C237833B9044B13B10448AFF3B1
:1001B00000800123237010BD98040020000000007F
:1001C00024B6000808B5034B1BB103490348AFF33D
:1001D000008008BD000000009C04002024B6000838
:1001E00001F0FF01102A2BDB10F0070F08D010F8E8
:1001F000013B013A8B422DD010F0070F42B3F6D1EC
:10020000F0B441EA012141EA014122F007047FF004
:1002100000070023F0E80256083C85EA010586EA5B
:10022000010685FA47F5A3FA87F586FA47F6A5FA97
:1002300087F68EB9EED1F0BC01F0FF0102F00702A3
:1002400032B110F8013B013A83EA010313B1F8D14E
:100250000020704701387047002D06BF354603382F
:10026000073815F0010F07D1013015F4807F02BF68
:10027000013015F4C03F0130F0BC0138704700BFB9
:1002800053B94AB9002908BF00281CBF4FF0FF31FD
:100290004FF0FF3000F074B9ADF1080C6DE904CEF9
:1002A00000F006F8DDF804E0DDE9022304B0704751
:1002B0002DE9F047089D04468E46002B4DD18A4219
:1002C000944669D9B2FA82F252B101FA02F3C2F14C
:1002D000200120FA01F10CFA02FC41EA030E9440DD
:1002E0004FEA1C48210CBEFBF8F61FFA8CF708FBFE
:1002F00016E341EA034306FB07F199420AD91CEBD6
:10030000030306F1FF3080F01F81994240F21C8107
:10031000023E63445B1AA4B2B3FBF8F008FB10334F
:1003200044EA034400FB07F7A7420AD91CEB040484
:1003300000F1FF3380F00A81A74240F20781644454
:10034000023840EA0640E41B00261DB1D4400023D9
:10035000C5E900433146BDE8F0878B4209D9002D3D
:1003600000F0EF800026C5E9000130463146BDE8C7
:10037000F087B3FA83F6002E4AD18B4202D3824231
:1003800000F2F980841A61EB030301209E46002DE0
:10039000E0D0C5E9004EDDE702B9FFDEB2FA82F235
:1003A000002A40F09280A1EB0C014FEA1C471FFA93
:1003B0008CFE0126200CB1FBF7F307FB131140EA7A
:1003C00001410EFB03F0884208D91CEB010103F147
:1003D000FF3802D2884200F2CB804346091AA4B209
:1003E000B1FBF7F007FB101144EA01440EFB00FEDD
:1003F000A64508D91CEB040400F1FF3102D2A64542
:1004000000F2BB800846A4EB0E0440EA03409CE7E0
:10041000C6F12007B34022FA07FC4CEA030C20FA8D
:1004200007F401FA06F31C43F9404FEA1C4900FAAD
:1004300006F3B1FBF9F8200C1FFA8CFE09FB18112A
:1004400040EA014108FB0EF0884202FA06F20BD99D
:100450001CEB010108F1FF3A80F08880884240F2ED
:100460008580A8F102086144091AA4B2B1FBF9F031
:1004700009FB101144EA014100FB0EFE8E4508D92C
:100480001CEB010100F1FF346CD28E456AD90238B1
:10049000614440EA0840A0FB0294A1EB0E01A14296
:1004A000C846A64656D353D05DB1B3EB080261EB04
:1004B0000E0101FA07F722FA06F3F1401F43C5E9DE
:1004C000007100263146BDE8F087C2F12003D84014
:1004D0000CFA02FC21FA03F3914001434FEA1C4756
:1004E0001FFA8CFEB3FBF7F007FB10360B0C43EA48
:1004F000064300FB0EF69E4204FA02F408D91CEBF8
:10050000030300F1FF382FD29E422DD902386344F5
:100510009B1B89B2B3FBF7F607FB163341EA034195
:1005200006FB0EF38B4208D91CEB010106F1FF38E4
:1005300016D28B4214D9023E6144C91A46EA0046DB
:1005400038E72E46284605E70646E3E61846F8E66D
:100550004B45A9D2B9EB020864EB0C0E0138A3E7B6
:100560004646EAE7204694E74046D1E7D0467BE797
:10057000023B614432E7304609E76444023842E70F
:10058000704700BF0000000000B53B483B490160D8
:100590004FF4803141603A490023012285B0C0E91F
:1005A0000A130621CDE90033CDE9023383600261ED
:1005B000037680F820204262C360C16180F8303049
:1005C000426101F0DDFE00283BD19FED297B012334
:1005D0002948029369468DED007B02F061F80028FE
:1005E00043D10622022324486946CDE9002302F0C4
:1005F00057F8B8BB072203231F486946CDE90023FB
:1006000002F04EF858BB082204231B486946CDE986
:10061000002302F045F8F8B9092205231648694677
:10062000CDE9002302F03CF898B9042206231248D1
:100630006946CDE9002302F033F828B905B05DF82A
:1006400004FB01F00DFBC0E701F00AFB05B05DF80B
:1006500004FB01F005FBE8E701F002FBDCE701F039
:10066000FFFAD0E701F0FCFAC4E701F0F9FAB8E7C5
:1006700005000000010000001C1D002000200140BA
:100680000100000F10B5204B02688AB000249A4286
:10069000CDE90444CDE90644089401D00AB010BD68
:1006A00003F58C3301945A6C184842F480725A64F2
:1006B0005A6C02F480720192019A02941A6B42F011
:1006C00001021A631A6B02F001020292029A039469
:1006D0001A6B42F002021A631B6B03F002030393CE
:1006E00004A9F0220323CDE90423039B02F0D2FAEC
:1006F000032203230648069404A9CDE9042302F04B
:10070000C9FA0AB010BD00BF00200140000002403D
:10071000000402402DE9F04F1B4C1C4F1C4EDFF82B
:1007200078B085B004F1100825464FF0640A4FF008
:10073000010915F8012F0096CDE9019A01236E21D8
:10074000584602F0B1FF08B933783B70454507F1D0
:100750000107EED10F4DDFF844904FF0640A0127F6
:10076000CDE9017A14F8012F009601236E21484645
:1007700002F09AFF08B933782B70444505F1010562
:10078000EED105B0BDE8F08F4B010020641D0020C4
:10079000841D0020741D0020F01F00204420002034
:1007A000F0B587B0012305AA64258DE82C00324EF0
:1007B00000228DF81420032286F87A206E217A22F6
:1007C000044602F071FF9DF81430032B4DD08027B2
:1007D000CDE901750096012300226E21204602F02A
:1007E0006FFE0028F4D1254F64260225CDE901567D
:1007F000009701237E226E21204602F061FE002830
:10080000F4D18DF815500DF1150764260125CDE9B9
:1008100001560097012386226E21204602F050FEE9
:100820000028F4D1DC2008F0FFFA0DF116030222B3
:1008300000938DF81620CDE90156012388226E2100
:10084000204602F031FF80B19DF816307BB90DF1E2
:100850001703FF270093CDE90156012386226E215D
:1008600020468DF8177002F02BFE07B0F0BD204631
:10087000FFF796FF07B0F0BDCC000020C8000020B5
:1008800030B583B000232A4A0093116B29482A4DC2
:1008900041F480011163116B01F480010091009912
:1008A0000193116B436041F400111163126B4361BA
:1008B00002F40012019280224FF4007482604FF41F
:1008C0008062C0E903420199056004210322C0E966
:1008D0000633C0E90831C0E90A23036301F0FCFFD5
:1008E00010BB002205210B2001F0AAFF0B2001F014
:1008F000E5FF002205210C2001F0A2FF0C2001F0F1
:10090000DDFF002205210D2001F09AFF0D2001F0EE
:10091000D5FF10200022052101F092FF102003B026
:10092000BDE8304001F0CABF01F09AF9D9E700BF35
:1009300000380240881D0020106402402DE9F04F6D
:100940001420A1B008F070FA9648974CDFF8849212
:10095000964DDFF88482FFF723FF9548FFF720FFCD
:10096000DFF878E20023CDE90333CDE90533CDE9A3
:100970000733CDE909339A46BEE80F000DF12C0C80
:10098000ACE80F00BEE80F00ACE80F009EE80300E3
:100990004CF8040B661CFE27ACF80010112008F080
:1009A00043FAFFF7B7FE8349009103AA8B46084636
:1009B000012307E00133DBB2212B02F1010200F138
:1009C000010031D003F1FF3CBCF1010F04D9A3F1C8
:1009D000150CBCF1010FEDD8117890F800C001BBE7
:1009E000BCF1000F1DD090F802E0BEF1000FE1D184
:1009F00010F802ECBEF1000FDCD190F803E0BEF17C
:100A0000000FD7D190F801E0BEF1000FD2D110F85D
:100A100001ECBEF1000FCDD182F800C080F800E0FB
:100A2000C8E782F800C0C5E7634A0099104610F88D
:100A3000013F013BDBB2C62B11D883780A2B6DD95D
:100A4000C72B6BD8C378132B10F8023C68D80B3B2C
:100A5000DBB2BC2B6CD810F8033C132B68D8A04237
:100A6000E5D10B78502B06D94878502803D983421A
:100A700084BF3C38487002318E42F2D120204FF0C2
:100A8000000C03E082F800C0A2420FD012F8013F30
:100A90003F2BF7D9A3F14001C02B4FEA4101A0F150
:100AA00002034AD9A2421770D8B2EFD199F800C018
:100AB000424B6044C0B20DF12E011A4612F801EF0C
:100AC0001BF80EE001F801EF9542F7D14042C0B2A9
:100AD00098F80010FF2804BF4FF0FE0AFD200029FF
:100AE0003CD12A223648019300910AF01FF9DDE932
:100AF00000133448344A13F801CF1BF80CC0BCF182
:100B0000800F1FD912F801CB00F801CF9D42F2D11E
:100B10002B492E482A2207F019FB3FE710F8023C28
:100B20000A2B9CD9C72B9AD810F8033C132B96D8C4
:100B3000A04207707FF47BAF93E7C9B208441170FD
:100B4000C0B2A1E79D4200F8011F02F10102D2D11B
:100B50001B491E482A2207F0F9FA1FE71C4B1B7895
:100B6000002B3FF41BAF8DF84FC08DF850008DF86F
:100B700051A00DF12C0EBEE80F000DF1540CACE8A5
:100B80000F00BEE80F00ACE80F009EE803004CF831
:100B9000040B2622ACF80010002015A906F032FD47
:100BA000FCE600BFF01F0020831D002083B7000873
:100BB00044200020641D0020631D002063B700084E
:100BC000FC1D0020FD1D002064010020482700209E
:100BD00098200020E81D00202C1F00203CB60008B3
:100BE0002DE98848424C434D434FDFF81C91434E5A
:100BF000DFF81881DFF818B1DFF818A1052008F038
:100C000013F92268002AF9D02B78FF2B11D03978FC
:100C1000FF2200233270236019B1022388F80030CC
:100C2000ECE799F80030002BE8D0012388F8003079
:100C3000E4E76B78102B55D8002BE8D0013B0F2B45
:100C4000E5D801A151F823F0890C0008D90C00085F
:100C5000890C0008B90C00080F0C0008AB0C000848
:100C60000F0C00080F0C00080F0C00080F0C0008F8
:100C70000F0C00080F0C00080F0C00080F0C0008E8
:100C80000F0C00089F0C000801234FF400510022B4
:100C9000504689F8003002F0EFF83978B8E7184983
:100CA0000422002006F0AEFCB1E70121FF22002360
:100CB000397032702360B0E70223124989F800309E
:100CC0000522002006F09EFC4FF400510122504600
:100CD00002F0D2F839789BE7294658460AF018F80E
:100CE000397895E7F02B92D100F0BCFF39788FE787
:100CF000281F0020281E0020E91D0020840100205C
:100D0000880100208C010020982000202C1F00204A
:100D100000000020000802402DE9F04F2DED028B6D
:100D2000C34EC44ADFF830B3782383B0C6F8243FFB
:100D3000C2F83C3906F007030193BF4B1B789FEDC7
:100D4000BA8B5A241E25002B40F06282BB4A1370D6
:100D5000BB4A1370BB4A1370019B002B40F04583C4
:100D6000B94B5A205A21B94A83ED008B83ED028B8F
:100D700083ED048B83ED068B83ED088B83ED0A8B6B
:100D800083ED0C8B83ED0E8BC3E91001C3E91201D7
:100D9000C3E91401C3E9160160339A42E3D1AC4AB6
:100DA000AC491378CB5C802B00F205835378CB5C85
:100DB000802B00F200831E23A54AA649C6E9E8332A
:100DC000C6E9EA33C6E9EC33C6E9EE339378CB5C87
:100DD000802B00F2F882D378CB5C802B00F2F38278
:100DE0001E239B4A9B49C6F86034C6F86434C6F893
:100DF0006834C6F86C34C6F87034C6F87434C6F873
:100E00007834C6F87C341379CB5C802B00F2D9821D
:100E10005379CB5C802B00F2D4821E238C4A8D49FF
:100E2000C6F82035C6F82435C6F82835C6F82C355E
:100E3000C6F83035C6F83435C6F83835C6F83C350E
:100E40009379CB5C802B00F2BA82D379CB5C802B78
:100E500000F2B5821E237E4A7E49C6F8E035C6F808
:100E6000E435C6F8E835C6F8EC35C6F8F035C6F80E
:100E7000F435C6F8F835C6F8FC35137ACB5C802B10
:100E800000F29B82537ACB5C802B00F296821E2369
:100E90006F4A7049C6F8A036C6F8A436C6F8A83618
:100EA000C6F8AC36C6F8B036C6F8B436C6F8B836AA
:100EB000C6F8BC36937ACB5C802B00F29482D37A4E
:100EC000CB5C802B00F28F821E23614A6149C6F8F9
:100ED0006037C6F86437C6F86837C6F86C37C6F8A6
:100EE0007037C6F87437C6F87837C6F87C37137B86
:100EF000CB5C802B00F27582537BCB5C802B00F2A5
:100F000070821E23524A5349C6F82038C6F8243846
:100F1000C6F82838C6F82C38C6F83038C6F8343841
:100F2000C6F83838C6F83C38937BCB5C802B00F28F
:100F30005682D37BCB5C802B00F251821E23444A25
:100F40004449C6F8E038C6F8E438C6F8E838C6F8C8
:100F5000EC38C6F8F038C6F8F438C6F8F838C6F8F1
:100F6000FC38137CCB5C802B00F23782537CCB5C4B
:100F7000802B00F232821E23354A3649C6F8A0394A
:100F8000C6F8A439C6F8A839C6F8AC39C6F8B039DD
:100F9000C6F8B439C6F8B839C6F8BC39937CCB5C0E
:100FA000802B00F21882D37CCB5C802B00F2138262
:100FB0001E23274A2749C6F8603AC6F8643AC6F89D
:100FC000683AC6F86C3AC6F8703AC6F8743AC6F889
:100FD000783AC6F87C3A137DCB5C802B00F2F9811D
:100FE000537DCB5C802B00F2F4811E23184A1949F3
:100FF000C6F8203BC6F8243BC6F8283BC6F82C3B75
:10100000C6F8303BC6F8343BC6F8383BC6F83C3B24
:10101000937DCB5C802B00F2DA81D37DCB5C802B7F
:1010200000F2D5811E2319E01E0000001E00000002
:10103000F40D0020B4040020840100202C1F0020A7
:1010400098200020E91D002074110020141D0020AC
:1010500064B70008641D002064B600085D4A5E495C
:10106000C6F8E03BC6F8E43BC6F8E83BC6F8EC3B04
:10107000C6F8F03BC6F8F43BC6F8F83BC6F8FC3BB4
:10108000137ECB5C802B00F2A081537ECB5C802B47
:1010900000F29B811E234F4A4F49C6F8A03CC6F878
:1010A000A43CC6F8A83CC6F8AC3CC6F8B03CC6F8B0
:1010B000B43CC6F8B83CC6F8BC3C937ECB5C802BF5
:1010C00000F27581D37ECB5C802B00F270811E23F1
:1010D000404A4149C6F8603DC6F8643DC6F8683DDF
:1010E000C6F86C3DC6F8703DC6F8743DC6F8783D4C
:1010F000C6F87C3D137FCB5C802B00F25681537F7A
:10110000CB5C802B00F251811E23324A3249C6F853
:10111000203EC6F8243EC6F8283EC6F82C3EC6F847
:10112000303EC6F8343EC6F8383EC6F83C3E937FA3
:10113000CB5C802B00F23D81D37FCB5C802B00F217
:1011400038811E23C6F8E03EC6F8E43EC6F8E83E05
:10115000C6F8EC3EC6F8F03EC6F8F43EC6F8F83ED7
:10116000C6F8FC3E1D4B002218781D4B1CE0C3E95D
:10117000E055C3E9E255C3E9E455C3E9E655C3E9DF
:10118000E855C3E9EA55C3E9EC55C3E9EE55013228
:10119000062AC3E9F044C3E9F244C3E9F444C3E9CD
:1011A000F64403F160031DD040FA02F1C907DED511
:1011B000C3E9E044C3E9E244C3E9E444C3E9E644E3
:1011C000C3E9E844C3E9EA44C3E9EC44C3E9EE44B3
:1011D000DDE700BF64B70008641D0020E81D0020A3
:1011E000B4040020904A914840F2CA33002104F030
:1011F00019FF4FF414738E4A8C48082104F012FF33
:101200000A2007F011FE8B4B1B78002B3FF49EAD9C
:10121000884A013B1370884B1B78002B3FF49CAD30
:10122000DFF81CA2804B9AF806109AF805201BF8EC
:1012300001701BF8022017F0010F0CBF4FF01E0EBB
:101240004FF05A0E17F0020F14BF4FF05A0C4FF028
:101250001E0C17F0040F14BF4FF05A094FF01E096F
:1012600017F0080F14BF5A201E2017F0100F14BFDC
:101270005A211E2117F0200F14BF4FF05A084FF0CB
:101280001E0817F0400FC3E9E0EC14BF4FF05A0EF0
:101290004FF01E0EFF090CBF4FF01E0C4FF05A0C02
:1012A00012F0010F0CBF1E275A2712F0020FC3E9DC
:1012B000E29014BF5A201E2012F0040FC3F89013BE
:1012C00014BF5A211E2112F0080F00919AF80490C1
:1012D000C3F8A40314BF5A211E2112F0100FC3E952
:1012E000E58E14BF4FF05A084FF01E0812F0200F81
:1012F0001BF80990C3F8B08314BF4FF05A0E4FF09B
:101300001E0E12F0400FC3E9E7C714BF5A271E276D
:10131000D2090CBF4FF01E0C4FF05A0C19F0010F00
:101320000CBF1E225A2219F0020F14BF4FF05A08A8
:101330004FF01E0819F0040FC3F8AC1318BF5A2061
:101340000099C3F8A81308BF1E2019F0080F14BF96
:101350005A211E2119F0100FC3E9EDE714BF4FF019
:101360005A0E4FF01E0E19F0200F14BF5A271E27D9
:1013700019F0400FC3E9EFC214BF5A221E22C3E97D
:10138000F5725FEAD9122D4A08BFC3F8DC53C3E9EE
:10139000F180C3E9F31E18BFC3F8DC436033934206
:1013A0000AF1030A7FF43FAFDCE65A23ADE65A2385
:1013B0008EE65A23C6E65A23FEE45A2368E55A23EA
:1013C00049E55A232AE55A230BE55A2363E65A23B3
:1013D00044E65A230AE65A23EBE55A23CCE55A237E
:1013E000ADE55A238EE55A236FE50F4B134AC3E947
:1013F000E055C3E9E255C3E9E455C3E9E655C3E95D
:10140000E855C3E9EA55C3E9EC55C3E9EE55C3E92C
:10141000F044C3E9F244C3E9F444C3E9F644603359
:101420009A42E3D1BBE400BFF40D0020A8210020C4
:10143000B4040020840100202C1F002094190020F7
:10144000000000202DE9F04FC82093B007F0ECFC1D
:1014500000230693CDE90333CDE90733CDE9093302
:10146000CDE90B33CDE90D33CDE90F33059311935E
:10147000BA4DBB4C4FF6FF734FF00A09ADF8183068
:101480000DF10C0A0DF1180809AF002606F0010253
:101490004FF40041284601F0EFFCC6F340024FF440
:1014A0008041284601F0E8FCC6F387024FF4005162
:1014B000284601F0E1FCAB4B1A6800235362136825
:1014C00043F001031360536A632BFCD9116A41F2A4
:1014D0001113194208D1116A40F24443194203D151
:1014E000136823F001031360204600F0F7FF012189
:1014F000204601F077F8204601F0CEF8B8F8003029
:1015000080B283423B8888BFA8F80000013683423E
:1015100038BF3880062E2AF8020B07F1020708F1BF
:101520000208B3D10A2007F07FFC09AB0DF13008A7
:1015300003AF06AE9A4601224FF40041284601F05F
:101540009BFC01224FF48041284601F095FC0122CA
:101550004FF40051284601F08FFC824B1A6800239B
:101560005362136843F001031360536A632BFCD981
:10157000116A41F21113194208D1116A40F2444331
:10158000194203D1136823F001031360204600F0D1
:10159000A5FF0121204601F025F8204601F07CF846
:1015A000338880B28342BAF8003088BF30808342EB
:1015B00038BFAAF800000AF1020AD04527F8020B4A
:1015C00006F10206B7D10A2009F1FF3907F02CFC19
:1015D00019F0FF097FF454AFDFF88081DFF880B1A4
:1015E0000CAF06AE09AD0DF10C0A002404F00102A7
:1015F0004FF40041404601F03FFCC4F340024FF479
:101600008041404601F038FCC4F387024FF400519A
:10161000404601F031FC534B3AF8029B1A68002314
:101620005362136843F001031360536A632BFCD9C0
:10163000116A41F21113194208D1116A40F2444370
:10164000194203D1136823F001031360584600F0D8
:1016500045FF0121584600F0C5FF584601F01CF82F
:10166000B6F800E0B5F800C083B273453CBF3380E4
:101670009E46634588BF9C4681B288BF2B802AF86E
:10168000023CACEB0E03002BA1EB09090091396879
:1016900035481A46B8BFDA1C921049440192002915
:1016A00080FB03204FEAE3733960C3EB600348DD3E
:1016B000B9F1320F02DCC7F800904946009A9BB29C
:1016C000ACEB030C624531DCBDF804208A420ADA37
:1016D00026484FF0010C90F800900CFA04FC4CEAFC
:1016E000090C80F800C052428A4203DC009A73441D
:1016F0009A4206DA1D4901220B78A24023EA02032E
:101700000B700134062C07F1040705F1020506F100
:1017100002067FF46BAF154B15491B78CB70C3F1F4
:10172000FB020A71052007F07FFB59E7009A0EEBD8
:10173000030C6245B8BF0021BDF80420B8BF396072
:10174000C6E702D0B9F1310FB5DC009A9BB2ACEB21
:10175000030C6245EADCBDF80420C4E70004024043
:101760001C1D0020F021002067666666E81D002031
:101770005C01002010B5104A1048002107F008FB5A
:101780000F4B104A044600210F481C6007F000FB75
:101790000E4B0F4A044600210E481C6007F0F8FA71
:1017A0000D4B0E4A044600210D481C6007F0F0FA6C
:1017B0000C4B186010BD00BF14B800083D090008AC
:1017C000F81D0020A8B7000845140008EC1D0020F3
:1017D000CCB70008E10B0008F01D0020F0B70008AE
:1017E000190D0008F41D0020F0B500248BB0CDE9E0
:1017F0000444CDE906443B4B009408941A6B3A4EDE
:101800003A4F3B4D42F004021A631A6B02F0040295
:101810000092009A01941A6B42F080021A631A6BCC
:1018200002F080020192019A02941A6B42F00102C6
:101830001A631A6B02F001020292029A03941A6B65
:1018400042F002021A631B6B03F002030393224669
:1018500030464FF46041039B01F00EFB22463846B0
:101860000E2101F009FB224628464FF4704101F099
:1018700003FB4FF460420123CDE90423304604A961
:1018800001220023CDE90623002601F003FA3846A1
:1018900004A90E2201230027CDE90423CDE9066720
:1018A00001F0F8F904A928464FF470420123CDE96C
:1018B0000423CDE9066701F0EDF980224FF404130B
:1018C000CDE9042304A901232846069301F0E2F997
:1018D00022460521172000F0B3FF172000F0EEFF8D
:1018E0000BB0F0BD0038024000080240000002408A
:1018F0000004024010B50B480B4C0C4900234FF478
:101900008042C0E90041C0E90233C0E90423C0E9D4
:101910000633036201F00CFD00B910BDBDE81040B4
:1019200000F09EB9F01F002000540040801A06000D
:1019300010B50B480B4C0C4900234FF48042C0E912
:101940000041C0E90233C0E90423C0E90633036261
:1019500001F0EEFC00B910BDBDE8104000F080B908
:1019600044200020005C0040801A06002DE9F0436E
:101970000368694A8DB000249342CDE90644CDE95D
:10198000084405460A9405D0644A934254D00DB0E9
:10199000BDE8F083624F01943B6B6248624E43F0B6
:1019A00002033B633B6B03F002030193019B4FF483
:1019B00040721223CDE906230423012206A90A93CB
:1019C0000323CDE9082301F065F902943B6CB46070
:1019D00043F400133B643B6C544AF46003F400137B
:1019E00002934FF00073C6E900234FF48073C6E9F9
:1019F00006434FF480624FF440333046C6E9042476
:101A0000C6E90834029900F067FF00287DD1AE6373
:101A1000002205211F20B56300F012FF1F2000F0F7
:101A20004DFF00220521202000F00AFF202000F0B9
:101A300045FF0DB0BDE8F083394F03943B6B3C4844
:101A40003C4E43F001033B633B6B03F00103039304
:101A5000039B04943B6B43F002033B633B6B03F03B
:101A6000020304934FF48072049B1223CDE90623F2
:101A700006A904234FF001084FF003090A93CDE9AA
:101A8000088901F007F90923102226480A9306A9BC
:101A90001223CDE90623CDE9088901F0FBF805946E
:101AA0003B6CB46043F400033B643B6C224AF4603B
:101AB00003F4000305934FF0C063C6E900234FF41D
:101AC0008073C6E906434FF480624FF440333046DA
:101AD000C6E90424C6E90834059900F0FDFEB8B94A
:101AE00000220521AE634820B56300F0A9FE48201E
:101AF00000F0E4FE00220521492000F0A1FE49206B
:101B000000F0DCFE0DB0BDE8F08300F0A9F87EE740
:101B100000F0A6F8E4E700BF00540040005C00407D
:101B20000038024000040240301F002010600240D4
:101B300000000240901F00204060024000000000B2
:101B400010B5002394B0CDE90A33CDE90C33CDE9CB
:101B50000233CDE90433264900930693086C254AE5
:101B600040F080500864096C01F0805100910099A8
:101B70000193136843F44043136013689FED167B91
:101B800003F44043022101934FF480001923CDE96F
:101B90000E10C022109308A804238DED087BCDE918
:101BA0001121019C139303F00DFE08B172B6FEE7FC
:101BB0009FED0B7B8DED027B9FED0B7B034603219D
:101BC00002A88DED047B069304F014F808B172B6F8
:101BD000FEE714B010BD00BF0100000000000100CE
:101BE0000F000000020000000000000000100000D4
:101BF000003802400070004008B500F083FBFFF79A
:101C00009FFF114B1A6F22F001021A671A6F22F020
:101C100004021A67FFF7E8FDFEF732FEFFF76AFEDF
:101C2000FFF786FE00F0D8FAFEF7AEFC00F080FA6F
:101C300000F006F905F026FC07F07EF8FFF79AFDA4
:101C400007F08CF8FEE700BF00380240034B026843
:101C50009A4200D0704700F06FBB00BF0000014007
:101C600072B6FEE702492522002005F0CBBC00BF7A
:101C70009401002082B00E4B00220092596C41F476
:101C800080415964586C00F48040009000980192A3
:101C9000186C40F0805018641B6C03F08053019363
:101CA000019B0F216FF0010002B000F0C9BD00BF21
:101CB0000038024070B588B000251F4B02955A6C61
:101CC0001E4C42F001025A645B6C03F0010301A94F
:101CD0000293064603A8029B04F050F804F03EF875
:101CE000174A226003461748256140F2E732E26056
:101CF000A0FB03239B0C013B2046C4E90135A561F1
:101D000004F060F8054610B1284608B070BD2046C2
:101D100004F0D6F805460028F6D1192000F0CEFDD3
:101D20000F2E01D90125EFE72A463146192000F090
:101D300087FD054B1E60E7E7003802409C2000202D
:101D40000000014083DE1B43C4010020FEE700BF0A
:101D5000FEE700BFFEE700BFFEE700BFFEE700BFF3
:101D6000704700BF014800F0A1BE00BF301F002037
:101D7000014800F09BBE00BF48210020014800F050
:101D800095BE00BF901F0020014800F08FBE00BF2D
:101D9000E8200020802001F075B800BF014804F061
:101DA000D1BB00BF9C200020014801F0CDBF00BF87
:101DB000F01F0020014802F07DBC00BFF01F002092
:101DC000014802F0EDBD00BF38220020014801F0BB
:101DD000BBBF00BF44200020014802F06BBC00BF25
:101DE0004420002010B50C4C0C4B0D492268591AA8
:101DF0002AB11044884207D82060104610BD094A15
:101E0000226010448842F7D908F058FF0C234FF0A5
:101E1000FF320360104610BDE420002000000220C5
:101E200000040000A0790020034AD2F8883043F46F
:101E30007003C2F88830704700ED00E00000000039
:101E400010B54B4C4B4A226094B05F220023626075
:101E500020464FF6FF72CDE90433CDE90C33CDE9CE
:101E60000E33CDE91033C4E9023212932361A3612A
:101E700004F05AF818BB002200233D4804A9CDE91C
:101E8000042304F04DFC00BB9FED357B0022384855
:101E90000E920CA98DED0C7B109204F0D3F988B949
:101EA00022680023B2F1804FCDE90633CDE9083333
:101EB0000A930DD02F498A423AD014B010BDFFF7D3
:101EC000CFFED8E7FFF7CCFEEAE7FFF7C9FEDBE776
:101ED00002F50E320193116B274841F001011163A5
:101EE000116B01F00101019101990293136B43F011
:101EF00002031363136B03F002030293012406A988
:101F000001220223CDE906230A94029B00F0C2FEBF
:101F10004FF480620223CDE9062318480A94002278
:101F2000002306A9CDE9082300F0B4FE14B010BDCB
:101F3000134A0393136B114843F002031363136BAB
:101F40009FED097B03F00203039306A902238DEDA5
:101F5000067B039A0A9300F09DFE14B010BD00BFEB
:101F600060000000000000004000000002000000CF
:101F7000F021002000080040000002400004024060
:101F80000038024070B50368B3F1804F82B012D0C0
:101F90002F4A934201D002B070BD2E4B0022019215
:101FA0001A6C42F004021A641B6C03F004030193E0
:101FB000019B02B070BD0023264A0093116C264D90
:101FC00041F001011164126C2449EB6002F001023E
:101FD00000924FF0C062C5E9001240214FF48062C8
:101FE0000446A96000982A614FF480514FF4804262
:101FF0002846C5E90512C5E907336B6200F06CFCA1
:1020000000BB174E174925624FF0C0620023C6E996
:10201000001240214FF48062C6E90213E56232618A
:102020004FF480514FF480423046C6E90512C6E9AC
:102030000733AC63736200F04FFC30B96662B4637F
:1020400002B070BDFFF70CFEDBE7FFF709FEF5E716
:10205000000800400038024048210020286002406B
:10206000E82000208860024010B502688AB0002392
:10207000B2F1804FCDE90433CDE90633089304D0A3
:1020800027498A4231D00AB010BD02F50E320193C1
:10209000116B244841F001011163116B01F0010142
:1020A000019101990293136B43F002031363136BC5
:1020B00003F002030293012404A901220223CDE9C3
:1020C00004230894029B00F0E5FD4FF48062022394
:1020D000CDE90423144808940022002304A9CDE983
:1020E000062300F0D7FD0AB010BD104A0393136B0E
:1020F0000D4843F002031363136B9FED077B03F05E
:102100000203039304A902238DED047B039A089331
:1021100000F0C0FD0AB010BD400000000200000049
:102120000008004000000240000402400038024065
:1021300000B527488BB04FF0804200230260772221
:10214000CDE90033CDE90233CDE90433CDE90633DF
:10215000C0E90133C0E903230893836103F0E4FE7F
:1021600008BB002200231A486946CDE9002304F089
:10217000D7FA30BB9FED147B00221548049202A9C8
:102180008DED027B069204F05DF8B8B90822104884
:102190000DEB020104F056F840B90D48FFF764FF5B
:1021A0000BB05DF804FBFFF75BFDDAE7FFF758FDC6
:1021B0000748FFF759FF0BB05DF804FBFFF750FD30
:1021C000E4E7FFF74DFDD5E76000000000000000E8
:1021D000A8210020000000009FED0F7B124810B5E1
:1021E00080ED067B9FED0E7B00234FF0A044042181
:1021F000022280ED087BC0E90041C0E90323C0E969
:102200000B3302F01FFB00B910BDBDE81040FFF713
:1022100027BD00BFAFF300800200000000000000F7
:1022200000000000000000003822002030B50368E4
:1022300089B00024B3F1A04FCDE90244CDE90444B4
:10224000069401D009B030BD174D00942B6B174890
:1022500043F001032B632B6B03F0010300934FF456
:10226000C0520223CDE90223032302A905930A23C6
:10227000009A069300F00EFD6B6B43F080036B63D6
:1022800001946B6C43F480436B646B6C03F4804388
:102290002246052101934320019B00F0D1FA4320FF
:1022A00000F00CFB09B030BD0038024000000240D5
:1022B000DFF834D00D480E490E4A002302E0D4580E
:1022C000C4500433C4188C42F9D30B4A0B4C00237E
:1022D00001E013600432A242FBD3FFF7A5FD08F032
:1022E000F3FCFFF789FC704700000220000000208B
:1022F000980400201CB9000898040020A079002050
:10230000FEE7000008B50B4B1A6842F400721A6031
:102310001A6842F480621A601A6842F480721A6085
:10232000032000F07BFA0F20FFF7C4FCFFF7A2FCAC
:10233000002008BD003C0240034A044B11681B7892
:102340000B441360704700BF44270020C0010020E9
:10235000014B1868704700BF4427002038B5044679
:10236000FFF7F6FF631C054602D0044B1B781C44A4
:10237000FFF7EEFF431BA342FAD338BDC001002094
:10238000002800F09F8038B5056C04463DB1236CF1
:10239000DB060CD5002384F83C30012038BDFEF765
:1023A00071F96564236C84F83C50DB06F2D4236C2D
:1023B000484A23F4885323F0020343F002032364C2
:1023C0005168236821F440315160516860680143CD
:1023D00051605A682569A06822F480725A60596871
:1023E00041EA05215960596821F0407159605A68E5
:1023F00002435A609968E06821F4006199609A6824
:10240000A16A02439A60344A914252D09868E56AC0
:1024100020F0706098609A6811439960996821F083
:10242000405199609A682A439A609A6822F00202A1
:102430009A609A68217E42EA41029A6094F82020CC
:10244000002A41D05968626A41F4006159605868B5
:1024500020F460405860511E5A6842EA41325A6086
:10246000DA6AE169656922F47002DA62DA6A0139CE
:1024700042EA0152DA62996821F400719960996820
:1024800094F8302041EA42219960996821F48061F2
:1024900099609A68002042EA85229A606064236C01
:1024A00023F0030343F001032364002384F83C304A
:1024B00038BD9A6822F070629A609A6822F04052A1
:1024C0009A60B2E7012070475A6822F400625A60AD
:1024D000C6E700BF002301400100000F10B490F8D0
:1024E0003C3083B00021012B01916DD001680123A4
:1024F00080F83C308B680246D80714D4354B364CF4
:102500001B688868A4FB03439B0C03EB430340F068
:10251000010088600193019B2BB1019B013B01935A
:10252000019B002BF9D18868136C10F001002ED0AC
:1025300023F4E06323F0010343F4807313644B68D6
:102540005B0505D5136C23F4405343F480531364A7
:10255000136C13F480531CBF536C23F006035364B5
:1025600000201E4B82F83C006FF022040C605A6879
:1025700012F01F0216D1886810F040501FD18B68EE
:1025800043F080438B6003B05DF8044B704743F029
:1025900010031364536C43F00103536403B05DF8FC
:1025A000044B70470E4B9942F8D18B6813F040539F
:1025B000F4D18A6842F0804218468A60EEE71046FD
:1025C00003B05DF8044B7047022003B05DF8044B84
:1025D000704700BFBC01002083DE1B430023014085
:1025E0000020014003689A6870B50D465105044605
:1025F00002D59B68DA0545D4FFF7AAFE2268064695
:102600006B1C24D113689807FCD56FF0120313607C
:10261000236C43F400732364936813F0405F14D178
:10262000207E90B9D36A13F4700F02D093685A05D4
:102630000BD4236C23F480732364236CDB0404D455
:10264000236C43F00103236470BD002070BD136848
:102650009907DAD45DB9136813F00203D0D1226C64
:1026600084F83C3042F004022264032070BDFFF77E
:102670006FFE801BA8422268C2D9136813F00203C0
:10268000BED1ECE7036C002243F0200380F83C202D
:102690000364012070BD00BF0368D86C704700BFA1
:1026A00030B590F83C3083B00022012B019200F04D
:1026B0009B80012380F83C300C680368092C2DD8DE
:1026C0001D698A6804EB440E4FF0070C0CFA0EFCEF
:1026D00025EA0C051D611D6902FA0EF22A431A61F2
:1026E0004A68062AA4462FD802EB8202596B053AA3
:1026F0004FF01F0E0CFA02FC0EFA02F221EA02025F
:102700005A635A6B4CEA02025A633F4A934230D0F2
:10271000002380F83C30184603B030BD1FFA84FC1B
:102720000CEB4C02DD68A2F11E0E072202FA0EF23B
:1027300025EA0202DA608A68DD6802FA0EF22A43AC
:10274000DA604A68062ACFD90C2A02EB820232D814
:10275000196B233A1F250CFA02FC05FA02F221EA52
:1027600002021A631A6B4CEA02021A63264A934267
:10277000CED1122C2ED0254B9C4238D1244A254B49
:102780005168254C21F480015160516841F40001E9
:1027900051601B68A4FB03239B0C03EB83035B00CA
:1027A0000193019B002BB3D0019B013B0193019B43
:1027B000002BF9D1ACE7D96A413A1F250CFA02FC8B
:1027C00005FA02F221EA0202DA62DA6A4CEA02024D
:1027D000DA629AE70E4B5A6822F400025A605A688D
:1027E00042F480025A6093E7022003B030BD112CFE
:1027F0008ED1074B5A6822F480025A605A6842F41C
:1028000000025A6084E700BF00200140120000105F
:1028100000230140BC01002083DE1B430749CA6836
:1028200003024FF6FF0003F4E0630240134343F05A
:10283000BF6343F40033CB60704700BF00ED00E09E
:102840001C4BDB68C3F3022300B5C3F1070EBEF1D6
:10285000040F03F1040C28BF4FF0040EBCF1060F67
:102860001BD9033B4FF0FF3C0CFA03FC22EA0C029D
:102870004FF0FF3C0CFA0EFC21EA0C0199400028B5
:1028800041EA02010CDB00F16040090100F5614002
:10289000C9B280F800135DF804FB00221346E7E795
:1028A000054B00F00F0009010344C9B219765DF829
:1028B00004FB00BF00ED00E0FCEC00E0002808DBBA
:1028C0004109044A00F01F00012303FA00F042F816
:1028D0002100704700E100E038B50446FFF738FDFD
:1028E000002C52D023680022022184F8351084F88D
:1028F00034201A6822F0010205461A6005E0FFF74D
:1029000027FD431B052B39D823681A68D107F6D455
:10291000D4E90120E16802430A43D4E90451A069E3
:102920002A430A43E1691D6802430A4333492940A7
:10293000256A2A430A43616A042928D01A605A6921
:1029400022F007021143D8B22D4A59611038A2FB78
:10295000005212092B4923F47F73895CE16523F04F
:1029600003035F2888BF04333F228A40A365002009
:102970009A600123606584F8353038BD0323202236
:10298000626584F83530184638BD012038BDD4E979
:102990000B5129430A431A605969A26A21F00701C1
:1029A000114341F00401002DCDD078B1B0F5005FA6
:1029B00016D0022A03D9032AC5D1EA01C3D50123BF
:1029C0004022626584F83530184638BD012A03D0AC
:1029D00032F00202B7D1F0E7B5F1C07FB3D1EEE734
:1029E000032AB0D801A050F822F000BFBF29000888
:1029F000BB290008BF290008D92900083F8010F032
:102A0000ABAAAAAA50B8000870B490F83440856DFB
:102A1000012C35D090F835404FF0010C644580F81A
:102A200034C005D0002380F8343070BC02207047D9
:102A3000022680F83560046800264665266826F47C
:102A40008026266063608368402B0EBFA260A16071
:102A5000E260C26D08BFE1603F239340AB60236832
:102A6000026C43F0160323601AB1236843F0080395
:102A70002360236843F001030020236070BC70478B
:102A8000022070BC704700BF90F83530022B03D095
:102A900080234365012070470268052380F83530A4
:102AA000136823F001030020136070472DE9F04103
:102AB00082B0744A866D156800230193C36D346833
:102AC00008229A402242804604D001680F687807A5
:102AD00000F18A8001229A40224204D0D8F80010E6
:102AE0004969090678D404229A40224204D0D8F8D1
:102AF000001009688F0767D410229A40224204D040
:102B0000D8F800100F68380749D420229A40224292
:102B100017D0D8F800100C68E00612D5B26098F80B
:102B20003520052A73D00B6813F4802F0B6800F052
:102B30009080190340F19B80D8F83C300BB140469F
:102B40009847D8F854303BB3D8F85430DA071BD53F
:102B5000D8F800204C49052388F835301368A1FBCC
:102B6000051523F00103AD0A136002E01368DB07CB
:102B700004D5019B0133AB420193F7D90122002315
:102B800088F8352088F83430D8F84C3023B14046E6
:102B900002B0BDE8F041184702B0BDE8F081B26074
:102BA0000A6812F4802F0A682AD1D70503D40A686C
:102BB00022F008020A60D8F84020002AA5D040463A
:102BC0009047D8F85C30A0E7B260D8F8542042F0C3
:102BD0000402C8F854208FE7B260D8F8542042F0BD
:102BE0000202C8F854207EE70F6827F004070F6040
:102BF000B260D8F8542042F00102C8F8542069E7C6
:102C00001203D8D5D8F84820002AD8D17DE70A6821
:102C100022F016020A604A6922F080024A61D8F85E
:102C2000402052B30A6822F008020A603F2202FAEA
:102C300003F3D8F85010B3600122002388F8352040
:102C400088F834300029A7D0404602B0BDE8F041F2
:102C5000084713F480737FF46FAF0A6822F0100204
:102C60000A60012288F8352088F8343064E7D8F803
:102C70004430002B7FF463AF63E7D8F84820002A84
:102C8000D0D1D3E7BC010020B5814E1B90F83500B0
:102C9000704700BF2DE9F04F00220C68704E85B0E0
:102CA00013464FF0010A894604E00133102B02F16C
:102CB000020278D00AFA03F101EA040BA143F4D12D
:102CC000D9F804C00CF003014D1E012D6ED9032963
:102CD00040F0AE809140CD4307683D4029431CF44D
:102CE000403F0160E1D05F4D00210391696C41F4E8
:102CF00080416964696C01F480410391039923F078
:102D0000030101F1804101F59C3103F00307D1F883
:102D100008E0BF000F25BD402EEA0508524DA8422D
:102D200017D005F58065A84200F086804F4DA84277
:102D300000F087804E4DA84200F08A804D4DA84299
:102D40000CBF4FF0040E4FF0070E0EFA07F748EADB
:102D50000708C1F80880B1686FEA0B071CF4801FF0
:102D60000CBF39404BEA0101B160F5681CF4001F4B
:102D70000CBF3D404BEA0505F56075681CF4003F4B
:102D80000CBF3D404BEA0505756031681CF4803F7F
:102D900003F101030CBF39404BEA0101102B3160F4
:102DA00002F1020286D105B0BDE8F08FD9F80C50CF
:102DB000876805FA02F8032505FA02FE27EA0E07DE
:102DC00048EA0707876047686FEA0E0527EA0B0E97
:102DD000CCF300179F4047EA0E074760C76807EA31
:102DE000050ED9F80870974047EA0E070229C76018
:102DF00001FA02F17FF470AF4FEAD30E00EB8E0EB2
:102E000003F00708DEF820700097D9F810704FEA39
:102E1000880807FA08F701970F2707FA08F8009FB4
:102E200027EA0808019F47EA0807CEF8207053E711
:102E300003259540ED43D1E70AFA07F748EA07086A
:102E400087E74FF0020E0EFA07F748EA070880E717
:102E50004FF0030E0EFA07F748EA070879E700BFBC
:102E6000003C0140003802400000024000080240DF
:102E7000000C02400010024002B909048161704751
:102E8000704700BF044A5169014200D1704708B53C
:102E90005061FFF7F5FF08BD003C01402DE9F04F00
:102EA000046883B098462368DDF83090DDF834B0CC
:102EB00043F4807306468A4617462360B9F1FF3F04
:102EC00035D16569E807FCD50AF0FE012161B9F149
:102ED000FF3F03D04EE061694D055CD461698B070B
:102EE000F9D50023019363690193A3690193019BC1
:102EF000B9F1FF3F40F0878063691A0663D46369C4
:102F00005B05F9D5002220236FF480616161326393
:102F100086F83D3086F83E20336C86F83C2043F03E
:102F200004033364336C042B66D001201FE0636913
:102F3000D907C9D4FFF70CFAA0EB0B00814504D3E5
:102F4000B9F1000F01D03468B8E7002320223363C1
:102F500086F83D2086F83E30326C316886F83C3089
:102F600042F0200232640B68DC0535D4032003B044
:102F7000BDE8F08F63699807B3D463695A050AD432
:102F8000FFF7E6F9A0EB0B0081454ED3B9F1000F36
:102F90004BD034689BE7236843F40073236000221E
:102FA0006FF4806120236161326386F83D3086F8DA
:102FB0003E20336C86F83C2043F004030120336448
:102FC00003B0BDE8F08FB8F1010F09D1FFB20020C6
:102FD000276103B0BDE8F08F4FF400733364C5E799
:102FE0003B0A2361B9F1FF3F2ED163691906EDD485
:102FF00063695A05F9D585E73268136843F40073AD
:1030000001201360B3E763691D06DCD463695905C9
:103010003FF578AFFFF79CF9A0EB0B00814525D376
:10302000B9F1000F22D0346862E700222023326316
:1030300086F83D3086F83E20336C86F83C2043F01D
:1030400020033364012092E763691B06BED46369E1
:1030500058053FF557AFFFF77BF9A0EB0B00814513
:1030600004D3B9F1000F01D03468BBE7002220235C
:10307000326386F83D3086F83E20336C86F83C207B
:1030800043F0200333644DE72DE9F04F0468984680
:10309000236843F480632360236883B043F4807320
:1030A000DDF830A0DDF83490236006468B461746E5
:1030B000BAF1FF3F39D16569EB07FCD50BF0FE0390
:1030C00023615FFA8BFBBAF1FF3F03D068E06169CF
:1030D0004A0550D461698907F9D5002301936369D2
:1030E0000193A3690193019BBAF1FF3F40F0B880BF
:1030F0006369180667D463695905F9D5002220234E
:103100006FF480616161326386F83D3086F83E205D
:10311000336C86F83C2043F004033364336C042B97
:103120006CD0012003B0BDE8F08F6369DD07C5D422
:10313000FFF70EF9A0EB0900824504D3BAF1000FA6
:1031400001D03468B4E700232022336386F83D20A1
:1031500086F83E30326C316886F83C3042F020020E
:1031600032640B68DC0502D54FF40073336403202E
:1031700003B0BDE8F08F236843F40073236000229E
:1031800020236FF480616161326386F83D3086F8F8
:103190003E20336C86F83C2043F004033364C0E7E0
:1031A00063699B0799D463695805E4D4FFF7D0F8A5
:1031B000A0EB09008245C0F08B80BAF1000F00F04F
:1031C000878034687FE7B8F1010F0BD1FFB2276128
:1031D000BAF1FF3F6AD163691B0616D463695F05C4
:1031E000F9D58BE73B0A2361BAF1FF3F7FD16369D1
:1031F0001D06EBD463695805F9D57FE7326813687B
:1032000043F40073012013608CE7236843F4807358
:103210002360BAF1FF3F13D16369D807FCD54BF0A7
:1032200001032361BAF1FF3F03D02BE063695B0523
:10323000A1D46369DB4313F00203F7D1184671E7A9
:103240006369D907EBD4FFF783F8A0EB0900824547
:10325000FFF479AFBAF1000F3FF475AF3468D8E7E7
:1032600063691A06AFD463695D053FF547AFFFF7A1
:103270006FF8A0EB090082454CD3BAF1000F49D09A
:10328000346831E76369DB4313F00203D6D0636926
:103290005A053FF570AFFFF75BF8A0EB09008245D8
:1032A00016D3BAF1000F13D03468BBE763691D066B
:1032B000ABD463695A053FF521AFFFF749F8A0EB9E
:1032C0000900824526D3BAF1000F23D034687FE786
:1032D00000222023326386F83D3086F83E20336C8E
:1032E00086F83C2043F02003336401201AE7636929
:1032F00019063FF56BAF63695B053FF5FFAEFFF75E
:1033000027F8A0EB0900824504D3BAF1000F01D0E1
:10331000346869E700222023326386F83D3086F85E
:103320003E20336C86F83C2043F020033364F5E6FE
:10333000002800F0B98070B590F83D30044603F0E5
:10334000FF02002B00F098802368242284F83D209F
:103350001A6822F001021A601A6842F400421A60E8
:103360001A6822F400421A6002F0E8FC63684F49D0
:103370008B424FD84E4A90427CD94E4D5A00A5FB05
:103380000035431EB3FBF2F32268506820F03F0083
:1033900040EA95405060A90C01F1010C116A21F03E
:1033A0003F0141EA0C011162D16940F6FC7E013314
:1033B00021F44F4113EA0E0F21F0FF0161D10423E4
:1033C0000B43D361D4E907301168034321F0C001F6
:1033D0000B4313609168D4E9030321F403410343D1
:1033E00021F0FF010B439360D4E90530D16803431A
:1033F00021F0FF010B43D3601168002341F001016C
:1034000020201160236484F83D00236384F83E305B
:10341000184670BD284A90422CD9264D274EA5FB50
:10342000002C2268556825F03F0545EA9C4555600B
:103430004FEA9C414FF4967505FB01F1A6FB015143
:10344000156A890925F03F05013129431162D169C7
:10345000A56821F44F4121F0FF01ADB9013803EB1C
:103460004303B0FBF3F30133C3F30B03D3B143F4D2
:103470000043A5E7012070BD80F83C20FEF776FAF6
:1034800062E7C3F30B039BE703EB8303013803EB12
:103490008303B0FBF3F30133C3F30B0313B143F422
:1034A00040438DE701238BE701207047A086010090
:1034B0007F841E0083DE1B43FF083D00D34D621056
:1034C0002DE9F04F044683B09946BDF834A00E9E16
:1034D0000F469046FEF73CFF94F83D30202B04D079
:1034E0000227384603B0BDE8F08F054605E0FEF739
:1034F0002FFF401B192800F2AA80206883696FEA19
:10350000030C1CF0020BF2D094F83C30012BE7D0F6
:10351000012384F83C300368DB0771D5394607681E
:1035200027F4006707600C9860622120CDE90065F0
:1035300084F83D00402084F83E0000202064A4F878
:103540002AA0608D20855748E0624B4642462046BF
:10355000FFF7A4FC0746F8B9238D002B00F0A080EC
:103560002368721C58D15A6910061AD45A69510539
:10357000F9D500226FF4806020215861226384F81D
:103580003D1084F83E20236C84F83C2043F0040373
:103590002364236C042B38D00127384603B0BDE8E0
:1035A000F08FD4F824C0B4F828E061460EF1FF3063
:1035B00011F8012B1A61628D6162013A92B2628543
:1035C00082B258692285400717D542B9721C59D179
:1035D0005A69500749D45A695105F9D5C9E79CF889
:1035E000011019610CF102016162618DAEF10202FC
:1035F000013992B289B222856185002AB1D1E5E70D
:10360000036843F00103036088E72268136843F40A
:1036100000730127136064E75A691206C1D45A691E
:103620005105A6D4FEF794FE401B864201D3002E1E
:1036300096D100222023226384F83D3084F83E2076
:10364000236C84F83C2043F020032364A1E720236B
:10365000C4F830B084F83D3084F83EB0236C84F870
:103660003CB043F0200323643AE71A68002142F497
:10367000007220201A6084F83D0084F83C1084F821
:103680003E102EE75A695207EFD45A6951053FF5AB
:1036900070AFFEF75DFE401B8642CAD3002EC8D035
:1036A000236893E70000FFFF2DE9F04F044687B041
:1036B0009946BDF844A0129D0F469046FEF748FE7D
:1036C00094F83D30202B04D00227384607B0BDE8DF
:1036D000F08F064605E0FEF73BFE801B192800F23E
:1036E000D280D4F800C0DCF81800C04310F0020B00
:1036F000F1D094F83C30012BE6D0012384F83C3023
:10370000DCF80030D90737D5DCF8000020F4006081
:10371000CCF80000109860622220CDE9005684F8B1
:103720003D00402084F83E0000202064A4F82AA038
:10373000608D20859348E06239464B4642462046DC
:10374000FFF7A2FC0746002840F0AB80228DD2B9DB
:10375000236802905A6902929A690292029A1A6840
:1037600042F400721A600023202284F83D2084F87D
:103770003C3084F83E30A8E7DCF8003043F0010329
:10378000CCF80030C0E7012A00F02C81022A00F0BA
:10379000BD8023680590596905919969059105993E
:1037A000032A49D8012A00F0EB80022A00F0898020
:1037B000691C40F0BB805A695207FCD51A68616ADF
:1037C00022F480621A601B690B70638D616A228D1E
:1037D000013B0131013A9BB2616222856385691C1C
:1037E000226840F0AF8053695B07FCD51368616ABB
:1037F00043F40073136013690B70638D228D606A4C
:103800002168013B9BB263850969531E00F1010CDD
:103810002385C4F824C04170228D638D616A013A0A
:10382000013B013192B29BB2616222856385002A1D
:1038300099D0032A2368B5D95DB9C5E05A69D00685
:1038400000F1B280FEF784FD801B8542C0F08680C7
:1038500023685A695206F1D5626A1B691370638D39
:103860002068228D616A013B9BB263854369013AFE
:1038700092B201F1010C5B072285C4F824C0D6D5B1
:1038800003694B7036E02023C4F830B084F83D3033
:1038900084F83EB0236C84F83CB043F020032364EA
:1038A00012E70127384607B0BDE8F08F5A69500784
:1038B0000CD4FEF74DFD801B85424FD3002D4DD01B
:1038C0002368691CF2D15A695207FCD51A6842F480
:1038D00000721A601A69636A1A70638D626A013B2A
:1038E0009BB26385238D013B23852368511C1B6993
:1038F00061625370636A228D01336362638D013AA2
:10390000013B92B29BB22285638590E723681968D8
:1039100021F480611960196841F400611960049014
:103920005969049199690491049939E75A695007D2
:103930003FF544AFFEF70CFD801B85420ED36DB101
:10394000236835E7536958073FF550AFFEF700FD90
:10395000801B854202D3002D7FF441AF002220233B
:10396000226384F83D3084F83E20236C84F83C20A8
:10397000012743F020033846236407B0BDE8F08FE9
:103980005DB92BE00000FFFF5A69D2060CD4FEF7A8
:10399000DFFC801B8542E1D323685A695106F3D5C9
:1039A0001A69636A1A70A5E700226FF010002021DF
:1039B0005861226384F83D1084F83E20236C236410
:1039C00084F83C20012780E65A6952063FF544AF4F
:1039D0005A69D106E8D4FEF7BBFCBFE75A69500626
:1039E000F6D5DDE72368196821F48061196003903A
:1039F00059690391996903910399196841F4007118
:103A00001960CDE6704700BF704700BF704700BF28
:103A1000704700BF704700BF704700BF704700BFCE
:103A200090F83D20016D034659B9C26C0168012A26
:103A3000826C0DD0C2F307220A61026D0132026569
:103A40007047016D012909D0016D02290ED0704720
:103A5000D2B20A61026D023202657047826C01685F
:103A6000D2B20A61026D013202657047D2B2222AD7
:103A70001FD0418D89B2C1B9418D89B20029E6D1EB
:103A8000212AE4D1026810B5546824F4E06454603B
:103A9000146844F4007414602022016380F83D200F
:103AA00080F83E10FFF7BAFF10BD212A0AD05B8DC7
:103AB000704701680A6842F480720A60026D013240
:103AC00002657047416A026811F8010B10615A8D56
:103AD0005962013A92B25A85704700BF704700BFE1
:103AE000704700BF704700BF70B53A4B3A491B683A
:103AF000806B82B0DB080022A1FB031301921B0A3A
:103B000090F83D10026803EB8303C3EBC303C9B213
:103B1000019305E0019B013B019313689B0506D5CA
:103B2000019B002BF6D1036C43F020030364446B2C
:103B30004CB3836B0025E563F3B11668DD6326F4AF
:103B4000806616604585256500241C65136823F092
:103B50000103136090F83D30602B2AD001F028015A
:103B6000282919D02022002380F83D2080F83E30FB
:103B7000FFF7B6FF02B070BD156825F480651560CB
:103B800043852365E2E7836BF3B11568DC6325F4B5
:103B9000806515604485D7E7136843F0010313601F
:103BA0001368002443F480631360046380F83D10BD
:103BB000DEE70023202280F83D2080F83E300364B9
:103BC000FFF790FF02B070BD146824F480641460A5
:103BD0004385BBE7BC01002089B5F81410B590F807
:103BE0003D2090F83E30102B0446D2B239D0D9B2E5
:103BF000402936D002F0280128293DD02368596891
:103C0000080507D4602A05D02021002284F83D1041
:103C100084F83E20002222635A6812F4006234D1F4
:103C200094F83D10602975D05A69500605D5626A2E
:103C30001B691370636A013363622046FFF750FF0C
:103C4000236C190704D02268536823F4E06353609F
:103C500094F83D30226C5207DBB201D5282B2FD0CF
:103C600010BD222AC6D123681A6822F400621A60A5
:103C70005A681205C8D5CDE700232363236884F86A
:103C80003D105A6812F40062CAD05A68606B22F480
:103C900000625A6090F83530012B1ED0284B036526
:103CA000FEF7F2FE0028CBD02268606B136820215B
:103CB00023F00103136084F83D10036D9847BFE7BC
:103CC00000232049E16220222363204684F83D201E
:103CD00084F83E30FFF7A0FE10BDA06B184B0365C3
:103CE000FEF7D2FE0028ABD023685A69510606D5EC
:103CF000626A1B691370626A2368013262621A6821
:103D0000A06B22F0010220211A6084F83D10036D9F
:103D1000984795E7202184F83D1022645A6952069D
:103D200006D5626A1B691370626A23680132626297
:103D30001A6822F0010220461A60FFF7D3FE7FE7DF
:103D4000E93A00080000FFFF70B5036804465868B0
:103D5000E56A94F83E1094F83D2010298EB0D2B256
:103D60005FFA81FC24D0BCF1400F21D0216C0029E6
:103D700000F096805969002511F0020FC1F340064A
:103D800059D0860559D5226C02B19D6994F83D2021
:103D900002F02802282A00F01F8200220C925969A2
:103DA0000C919B690C930C9B84F83C200EB070BD69
:103DB0009E69596911F0010F1AD1B5F52A0FF5D096
:103DC000B5F12A4FF2D00D076DD5850540F18380FE
:103DD000626C616BD2B21A61002900F0E481CA6B97
:103DE000002A00F0E0815A6842F400625A60DDE780
:103DF00085056ED5E26AB2F52A0F00F0EA81E26A23
:103E0000B2F12A4F04BF0822E26294F83E20402A11
:103E100000F0D8812269B2F5804F00F0B381226DA5
:103E2000002A40F0EF81626CD21102F0060242F0EB
:103E3000F0021A61BAE7CD067CD402F0F702212A1B
:103E400000F0F5804E0640F13281450540F12F81AA
:103E5000490700F12F8194F83D10628D92B2C9B2EA
:103E6000002AA3D0626A1B691370638D626A013BEA
:103E70009BB26385638D01329BB26262002B95D148
:103E80002A2993D1226853682225282123F48063AC
:103E900053602046256384F83D10FFF7B9FD85E7A0
:103EA0009D69596968E78D0715D5850513D594F87F
:103EB0003E20E06A256B94F83D102229D2B200F032
:103EC000B38100220A925A690A929B690A930A9B5B
:103ED0006CE70D07E7D5750740F1F5805D682E05A5
:103EE0003FF564AF0D0640F11581460540F11281A2
:103EF0004D0700F1128194F83D20208D94F83E107A
:103F0000E56AD2B2C9B2002840F03B82212A00F013
:103F1000418340297FF44AAF222A7FF447AF628D64
:103F200092B2002A00F0708294F83E20402A40F0BD
:103F3000B480FCE0850580D594F83D505A6822F4A1
:103F4000E0625A600D965A690D921A6842F00102B9
:103F50001A600D9A1A6822F480621A605A68110574
:103F6000EDB221D505F0F702222A00F07A81606BCC
:103F70000268526892B26285628D92B21AB1226C66
:103F800042F0040222645A6822F400625A60FEF78A
:103F90007DFE012808D0606B994B0365FEF774FD28
:103FA00010B1606B036D9847638D9BB213B32368A8
:103FB0005A6952070AD5626A1B691370628D636A77
:103FC000013A591C92B22368616262855A695606A9
:103FD00009D5626A1B691370638D626A013B013205
:103FE0009BB262626385638D9BB21BB1236C43F00D
:103FF00004032364236C002B40F0DE802A2D00F0A4
:10400000518194F83D30282B00F05481236B222BF2
:1040100002D0222D7FF4CAAE002320222363204643
:1040200084F83D2084F83E30FFF7F2FCBEE60D0632
:1040300028D5460526D54D0727D494F83D00618D37
:1040400089B2C0B200293FF4B1AE616A11F8015BD8
:104050001D616162618D013989B26185618D89B2AD
:1040600000297FF4A3AE29287FF4A0AE5968282543
:1040700021F4806159602046226384F83D50FFF7A7
:10408000C5FC93E649077FF591AE82057FF58EAEBC
:10409000628D92B2002A3FF489AE626A12F8011B67
:1040A0001961638D6262013B9BB263857EE64A07BC
:1040B0007FF57CAE86057FF579AE628D92B2002ADF
:1040C0003FF474AE1BE05A6815053FF56FAE4A0623
:1040D00033D449077FF56AAE82057FF567AEE16AA2
:1040E000628D92B2042A00F01981628D92B2032A85
:1040F00000F05981628D92B2022A00F08A81626AD0
:104100001B691370638D626A013B01329BB262626C
:1041100063854BE649077FF549AE86057FF546AED8
:10412000212A00F00381BCF1400F7FF43FAE20460E
:104130000EB0BDE87040FFF773BC4605C9D54D070A
:10414000C1F38002C8D494F83D1022297FF42EAE2A
:10415000618D89B2032940F2CC81626A1B691370B8
:10416000638D626A013B9BB26385638D9BB20132B2
:10417000032B62627FF41AAE2268536823F48063D3
:10418000536013E694F83D20212A626C16BF42F07A
:10419000010202F0FE02D2B21A61626B1AB1D26B56
:1041A000002A7FF420AEA26B002A3FF4FFADD26B51
:1041B000002A7FF418AEF9E520460EB0BDE8704045
:1041C000FFF70CBD226D4ABB626C02F0FE021A6161
:1041D000ECE50122E26218E65A6822F480625A6035
:1041E0002E066FEA95014FF0000354BFA289228B7F
:1041F00084F83C3001F001012046FFF70BFCD5E5C7
:10420000E93A0008226D012A7FF4D0AD626CD21128
:1042100002F0060242F0F1021A61C7E5626C42F058
:104220000102D2B21A61C1E5216D11B9402A00F034
:10423000A180226D22B92169B1F5404F00F0A5801F
:10424000628D92B2002A42D103925A6903929A690E
:104250000392039A1A6842F400721A6000232365DD
:10426000A4E5A06B0268526892B26285628D92B238
:104270001AB1226C42F0040222645A6822F40062ED
:104280005A60FEF703FD01283FF48EAEA06BA14BF0
:104290000365FEF7F9FB00283FF486AEA06B036DC3
:1042A000984781E628222363204684F83D20FFF7C3
:1042B000AFFBA6E600239849E16220222363204653
:1042C00084F83D2084F83E30FFF7A6FB6EE5628D52
:1042D00092B2012A76D0628D92B2022A00F0EB806F
:1042E0001A6842F480621A605A6812050ED510F5F9
:1042F000803F07D001381F2808D8884A22FA00F0EA
:10430000C60703D55A6842F480525A6000220992C7
:104310005A6909929B690993099B9FE75A68616AE8
:1043200022F480625A601B690B70EBE6E16A94F834
:104330003D20212A7FF43AAD628D92B2002A7FF4AB
:10434000ACAE082900F09F80202900F09C8011F578
:10435000803F00F09880596821F4E0615960112095
:104360002023206384F83E20204684F83D30FFF768
:1043700049FB1BE501915A6901929B690193019BDD
:1043800014E5212A3FF4CBADC3E502925A690292AB
:104390009A690292029A1A6842F480721A60236D36
:1043A0000133236502E55A68042922F480625A60C9
:1043B0003FF4A5AE02293FF4A2AE1A6822F480624F
:1043C0001A609CE610F5803F00F00381082800F099
:1043D000D180202800F0CE80122D00F03D811028E1
:1043E00000F23C814E4A22FA00F0C10740F13681CA
:1043F0001A6842F480621A60002206925A69069294
:104400009B690693069B29E75A6822F480625A60EA
:10441000CCE401291A6800F0D880102900F0D5807A
:10442000042900F00A81022900F0078142F4007299
:104430001A60626A1B691370638D626A2168013BAE
:104440009BB263850B69511C61625370638D216857
:10445000626A013B9BB263854B68013223F440736F
:10446000202062624B6084F83D0094F83E30402B7F
:1044700000F0C3800022122384F83E2020462363EC
:10448000FFF7C2FA92E4596821F4E06159601968B3
:104490000022202041F400711960226384F83D005D
:1044A00094F83E3084F83E20402B20467FF45FAFE6
:1044B000FFF7B4FA7AE4102840F2A8801A6822F4D0
:1044C00080621A601A6842F400621A605A6816051F
:1044D00007D510F5803F40F0A6805A6842F480521C
:1044E0005A60002208925A6908929B690893089BB7
:1044F000B4E6E06A022887D0012985D809490B92E1
:10450000096846F2A810B1FBF0F101EB81010B91B3
:104510000FE000BFE93A00080000FFFF8180008043
:1045200014000100BC0100201A6812F4007200F0AF
:104530009A800B9A013A0B920B990029F4D1226CC4
:10454000606A42F0200222645A6822F4E0625A60F3
:104550001B690370638D626A013B01329BB22020AC
:104560006385626284F83D00204684F83E10FFF7C0
:10457000B7FA1BE41A68002122F480621A600791DE
:104580005A6907929A690792079A1A6842F4007268
:104590001A6063E6082D3FF476AF202D3FF473AF29
:1045A00015F5803F3FF46FAF5A6822F4E0625A601D
:1045B000112000212023206384F83E10204684F837
:1045C0003D30FFF71FFAFFF7F1BB22F480621A605B
:1045D0002FE71A6822F480621A605A6812F40062A7
:1045E0002FD01A68002122F480621A6004915A695F
:1045F00004929B690493049B30E6002384F83E30C8
:1046000020462363FFF76AFAFFF7D0BB274AC24070
:10461000D2077FF553AF1A6842F480621A605A6875
:1046200015057FF55EAF01381F283FF65AAF204AC7
:10463000C240D1077FF555AF4FE742F480621A6060
:10464000F7E605925A6905929A690592059A1A68E1
:1046500042F400721A6001E601288BD11A6822F434
:1046600080621A60C8E61968606A21F48061196086
:10467000596821F4E06159601B690370638D013B47
:1046800020219BB2638584F83D10636A94F83E1044
:104690000133402963627FF4EEAE84F83E20204669
:1046A0002263FFF71BFAFFF781BB00BF1400010074
:1046B0008180008030B503685C695A6890F83E10CC
:1046C000E50583B05FFA81FC33D5D1054FEA122EA0
:1046D0002FD56FF480725A61A2053CD4620572D561
:1046E0000121428D90F83DE0056BBCF1200F92B2A4
:1046F0005FFA8EFE3DD06FF48062BCF1100F41F086
:1047000004015A6102D0BCF1400F03D11A6842F48F
:1047100000721A60220504D56FF4006241F00801AE
:104720005A61036C1943016403B0BDE83040FFF7E0
:1047300055BAA50503D5D1054FEA122E17D4650544
:10474000C4F3802103D4240534D403B030BDD10593
:10475000FBD50021C5E703216FF400725A616205A1
:10476000BFD42405DDD51EF0010FD5D1D9E7022134
:10477000F2E7CAB90EF0F702212A04D0BEF1280FE1
:1047800012D1212D10D190F83D20C56A082DD2B24A
:104790001ED0202D1CD0212A37D06FF480625A61A0
:1047A00025050CD50368B7E76FF480625A6141F0C4
:1047B0000401AFE74FEA122E1EF0010FACD1002921
:1047C000AFD103B030BD25054FF00101F4D4A8E707
:1047D000282AE0D11A4AC2625A68019122F4E062A2
:1047E0005A606FF480625A611A68009022F4806205
:1047F0001A6000232022036380F83D2080F83E30B9
:10480000FFF70AF9DDE90001CAE70D4DC562026351
:10481000202280F83D20002280F83E205A68019135
:1048200022F4E0625A606FF480625A611A68009064
:1048300022F480621A60FFF7E9F8DDE90001AFE7D2
:104840000000FFFFF0B58BB0002800F0858090F8E5
:10485000BD340468054603F0FF02002B76D02046E5
:10486000032385F8BD34E36B2E4613F4807308BF31
:104870002B6102F095F856F810EBB446BCE80F0037
:104880006C460FC4BCE80F000FC49CE8030084E82A
:1048900003002F1D97E80E00704601F07DFF0446CF
:1048A00030B101240223204685F8BD340BB0F0BDA1
:1048B0000146286802F07CF8686858B322464FF039
:1048C000010E214602EBC20305EB830302F1010C4A
:1048D00083F83C20A3F844205FFA8CF28242C3E9BB
:1048E000121183F83DE083F840105965EAD30022A5
:1048F00004EBC40305EB8303611C83F87C42CCB258
:104900008442C3E9A22283F87D2283F88022C3F87F
:104910009422EDD30FCE6C460FC40FCE0FC496E891
:10492000030084E8030097E80E00286802F078F896
:1049300004460028B5D1012385F83800286885F899
:10494000BD3402F01FFD20460BB0F0BD80F8BC2442
:10495000FDF76CFC286883E7012420460BB0F0BD0E
:1049600010B590F8BC34012B0446006816D0A36A39
:104970000122934284F8BC2408D002F009F8206890
:1049800002F0F0FC002084F8BC0410BDA36993423F
:10499000F3D0836B43F480338363EEE7022010BDD2
:1049A0002DE9F04F056889B00446284602F028FD3D
:1049B00010B109B0BDE8F08F8346206802F0F2FC28
:1049C0000028F6D0D5F808382068C3F30D23C4F8C2
:1049D000FC3402F0E7FC10F0020F206805F50063DC
:1049E00003931EBF436903F00203436102F0DAFC44
:1049F00010F0100F206812D0836923F01003836138
:104A00002E6AC6F34343022B06F00F0700F0CB8358
:104A1000062B00F00783836943F01003836102F0E3
:104A2000C1FC070300F16982206802F0BBFC460369
:104A300000F11182206802F0B5FC0028C0F28281EA
:104A4000206802F0AFFC070500F13D81206802F00C
:104A5000A9FCC00400F1A081206802F0A3FC10F4BE
:104A6000005F206840F0818102F09CFC010700F1AA
:104A7000E981206802F096FC020671D5AA69636894
:104A800022F08002012BAA616AD994F8A322012A9C
:104A900000F0EA83022B63D994F8C722012A00F0C0
:104AA000FE83032B5CD994F8EB22012A00F0B38239
:104AB000042B55D994F80F23012A00F0C682052B48
:104AC0004ED994F83323012A00F02684062B47D9C7
:104AD00094F85723012A00F03384072B40D994F827
:104AE0007B23012A00F04A84082B39D994F89F23AC
:104AF000012A00F05784092B32D994F8C323012AE4
:104B000000F064840A2B2BD994F8E723012A00F0E3
:104B100071840B2B24D994F80B24012A00F07E8495
:104B20000C2B1DD994F82F24012A00F07F840D2B23
:104B300016D994F85324012A00F09F840E2B0FD924
:104B400094F87724012A00F0A6840F2B08D994F852
:104B50009B34012B04D1206804F5936102F016FB0D
:104B6000206802F01FFCC30240F1AB806368012B98
:104B700040F2898094F86420D5F82019012A00F0C9
:104B80001382022B7FD994F88820D5F84019012A86
:104B900000F01D82032B76D994F8AC20D5F860196B
:104BA000012A00F02082042B6DD994F8D020D5F88A
:104BB0008019012A00F02382052B64D994F8F4208F
:104BC000D5F8A019012A00F04383062B5BD994F88D
:104BD0001821D5F8C019012A00F05583072B52D9A6
:104BE00094F83C21D5F8E019012A00F06083082BE5
:104BF00049D994F86021D5F8001A012A00F063839E
:104C0000092B40D994F88421D5F8201A012A00F004
:104C10006E830A2B37D994F8A821D5F8401A012AB7
:104C200000F082830B2B2ED994F8CC21D5F8601A92
:104C3000012A00F097830C2B25D994F8F021D5F8A0
:104C4000801A012A00F0A2830D2B1CD994F814229B
:104C5000D5F8A01A012A00F0AD830E2B13D994F8D1
:104C60003822D5F8C01A012A00F0B8830F2B0AD9D0
:104C700094F85C22D5F8E01A012A00F0C383102BC7
:104C800001D9D5F8003B2068436903F480134361E0
:104C900002F088FB870221D4206802F083FB4000E9
:104CA00000F1C780206802F07DFB41077FF581AEEF
:104CB00023685D686A0700F197825A682A435A6040
:104CC00077E62068E4E7039B9B68DE0700F18882B3
:104CD0002068436903F400634361B8E6D4F804C074
:104CE000BCF1010F28D905F532622346012106E007
:104CF0000131614502F1200203F124031CD093F835
:104D0000A40216680128F3D1002EF1DAD4F8FC745D
:104D100006F4803607F00107BE42E9D183F8A3020A
:104D2000A86940F08000A86168690606E0D4039A8B
:104D3000536843F4007353602068436903F400131D
:104D40004361AAE7039A536823F00103536094F880
:104D5000F434012B00F03481204603F007FF206873
:104D6000436903F0004343616BE602F04DFB2068AA
:104D700001F09AFFE060266800F0DAFF227B01462E
:104D8000304601F08BFD204603F0C2FE20684369E7
:104D900003F40053436167E6039A2068536823F0E5
:104DA00001035360102101F055FF6068E0B105F583
:104DB00010634FF67F3199601A6822F400121A606E
:104DC000C3F80812D3F8002222F40012C3F800221C
:104DD000D3F800220BF1010B42F000628345C3F8C7
:104DE000002203F12003E6D10399226BCB6943F043
:104DF0000113CB61002A40F0CC804B6943F400538F
:104E000043F02B034B610B6943F00B030B61D5F8A7
:104E10000038217C206823F4FE63C5F8003804F2D2
:104E2000C44202F003FB2068436903F480534361EA
:104E300013E6204603F0A6FE2068436903F0804392
:104E4000436130E7204603F05FFE2068436903F0CA
:104E5000080343610EE6206802F0B0FA804600289D
:104E60003FF4E8AD4FF0000A20680495274605F5A9
:104E700010695646CDF814B009E05FEA580806F10B
:104E8000010607F1240709F1200900F0E58018F078
:104E9000010FF2D05FFA86FA514602F0A1FAC2077A
:104EA000054613D5039901204B6B06F00F0200FA5B
:104EB00002F223EA02034B632169C9F80800814228
:104EC00000F097815146204603F014FE2B0744BFA3
:104ED0000823C9F80830E80644BF1023C9F8083091
:104EE000690644BF4023C9F80830AA0700F14E8183
:104EF0002B0600F1F5802068BFE7206802F056FA23
:104F0000064600283FF490AD05F53067A2464FF005
:104F10000009CDF810B008E0760809F1010907F1A1
:104F200020070AF1240A00F09A80F007F4D55FFA0E
:104F300089FB2068594602F049FA10F0010F8046BB
:104F400040F0AF8018F0080F40F08C8018F0100F80
:104F50001CBF1022BA6018F0020F0ED06A69110649
:104F600004D5039B5A6842F480625A609AF87F2203
:104F7000012A00F080810223BB6018F0200F1CBFC3
:104F80002023BB6018F4005F1CBF4FF40053BB60CC
:104F9000C2E7D1F8843043F00B03C1F884304B6C86
:104FA00043F00B034B6432E70029BFF6EAAD21461C
:104FB00084F8632051F8600B02F0E8F86368E0E5DC
:104FC000002184F8F414204600F0FAFBC7E600291B
:104FD000BFF6E0AD214684F8872051F8840B02F03B
:104FE000D5F86368D6E50029BFF6DDAD214684F823
:104FF000AB2051F8A80B02F0C9F86368D3E500298B
:10500000BFF6DAAD214684F8CF2051F8CC0B02F080
:10501000BDF86368D0E5206804F53A7102F0B6F88F
:10502000636845E5082204F2C441284607EBC70738
:1050300002F006F904EB8702C6F30A13D2F89C12B9
:1050400020680B44C2F89C32E5E4206804F5437103
:1050500002F09CF8636832E5DDE9045BEBE4DDF81F
:1050600010B0E1E42168BD4B0822BA6001F530625E
:10507000096C02EB49129942906840F2CB8000041F
:1050800002D54FF400419160204603F023FD2169D1
:1050900001297FF45BAF206804F2C44202F0C6F934
:1050A00054E7206821690122BA6000F5306202EB02
:1050B00049120129D0F840C0936800F0AF80A84998
:1050C0008C4500F00C81B9F1000F04D1D4F8942282
:1050D000002A00F0DA815946204603F001FD31E74D
:1050E000FB6D7D6DD4F800B0AB4258463FF6C5AEBF
:1050F0000BF5106202EB461211469646BA6C8969AE
:10510000CDF81CB0A5EB030C624528BF624689B2FE
:105110000332B1EB920FC0F0978052460696CA4612
:105120002646C1467446904619E0ED1ABB6CF96CF0
:105130009D4228BF1D46337C00934246ABB2584681
:1051400002F068F8FB6CA1692B44FB64FB6D89B22B
:105150002B440335B1EB950FFB656DD37D6D9D42FF
:10516000E3D83446069ED4F800B0C846D146079B23
:1051700006F00F0203F500610125D3F8343805FA73
:1051800002F223EA020358464B6376E6049831465E
:1051900001F060FD97F83F30012B00F0B48002234E
:1051A000C9F80830A4E647F6F0731E423FF433AC6A
:1051B00007EBC70704EB8707C6F30A12D7F88C1270
:1051C0002846164602F03CF8D7F88C322068334463
:1051D000C7F88C32D7F89C323344C7F89C321AE4B3
:1051E000204603F0ABFC73E5204603F0CFFC2368B8
:1051F00063E5D7E912231344FB64002E7FF462AE0B
:10520000636D002B7FF45EAE206804F2C44202F0AE
:105210000DF957E6204603F05DFC97E6190740F1CB
:1052200097804E498C457FF68DAE18047FF58AAE87
:105230004FF40041916085E634467D6DD4F800B0AE
:10524000069EC8465846D146AB42FFF416AE8EE7DE
:105250000029BFF6BAAC214684F8F32051F8F00BD0
:1052600001F094FF6368B0E4206804F5287101F050
:105270008DFF63680EE4002359468AF87F3220468A
:1052800003F078FC77E60029BFF6A8AC206884F824
:10529000172104F58A7101F079FF63689EE42068A4
:1052A00004F5317101F072FF6368FFF7FABB002962
:1052B000BFF69DAC206884F83B2104F59C7101F099
:1052C00065FF636893E40029BFF69AAC206884F810
:1052D0005F2104F5AE7101F059FF636890E4190491
:1052E000A6D49B067FF5F7AE20219160F3E6002956
:1052F000BFF68FAC206884F8832104F5C07101F0FB
:1053000045FF636885E44FF0000387F83F3051465E
:10531000204603F033FC42E7206804F54C7101F0AD
:1053200035FF6368FFF7D2BB0029BFF67BAC20686E
:1053300084F8A72104F5D27101F028FF636871E4B5
:10534000206804F5557101F021FF6368FFF7C5BBC4
:10535000990673D520219160F4E500BF0A30544FBF
:105360000A31544F0029BFF666AC206884F8CB217F
:1053700004F5E47101F00AFF63685CE4206804F559
:105380005E7101F003FF6368FFF7AEBB0029BFF653
:105390005BAC206884F8EF2104F5F67101F0F6FEAD
:1053A000636851E4206804F5677101F0EFFE6368FB
:1053B000FFF7A1BB0029BFF650AC206884F8132288
:1053C00004F5047101F0E2FE636846E4206804F528
:1053D000707101F0DBFE6368FFF794BB0029BFF634
:1053E00045AC206884F8372204F50D7101F0CEFE3B
:1053F00063683BE4206804F5797101F0C7FE6368D7
:10540000FFF787BB0029BFF63AAC206884F85B221F
:1054100004F5167101F0BAFE636830E4206804F503
:10542000816101F0B3FE6368FFF77ABB206804F284
:105430002C4101F0ABFE6368FFF779BB13F0280F36
:105440007FF480AD1B498C4502D91B043FF5F0AEBB
:105450001169DAF89822C1F31201521ACAF89C2293
:10546000B9F1000F7FF437AED4F89412D9B1D4F863
:105470008C120A44C4F88C222DE6206804F58A6157
:1054800001F084FE6368FFF759BB04F2C442494649
:1054900001F0CCFF1FE6206804F2744101F076FEB3
:1054A0006368FFF752BB04F2C442012101F0BEFF62
:1054B00011E600BF0A30544F90F8BC24012A0DD0E9
:1054C00010B504460122006884F8BC2484F8381022
:1054D00001F038FF002084F8BC0410BD02207047A2
:1054E00010B501F00F0E0906044627D44FF0240C26
:1054F0000CFB0E0C0CF51F710EEBCE0C00EB8C0CA4
:1055000000208CF87D02CA604A7881F800E00B71B7
:105510000AB1A1F808E0022B04BF00234B7194F8F4
:10552000BC34012B18D0012384F8BC34206801F06E
:10553000C7FB002384F8BC34184610BD242000FBB0
:105540000E4000F13C010EEBCE0004EB80004FF06A
:10555000010C80F83DC0D6E7022010BD01F00F031A
:1055600003EBC30211F0800F4FF0240110B500EBE4
:105570008202044601FB030113D101F51F710020D3
:1055800082F87D020B7094F8BC34012B12D00123F9
:10559000206884F8BC3401F0DFFB002084F8BC04F0
:1055A00010BD3C31012082F83D000B7094F8BC34F2
:1055B000012BECD1022010BD10B501F00F0404EB5B
:1055C000C40C00EB8C0C2421CCF894320023CCF8D2
:1055D0008C228CF87C42CCF89C328CF87D320369AA
:1055E00001FB0401012B08BFCCF89022006801F5F3
:1055F0001F71DAB21CB901F01DFD002010BD01F0D1
:105600000DFC002010BD00BF01F00F0101EBC10136
:1056100000EB8101D1F89C02704700BF10B501F08A
:105620000F0404EBC40C00EB8C0C2421CCF8543098
:105630000023CCF85C300123CCF84C208CF83C40A3
:105640008CF83D30036901FB0401012B08BFCCF845
:10565000502000683C31DAB21CB901F0EBFC0020AC
:1056600010BD01F0DBFB002010BD00BF38B5436862
:1056700001F00F059D4233D80B0604461CD401EB04
:10568000C103242202FB010100EB830301F51F711A
:10569000002283F87D2201238B700D7094F8BC24C6
:1056A0009A421BD0206884F8BC3401F0F1FDCDB1E2
:1056B000002084F8BC0438BD05EBC503242101FBA0
:1056C000050100EB830301223C3183F83D200123D7
:1056D0008B700D7094F8BC249A42E3D1022038BD3F
:1056E000012038BD217C206804F2C44201F09EFEF6
:1056F000DEE700BF426838B501F00F0393422ED8B1
:1057000003EBC30211F0800F4FF02401044600EBBD
:10571000820201FB030115D101F51F710020002554
:1057200082F87D028D700B7094F8BC34012B14D07C
:105730000123206884F8BC3401F0D8FD84F8BC54FF
:10574000284638BD3C310120002582F83D008D708F
:105750000B7094F8BC34012BEAD1022038BD012033
:1057600038BD00BF10B40468606A31B940EA024035
:10577000A06200205DF8044B7047A36AB1F1010CF0
:1057800000EB13400BD0002303F1400104EB810137
:1057900001334968DBB2634500EB1140F4D30CF1EF
:1057A000400C04EB8C0C40EA0240CCF804005DF89D
:1057B000044B0020704700BF036800205962704707
:1057C000704700BF002800F0A2812DE9F041036876
:1057D000DD0782B004462FD59E498A6802F00C028C
:1057E000042A00F0ED808A6802F00C02082A00F01A
:1057F000E3806368B3F5803F00F0EC80B3F5A02F41
:1058000000F07581934D2A6822F480322A602A685C
:1058100022F480222A60002B40F0E180FCF798FD02
:10582000064605E0FCF794FD801B642800F2018128
:105830002B689B03F6D423689F0728D5854A916877
:1058400011F00C0F00F09080916801F00C01082914
:1058500000F08680E368002B00F00E817E4B7D4EC9
:1058600001221A60FCF774FD054605E0FCF770FDA7
:10587000401B022800F2DD8033689807F6D53368B4
:10588000226923F0F80343EAC203336023681A074E
:1058900051D458072FD56F4A136C13F080537FD023
:1058A00000256E4E3368D90540F1B380A368012B03
:1058B00000F0C380052B00F02C81664E326F22F081
:1058C00001023267326F22F004023267002B40F08F
:1058D000B980FCF73DFD41F28838074605E0FCF74A
:1058E00037FDC01B404500F2A480336F9807F6D403
:1058F000002D40F00681A069C8B1564DAB6803F099
:105900000C03082B00F0C980534B002202281A66B2
:1059100000F00981FCF71CFD044605E0FCF718FDCA
:10592000001B022800F285802B689B01F6D4002022
:1059300002B0BDE8F08163690BB3474B454E0122CD
:10594000C3F8802EFCF704FD054604E0FCF700FDDB
:10595000401B02286DD8736F9B07F7D5236898E723
:10596000526856023FF576AF3A4A1268950744D519
:10597000E268012A41D0012002B0BDE8F081364A38
:10598000344EC2F8803EFCF7E3FC054604E0FCF729
:10599000DFFC401B02284CD8736F9F07F7D4DDE76C
:1059A0000193136C43F080531364136C03F0805322
:1059B0000193019B012574E74A6850027FF519AFF6
:1059C000244A126891037FF537AF6268002A7FF49A
:1059D00033AFD0E71F4A136843F480331360FCF7FA
:1059E000B7FC1C4E054604E0FCF7B2FC401B6428E3
:1059F0001FD833689A03F7D51DE7164920690A684E
:105A000022F0F80242EAC0020A601A077FF541AFAD
:105A100091E7336843F480733360FCF799FC0746E1
:105A20003368DA053FF542AFFCF792FCC01B022851
:105A3000F6D9032002B0BDE8F081064A136F43F0A7
:105A400001031367FCF784FC024F064641F28838D5
:105A50000BE000BF003802400000474200700040E9
:105A6000FCF776FC801B4045E3D83B6F9B07F7D5DE
:105A7000002D3FF440AF44E0424A434E1360FCF730
:105A800067FC054604E0FCF763FC401B0228D0D805
:105A900033689907F7D42368F9E601283FF448AF43
:105AA0006B68E26903F4800191427FF464AF226A7B
:105AB00003F03F0191427FF45EAF616A47F6C07226
:105AC0001A40B2EB811F7FF456AFA26A520803F46A
:105AD0004031013AB1EB024F7FF44DAFE26A03F07F
