:020000040800F2
:100000000000022051140008851100088911000821
:100010008D110008911100089511000800000000E2
:100020000000000000000000000000001184000833
:100030009911000800000000A1840008356900083B
:10004000A1140008A1140008A1140008A1140008BC
:10005000A1140008A1140008A1140008A1140008AC
:10006000A1140008A1140008A11400089D110008A3
:10007000A1140008A1140008A1140008A11400088C
:10008000A1140008A1140008A11400080000000039
:10009000000000000000000000000000A91100089E
:1000A000A1140008B1110008A1140008A11400084F
:1000B000A1140008A1140008A1140008A11400084C
:1000C000A1140008A1140008A1140008A11400083C
:1000D000A1140008A1140008A114000800000000E9
:1000E000BD110008A1140008A114000800000000C0
:1000F000000000000000000000000000A114000843
:1001000000000000A1140008A1140008A1140008B8
:1001100000000000000000000000000000000000DF
:10012000A1140008A1140008A1140008A1140008DB
:10013000A114000800000000000000000000000002
:10014000000000000000000000000000C5110008D1
:10015000A1140008A1140008A1140008A1140008AB
:10016000A1140008A1140008000000000000000015
:10017000000000000000000000000000000000007F
:1001800000000000A11400080000000000000000B2
:08019000A1140008A1140008ED
:1001A00010B5054C237833B9044B13B10448AFF3B1
:1001B00000800123237010BD080300200000000010
:1001C0003492000808B5034B1BB103490348AFF351
:1001D000008008BD000000000C03002034920008DD
:1001E00001F0FF01102A2BDB10F0070F08D010F8E8
:1001F000013B013A8B422DD010F0070F42B3F6D1EC
:10020000F0B441EA012141EA014122F007047FF004
:1002100000070023F0E80256083C85EA010586EA5B
:10022000010685FA47F5A3FA87F586FA47F6A5FA97
:1002300087F68EB9EED1F0BC01F0FF0102F00702A3
:1002400032B110F8013B013A83EA010313B1F8D14E
:100250000020704701387047002D06BF354603382F
:10026000073815F0010F07D1013015F4807F02BF68
:10027000013015F4C03F0130F0BC0138704700BFB9
:1002800053B94AB9002908BF00281CBF4FF0FF31FD
:100290004FF0FF3000F074B9ADF1080C6DE904CEF9
:1002A00000F006F8DDF804E0DDE9022304B0704751
:1002B0002DE9F047089D04468E46002B4DD18A4219
:1002C000944669D9B2FA82F252B101FA02F3C2F14C
:1002D000200120FA01F10CFA02FC41EA030E9440DD
:1002E0004FEA1C48210CBEFBF8F61FFA8CF708FBFE
:1002F00016E341EA034306FB07F199420AD91CEBD6
:10030000030306F1FF3080F01F81994240F21C8107
:10031000023E63445B1AA4B2B3FBF8F008FB10334F
:1003200044EA034400FB07F7A7420AD91CEB040484
:1003300000F1FF3380F00A81A74240F20781644454
:10034000023840EA0640E41B00261DB1D4400023D9
:10035000C5E900433146BDE8F0878B4209D9002D3D
:1003600000F0EF800026C5E9000130463146BDE8C7
:10037000F087B3FA83F6002E4AD18B4202D3824231
:1003800000F2F980841A61EB030301209E46002DE0
:10039000E0D0C5E9004EDDE702B9FFDEB2FA82F235
:1003A000002A40F09280A1EB0C014FEA1C471FFA93
:1003B0008CFE0126200CB1FBF7F307FB131140EA7A
:1003C00001410EFB03F0884208D91CEB010103F147
:1003D000FF3802D2884200F2CB804346091AA4B209
:1003E000B1FBF7F007FB101144EA01440EFB00FEDD
:1003F000A64508D91CEB040400F1FF3102D2A64542
:1004000000F2BB800846A4EB0E0440EA03409CE7E0
:10041000C6F12007B34022FA07FC4CEA030C20FA8D
:1004200007F401FA06F31C43F9404FEA1C4900FAAD
:1004300006F3B1FBF9F8200C1FFA8CFE09FB18112A
:1004400040EA014108FB0EF0884202FA06F20BD99D
:100450001CEB010108F1FF3A80F08880884240F2ED
:100460008580A8F102086144091AA4B2B1FBF9F031
:1004700009FB101144EA014100FB0EFE8E4508D92C
:100480001CEB010100F1FF346CD28E456AD90238B1
:10049000614440EA0840A0FB0294A1EB0E01A14296
:1004A000C846A64656D353D05DB1B3EB080261EB04
:1004B0000E0101FA07F722FA06F3F1401F43C5E9DE
:1004C000007100263146BDE8F087C2F12003D84014
:1004D0000CFA02FC21FA03F3914001434FEA1C4756
:1004E0001FFA8CFEB3FBF7F007FB10360B0C43EA48
:1004F000064300FB0EF69E4204FA02F408D91CEBF8
:10050000030300F1FF382FD29E422DD902386344F5
:100510009B1B89B2B3FBF7F607FB163341EA034195
:1005200006FB0EF38B4208D91CEB010106F1FF38E4
:1005300016D28B4214D9023E6144C91A46EA0046DB
:1005400038E72E46284605E70646E3E61846F8E66D
:100550004B45A9D2B9EB020864EB0C0E0138A3E7B6
:100560004646EAE7204694E74046D1E7D0467BE797
:10057000023B614432E7304609E76444023842E70F
:10058000704700BF0148002103F0BABDF41C0020F1
:100590002DE9F04F1B4C1C4F1C4EDFF878B085B096
:1005A00004F1100825464FF0640A4FF0010915F8D0
:1005B000012F0096CDE9019A01236E21584601F0E2
:1005C000F1FE08B933783B70454507F10107EED1DC
:1005D0000F4DDFF844904FF0640A0127CDE9017A0E
:1005E00014F8012F009601236E21484601F0DAFE2F
:1005F00008B933782B70444505F10105EED105B0FB
:10060000BDE8F08FCB000020080B0020280B002055
:10061000180B00209C1B0020F01B0020F0B587B0B9
:1006200001230DF113026424CDE9013400925548F1
:100630008DF813308A226E2101F0B4FE9DF813303C
:10064000012B40F09D80504F504E8025CDE9015444
:100650000097012300226E21304601F0AFFD0028F3
:10066000F4D10323494F8DF8143005AE64250124DD
:10067000CDE901450096012386226E21384601F01E
:100680009DFD0028F4D14FF4FA7006F0D9F9404CE2
:100690003E4F64260225CDE90156009401239422A1
:1006A0006E21384601F07EFE0028F4D13849374FDC
:1006B000022204F067FF642006F0C2F964260225D6
:1006C000CDE90156009401237E226E21384601F0C7
:1006D00075FD0028F4D12D4F8DF815500DF115063C
:1006E00064250124CDE901450096012386226E216F
:1006F000384601F063FD0028F4D1DC2006F0A0F9B3
:10070000224F02238DF816300DF1160664250124C0
:10071000CDE901450096012388226E21384601F07B
:1007200041FE0028F4D19DF81630DBB1174F0DF1D2
:10073000170401264FF47A7006F082F900238DF831
:1007400017306425CDE901650094012389226E21CB
:10075000384601F027FE0028F4D10122214604F09A
:1007600011FFE7E70DF11703FF260093CDE90145DF
:1007700006488DF81760012386226E2101F01EFDC8
:1007800007B0F0BD9C1B002074920008F01B0020F5
:10079000C800002030B583B000231E4A0093116BBF
:1007A0001D481E4D41F400111163116B01F400113D
:1007B000009100990193116B436041F48001116332
:1007C000126B436102F48002019280224FF40074A4
:1007D00082604FF48062C0E9034201990560042100
:1007E0000322C0E90633C0E90831C0E90A230363E4
:1007F00000F0F4FE50B90B200022052100F0A2FE0B
:100800000B2003B0BDE8304000F0DABE00F044FC3D
:10081000F1E700BF003802402C0B002010640240BA
:100820002DE9F04105208AB006F00AF9FFF7F6FE3F
:10083000DFF8ACE0264CDFF8AC80264EBEE80F00B7
:10084000EC46ACE80F00BEE80F00ACE80F009EE8F5
:1008500003004CF8040BA4F11F05FE278CF80010D0
:100860000A2006F0EDF898F80030012BF8D1FFF7D8
:100870008FFE194A4FF4907104E0FD2B06D0A2427E
:10088000194408D012F8013FFF2BF6D1FE23A242F3
:1008900017701944F6D1114B0DF1020213F8010F34
:1008A000285C02F8010F9E42F8D14942C9B2FF29E3
:1008B00014BF8DF823104FF6FD634FF025026946F3
:1008C0004FF0000008BFADF8233004F05BFEC7E72F
:1008D000270B002013930008070B0020F392000859
:1008E0004C920008441C00202DE9F04FDFF800B2C4
:1008F0007A4C83B07A4B7B481B78019300218A465F
:100900004CE013F0010F14BF5221182113F0020F15
:1009100024F812105FFA89F10CBF4FF018094FF05C
:10092000520913F0040F24F818900CBF4FF0180868
:100930004FF0520813F0080F24F81E800CBF4FF040
:10094000180E4FF0520E13F0100F0CBF4FF0180896
:100950004FF0520813F0200F24F81CE00CBF4FF0AA
:10096000180E4FF0520E13F0400F14BF4FF0520C00
:100970004FF0180C07325FEAD31901930CBF18230C
:10098000522324F8178024F816E024F815C024F820
:100990001230834573D0602900F08C8010F8013F3D
:1009A000CA00FD2B02F1010802F1020E02F1030C54
:1009B00002F1040702F1050602F1060501F1010941
:1009C00075D0BAF1000F9CD0013313F0010F02F182
:1009D000010614BF4FF052094FF0180913F0020F2F
:1009E0000CBF4FF018084FF0520813F0040F24F812
:1009F000129008BF182724F8168018BF522702F15A
:100A0000020813F0080F0CBF1825522513F0100F21
:100A100024F8187008BF4FF0180E02F1030718BF32
:100A20004FF0520E13F0200F0CBF4FF0180C4FF088
:100A3000520C13F0400F24F8175014BF52261826FA
:100A400002F1040813F0800F02F1050702F1060518
:100A500002F1070201F1010AD9B20CBF1823522397
:100A6000834524F818E0019124F817C05FFA8AF151
:100A700024F815604FF0000A24F812308BD1184B7F
:100A8000019A1A70602918D0C1F16005EDB204EB2B
:100A9000011100224FF018130132D0B2A8420B60AE
:100AA0004B608B60CB6001F11001F5D305E04FF096
:100AB000010A6EE70A4B019A1A70084A0A4840F286
:100AC0000133002103F00CFA084A0748F023002103
:100AD00003F006FA322005F0B3FF0BE724030020F1
:100AE0002609002002000020F41C00202809002014
:100AF000C70000202DE9F84F4FF00009714D724CEE
:100B0000DFF8D881DFF8D8A1DFF8D8B14F464E46DC
:100B1000012005F095FF2368002BF9D02A78FF2AE1
:100B200004D0002F40F084802660F1E76A78102A14
:100B300078D8002AF8D0013A0F2AF5D801A151F847
:100B400022F000BF1D0C0008B70B0008A30B000823
:100B5000910B0008290B0008290B0008290B00083D
:100B6000290B0008290B0008290B0008290B000895
:100B7000290B0008290B0008290B0008290B000885
:100B8000850B000851490422002004F0FBFCCBE750
:100B900001224FF4005158468AF8006000F0EAFF45
:100BA000C2E7012300224FF4005158468AF8003072
:100BB00000F0E0FFB8E7FF22012B88F800205FFA81
:100BC00083F929D0A3F10A02F52A70D803F1FF3E78
:100BD0003F4840494FEA9E0C0022013250F8047B06
:100BE00041F8047B6245F8D30EF0FC02511C1EF064
:100BF000030FC9B210D0901CC0B26F5C08F801702E
:100C0000834209D90332D2B2295C08F8001093421A
:100C100002D9AB5C08F80230012785E701238AF886
:100C2000003081E7F02A7FF47FAF00F037FA7BE7EE
:100C3000012B08F809202CD0A3F10A02F52A2AD8A2
:100C400003F1FF3C09F1010121484FEA9C074144AF
:100C50000022013250F804EB41F804EB9742F8D837
:100C60000CF0FC02511C1CF0030FC9B211D0901CF7
:100C700008EB0907C0B215F801C007F801C08342AC
:100C800007D90332D2B2295C3954934201D9AB5C03
:100C9000BB54002748E7104A08EB0901134401320E
:100CA00012F8010F01F8010F9A42F9D1F1E70A4A4F
:100CB0000A491344013212F8010F01F8010F93425F
:100CC000F9D1A9E7980B0020981B0020DC00002038
:100CD000990B002001000020970B0020000000204D
:100CE000441C00200008024010B50C4A0C480021AA
:100CF00005F05AFE0B4B0C4A044600210B481C60C1
:100D000005F052FE0A4B0B4A044600210A481C60BB
:100D100005F04AFE094B186010BD00BF789300082B
:100D200021080008940B002030930008E90800080F
:100D30008C0B002054930008F50A0008900B00204B
:100D400010B500248AB0CDE90444CDE906442D4B0A
:100D5000009408941A6B2C4842F004021A631A6B30
:100D600002F004020092009A01941A6B42F0800291
:100D70001A631A6B02F080020192019A02941A6BB4
:100D800042F002021A631A6B02F002020292029A05
:100D900003941A6B42F001021A631B6B03F0010308
:100DA000039322464FF40051039B00F0E3FE4FF4FF
:100DB00000520123CDE9042304A901220023124893
:100DC000CDE9062300F0E4FD48F280024FF404135D
:100DD000CDE9042304A901230C48069300F0D8FDB3
:100DE00022460521172000F0ADFB172000F0E8FB9C
:100DF00022460521282000F0A5FB282000F0E0FB7A
:100E00000AB010BD00380240000802400004024051
:100E100010B50B480B4C0C4900234FF48042C0E93D
:100E20000041C0E90233C0E90423C0E9063303628C
:100E300001F0FCF800B910BDBDE8104000F02CB97D
:100E40009C1B002000540040A086010010B50B48F8
:100E50000B4C0C4900234FF48042C0E90041C0E92B
:100E60000233C0E90423C0E90633036201F0DEF86F
:100E700000B910BDBDE8104000F00EB9F01B002015
:100E8000005C0040A0860100F0B50368384A8DB0D0
:100E900000249342CDE90644CDE908440A9404D0E5
:100EA000344A934227D00DB0F0BD334D01942B6BE3
:100EB000324843F002032B632B6B03F002030193D0
:100EC0004FF440721223CDE9062301220323CDE91A
:100ED000082306A904230A93019A00F059FD0294FD
:100EE0002B6C43F400132B642B6C03F4001302935C
:100EF000029B0DB0F0BD204D03942B6B204843F0B6
:100F000001032B632B6B03F001030393039B0494F6
:100F10002B6B43F002032B632B6B03F00203049350
:100F20004FF480721223CDE906230126049B032788
:100F300006A904230A93CDE9086700F029FD0923D7
:100F40000A93102212230D4806A9CDE90623CDE904
:100F5000086700F01DFD05942B6C43F400032B641F
:100F60002B6C03F400030593059B0DB0F0BD00BF8F
:100F700000540040005C0040003802400004024081
:100F8000000002400000000010B5002394B0CDE93D
:100F90000A33CDE90C33CDE90233CDE904332649D8
:100FA00000930693086C254A40F080500864096C51
:100FB00001F08051009100990193136843F440437C
:100FC000136013689FED167B03F4404302210193E5
:100FD0004FF480001923CDE90E10C022109308A809
:100FE00004238DED087BCDE91121019C139302F0C0
:100FF00047FB08B172B6FEE79FED0B7B8DED027BE0
:101000009FED0B7B0346032102A88DED047B069325
:1010100002F04EFD08B172B6FEE714B010BD00BF7D
:1010200001000000000001000F00000002000000AD
:101030000000000000100000003802400070004076
:1010400008B500F02FFAFFF79FFFFFF779FEFFF7D3
:10105000A1FBFFF7DDFEFFF7F9FE00F08DF900F0D0
:10106000E3F804F0DFF901224FF40051044800F0E6
:1010700081FD05F06DFCFFF737FE05F07BFCFEE718
:1010800000080240034B02689A4200D0704700F00B
:1010900023BA00BF0000014072B6FEE702492522D4
:1010A000002004F06FBA00BFE000002082B00E4BB9
:1010B00000220092596C41F480415964586C00F44C
:1010C0008040009000980192186C40F080501864A5
:1010D0001B6C03F080530193019B0F216FF0010003
:1010E00002B000F02FBA00BF0038024070B588B0DF
:1010F00000251F4B02955A6C1E4C42F001025A64A7
:101100005B6C03F0010301A90293064603A8029B4E
:1011100002F092FD02F080FD174A22600346174854
:10112000256140F2E732E260A0FB03239B0C013B08
:101130002046C4E90135A56102F0A2FD054610B1C3
:10114000284608B070BD204602F018FE054600286B
:10115000F6D1192000F034FA0F2E01D90125EFE75E
:101160002A463146192000F0EDF9054B1E60E7E7ED
:1011700000380240481C00200000014083DE1B4371
:1011800010010020FEE700BFFEE700BFFEE700BF42
:10119000FEE700BFFEE700BF704700BF014800F058
:1011A00007BB00BF941C0020802000F0E9BC00BFFA
:1011B000014803F097B900BF481C00204FF40040DD
:1011C00000F0DEBC014801F049BB00BF401D00201B
:1011D00010B50C4C0C4B0D492268591A2AB1104419
:1011E000884207D82060104610BD094A226010448A
:1011F0008842F7D907F06AFB0C234FF0FF320360F7
:10120000104610BD901C002000000220004000008D
:1012100068740020034AD2F8883043F47003C2F89F
:101220008830704700ED00E010B5314C314A226043
:1012300092B0002377222046CDE90233CDE90A336C
:10124000CDE90C33CDE90E33C4E901331093E260EC
:101250002361A36102F0C6FD00BB002200232448E5
:1012600002A9CDE9022303F02BFAE8B99FED1C7B1C
:1012700000221F480C920AA98DED0A7B0E9202F003
:10128000B3FF70B91B4A216800239142CDE90433B2
:10129000CDE9063308930AD012B010BDFFF7FCFE6B
:1012A000DBE7FFF7F9FEEDE7FFF7F6FEDEE702F515
:1012B0000C320193136B104843F002031363136B5A
:1012C0009FED097B03F00203019304A902238DED36
:1012D000047B019A089300F05BFB12B010BD00BFC5
:1012E000600000000000000040000000020000005C
:1012F000F41C002000080040000402401A4B026861
:101300009A4200D0704730B583B00023174A01934A
:10131000116C174D41F004011164126C1549EB601A
:1013200002F0040201924FF08062C5E900124021F0
:101330004FF48062A9602A614FF400614FF40052BB
:10134000C5E9051204464FF4003201986B62284645
:10135000C5E9073200F042F918B96562AC6303B021
:1013600030BDFFF799FEF8E7000800400038024062
:10137000941C0020106002409FED0F7B124810B5B6
:1013800080ED067B9FED0E7B00234FF0A0440421EF
:10139000022280ED087BC0E90041C0E90323C0E9D7
:1013A0000B3301F0ADF900B910BDBDE81040FFF7F7
:1013B00073BE00BFAFF30080020000000000000019
:1013C0000000000000000000401D002030B5036850
:1013D00089B00024B3F1A04FCDE90244CDE9044423
:1013E000069401D009B030BD174D00942B6B1748FF
:1013F00043F001032B632B6B03F0010300934FF4C5
:10140000C0520223CDE90223032302A905930A2334
:10141000009A069300F0BCFA6B6B43F080036B6399
:1014200001946B6C43F480436B646B6C03F48043F6
:101430002246052101934320019B00F083F84320BD
:1014400000F0BEF809B030BD003802400000024094
:10145000DFF834D00D480E490E4A002302E0D4587C
:10146000C4500433C4188C42F9D30B4A0B4C0023EC
:1014700001E013600432A242FBD3FFF7CBFE07F07A
:101480002BFAFFF7DDFD704700000220000000206E
:1014900008030020749400080803002068740020EA
:1014A000FEE7000008B50B4B1A6842F400721A60A0
:1014B0001A6842F480621A601A6842F480721A60F4
:1014C000032000F02DF80F20FFF710FEFFF7EEFDD0
:1014D000002008BD003C0240034A044B11681B7801
:1014E0000B441360704700BF4C2200200C01002009
:1014F000014B1868704700BF4C22002038B50446E5
:10150000FFF7F6FF631C054602D0044B1B781C4412
:10151000FFF7EEFF431BA342FAD338BD0C010020B6
:101520000749CA6803024FF6FF0003F4E063024074
:10153000134343F0BF6343F40033CB60704700BFF5
:1015400000ED00E01C4BDB68C3F3022300B5C3F1E0
:10155000070EBEF1040F03F1040C28BF4FF0040E78
:10156000BCF1060F1BD9033B4FF0FF3C0CFA03FC08
:1015700022EA0C024FF0FF3C0CFA0EFC21EA0C01AF
:101580009940002841EA02010CDB00F160400901AA
:1015900000F56140C9B280F800135DF804FB002239
:1015A0001346E7E7054B00F00F0009010344C9B2F9
:1015B00019765DF804FB00BF00ED00E0FCEC00E0F4
:1015C000002808DB4109044A00F01F00012303FA48
:1015D00000F042F82100704700E100E038B5044611
:1015E000FFF786FF002C52D023680022022184F8E6
:1015F000351084F834201A6822F0010205461A607A
:1016000005E0FFF775FF431B052B39D823681A68DF
:10161000D107F6D4D4E90120E16802430A43D4E9B2
:101620000451A0692A430A43E1691D6802430A4341
:1016300033492940256A2A430A43616A042928D08C
:101640001A605A6922F007021143D8B22D4A596133
:101650001038A2FB005212092B4923F47F73895CD6
:10166000E16523F003035F2888BF04333F228A40EB
:10167000A36500209A600123606584F8353038BD89
:1016800003232022626584F83530184638BD0120D6
:1016900038BDD4E90B5129430A431A605969A26A3B
:1016A00021F00701114341F00401002DCDD078B1A4
:1016B000B0F5005F16D0022A03D9032AC5D1EA018A
:1016C000C3D501234022626584F83530184638BD01
:1016D000012A03D032F00202B7D1F0E7B5F1C07FA2
:1016E000B3D1EEE7032AB0D801A050F822F000BF32
:1016F000C3160008BF160008C3160008DD16000850
:101700003F8010F0ABAAAAAAB493000870B490F876
:101710003440856D012C35D090F835404FF0010CE8
:10172000644580F834C005D0002380F8343070BCA4
:1017300002207047022680F835600468002646655E
:10174000266826F48026266063608368402B0EBFDF
:10175000A260A160E260C26D08BFE1603F239340D8
:10176000AB602368026C43F0160323601AB1236850
:1017700043F008032360236843F001030020236043
:1017800070BC7047022070BC704700BF90F83530C5
:10179000022B03D080234365012070470268052394
:1017A00080F83530136823F0010300201360704780
:1017B0002DE9F04182B0744A866D156800230193CB
:1017C000C36D346808229A402242804604D00168E2
:1017D0000F68780700F18A8001229A40224204D0E3
:1017E000D8F800104969090678D404229A402242A8
:1017F00004D0D8F8001009688F0767D410229A40E7
:10180000224204D0D8F800100F68380749D42022AB
:101810009A40224217D0D8F800100C68E00612D582
:10182000B26098F83520052A73D00B6813F4802F26
:101830000B6800F09080190340F19B80D8F83C3091
:101840000BB140469847D8F854303BB3D8F85430E1
:10185000DA071BD5D8F800204C49052388F8353025
:101860001368A1FB051523F00103AD0A136002E024
:101870001368DB0704D5019B0133AB420193F7D911
:101880000122002388F8352088F83430D8F84C300D
:1018900023B1404602B0BDE8F041184702B0BDE8B0
:1018A000F081B2600A6812F4802F0A682AD1D70545
:1018B00003D40A6822F008020A60D8F84020002AFF
:1018C000A5D040469047D8F85C30A0E7B260D8F881
:1018D000542042F00402C8F854208FE7B260D8F8D0
:1018E000542042F00202C8F854207EE70F6827F027
:1018F00004070F60B260D8F8542042F00102C8F823
:10190000542069E71203D8D5D8F84820002AD8D146
:101910007DE70A6822F016020A604A6922F0800216
:101920004A61D8F8402052B30A6822F008020A60DF
:101930003F2202FA03F3D8F85010B36001220023CB
:1019400088F8352088F834300029A7D0404602B006
:10195000BDE8F041084713F480737FF46FAF0A6865
:1019600022F010020A60012288F8352088F834300D
:1019700064E7D8F84430002B7FF463AF63E7D8F80E
:101980004820002AD0D1D3E708010020B5814E1BA2
:101990002DE9F04F00220C68704E85B013464FF0D1
:1019A000010A894604E00133102B02F1020278D0CB
:1019B0000AFA03F101EA040BA143F4D1D9F804C0F7
:1019C0000CF003014D1E012D6ED9032940F0AE80AD
:1019D0009140CD4307683D4029431CF4403F0160DE
:1019E000E1D05F4D00210391696C41F4804169644D
:1019F000696C01F480410391039923F0030101F123
:101A0000804101F59C3103F00307D1F808E0BF00E5
:101A10000F25BD402EEA0508524DA84217D005F506
:101A20008065A84200F086804F4DA84200F0878074
:101A30004E4DA84200F08A804D4DA8420CBF4FF099
:101A4000040E4FF0070E0EFA07F748EA0708C1F830
:101A50000880B1686FEA0B071CF4801F0CBF394087
:101A60004BEA0101B160F5681CF4001F0CBF3D405A
:101A70004BEA0505F56075681CF4003F0CBF3D405E
:101A80004BEA0505756031681CF4803F03F10103E2
:101A90000CBF39404BEA0101102B316002F1020208
:101AA00086D105B0BDE8F08FD9F80C50876805FAEB
:101AB00002F8032505FA02FE27EA0E0748EA07079F
:101AC000876047686FEA0E0527EA0B0ECCF3001714
:101AD0009F4047EA0E074760C76807EA050ED9F836
:101AE0000870974047EA0E070229C76001FA02F121
:101AF0007FF470AF4FEAD30E00EB8E0E03F00708B1
:101B0000DEF820700097D9F810704FEA880807FABD
:101B100008F701970F2707FA08F8009F27EA080837
:101B2000019F47EA0807CEF8207053E70325954048
:101B3000ED43D1E70AFA07F748EA070887E74FF0CD
:101B4000020E0EFA07F748EA070880E74FF0030E87
:101B50000EFA07F748EA070879E700BF003C0140A2
:101B6000003802400000024000080240000C024021
:101B70000010024002B9090481617047704700BF3C
:101B8000044A5169014200D1704708B55061FFF71E
:101B9000F5FF08BD003C01402DE9F04F046883B01B
:101BA00098462368DDF83090DDF834B043F4807354
:101BB00006468A4617462360B9F1FF3F35D165696D
:101BC000E807FCD50AF0FE012161B9F1FF3F03D01F
:101BD0004EE061694D055CD461698B07F9D500233E
:101BE000019363690193A3690193019BB9F1FF3FDD
:101BF00040F0878063691A0663D463695B05F9D591
:101C0000002220236FF480616161326386F83D30E9
:101C100086F83E20336C86F83C2043F0040333649E
:101C2000336C042B66D001201FE06369D907C9D447
:101C3000FFF75EFCA0EB0B00814504D3B9F1000F68
:101C400001D03468B8E700232022336386F83D20B2
:101C500086F83E30326C316886F83C3042F0200223
:101C600032640B68DC0535D4032003B0BDE8F08F87
:101C700063699807B3D463695A050AD4FFF738FC3F
:101C8000A0EB0B0081454ED3B9F1000F4BD0346867
:101C90009BE7236843F40073236000226FF48061A4
:101CA00020236161326386F83D3086F83E20336C34
:101CB00086F83C2043F004030120336403B0BDE800
:101CC000F08FB8F1010F09D1FFB20020276103B0F6
:101CD000BDE8F08F4FF400733364C5E73B0A23611E
:101CE000B9F1FF3F2ED163691906EDD463695A0536
:101CF000F9D585E73268136843F400730120136057
:101D0000B3E763691D06DCD4636959053FF578AF15
:101D1000FFF7EEFBA0EB0B00814525D3B9F1000FD7
:101D200022D0346862E700222023326386F83D30F7
:101D300086F83E20336C86F83C2043F02003336461
:101D4000012092E763691B06BED4636958053FF51D
:101D500057AFFFF7CDFBA0EB0B00814504D3B9F1E2
:101D6000000F01D03468BBE700222023326386F8DD
:101D70003D3086F83E20336C86F83C2043F020034B
:101D800033644DE72DE9F04F04689846236843F427
:101D900080632360236883B043F48073DDF830A050
:101DA000DDF83490236006468B461746BAF1FF3FB4
:101DB00039D16569EB07FCD50BF0FE0323615FFAAF
:101DC0008BFBBAF1FF3F03D068E061694A0550D44C
:101DD00061698907F9D50023019363690193A369B8
:101DE0000193019BBAF1FF3F40F0B8806369180688
:101DF00067D463695905F9D5002220236FF4806107
:101E00006161326386F83D3086F83E20336C86F897
:101E10003C2043F004033364336C042B6CD001206A
:101E200003B0BDE8F08F6369DD07C5D4FFF760FB41
:101E3000A0EB0900824504D3BAF1000F01D0346849
:101E4000B4E700232022336386F83D2086F83E3035
:101E5000326C316886F83C3042F0200232640B6804
:101E6000DC0502D54FF400733364032003B0BDE8F2
:101E7000F08F236843F400732360002220236FF463
:101E800080616161326386F83D3086F83E20336CB4
:101E900086F83C2043F004033364C0E763699B0782
:101EA00099D463695805E4D4FFF722FBA0EB09003D
:101EB0008245C0F08B80BAF1000F00F08780346853
:101EC0007FE7B8F1010F0BD1FFB22761BAF1FF3FF5
:101ED0006AD163691B0616D463695F05F9D58BE780
:101EE0003B0A2361BAF1FF3F7FD163691D06EBD442
:101EF00063695805F9D57FE73268136843F40073C6
:101F0000012013608CE7236843F480732360BAF1E7
:101F1000FF3F13D16369D807FCD54BF00103236160
:101F2000BAF1FF3F03D02BE063695B05A1D463697D
:101F3000DB4313F00203F7D1184671E76369D90751
:101F4000EBD4FFF7D5FAA0EB09008245FFF479AF97
:101F5000BAF1000F3FF475AF3468D8E763691A0629
:101F6000AFD463695D053FF547AFFFF7C1FAA0EB5A
:101F7000090082454CD3BAF1000F49D0346831E7EB
:101F80006369DB4313F00203D6D063695A053FF55A
:101F900070AFFFF7ADFAA0EB0900824516D3BAF196
:101FA000000F13D03468BBE763691D06ABD46369C7
:101FB0005A053FF521AFFFF79BFAA0EB09008245D8
:101FC00026D3BAF1000F23D034687FE70022202304
:101FD000326386F83D3086F83E20336C86F83C202C
:101FE00043F02003336401201AE7636919063FF5C3
:101FF0006BAF63695B053FF5FFAEFFF779FAA0EBC6
:102000000900824504D3BAF1000F01D0346869E7B2
:1020100000222023326386F83D3086F83E20336C60
:1020200086F83C2043F020033364F5E6002800F0F6
:10203000B98070B590F83D30044603F0FF02002BE4
:1020400000F098802368242284F83D201A6822F04A
:1020500001021A601A6842F400421A601A6822F4F7
:1020600000421A6001F0C8FD63684F498B424FD8A7
:102070004E4A90427CD94E4D5A00A5FB0035431E76
:10208000B3FBF2F32268506820F03F0040EA95402D
:102090005060A90C01F1010C116A21F03F0141EAE5
:1020A0000C011162D16940F6FC7E013321F44F41ED
:1020B00013EA0E0F21F0FF0161D104230B43D3611A
:1020C000D4E907301168034321F0C0010B431360CA
:1020D0009168D4E9030321F40341034321F0FF0194
:1020E0000B439360D4E90530D168034321F0FF012D
:1020F0000B43D3601168002341F0010120201160DF
:10210000236484F83D00236384F83E30184670BD94
:10211000284A90422CD9264D274EA5FB002C226838
:10212000556825F03F0545EA9C4555604FEA9C41BE
:102130004FF4967505FB01F1A6FB0151156A89095B
:1021400025F03F05013129431162D169A56821F4C9
:102150004F4121F0FF01ADB9013803EB4303B0FB60
:10216000F3F30133C3F30B03D3B143F40043A5E707
:10217000012070BD80F83C20FEF786FE62E7C3F3C5
:102180000B039BE703EB8303013803EB8303B0FBF3
:10219000F3F30133C3F30B0313B143F440438DE76F
:1021A00001238BE701207047A08601007F841E0079
:1021B00083DE1B43FF083D00D34D62102DE9F04F35
:1021C000044683B09946BDF834A00E9E0F46904653
:1021D000FFF78EF994F83D30202B04D002273846C3
:1021E00003B0BDE8F08F054605E0FFF781F9401B1D
:1021F000192800F2AA80206883696FEA030C1CF09A
:10220000020BF2D094F83C30012BE7D0012384F884
:102210003C300368DB0771D53946076827F400674F
:1022200007600C9860622120CDE9006584F83D00CC
:10223000402084F83E0000202064A4F82AA0608D8D
:1022400020855748E0624B4642462046FFF7A4FCF3
:102250000746F8B9238D002B00F0A0802368721C7C
:1022600058D15A6910061AD45A695105F9D5002275
:102270006FF4806020215861226384F83D1084F857
:102280003E20236C84F83C2043F004032364236C39
:10229000042B38D00127384603B0BDE8F08FD4F8BE
:1022A00024C0B4F828E061460EF1FF3011F8012B8C
:1022B0001A61628D6162013A92B2628582B2586996
:1022C0002285400717D542B9721C59D15A69500767
:1022D00049D45A695105F9D5C9E79CF8011019612B
:1022E0000CF102016162618DAEF10202013992B21C
:1022F00089B222856185002AB1D1E5E7036843F000
:102300000103036088E72268136843F40073012720
:10231000136064E75A691206C1D45A695105A6D4FC
:10232000FFF7E6F8401B864201D3002E96D100222B
:102330002023226384F83D3084F83E20236C84F807
:102340003C2043F020032364A1E72023C4F830B0ED
:1023500084F83D3084F83EB0236C84F83CB043F000
:10236000200323643AE71A68002142F40072202017
:102370001A6084F83D0084F83C1084F83E102EE783
:102380005A695207EFD45A6951053FF570AFFFF70C
:10239000AFF8401B8642CAD3002EC8D0236893E70B
:1023A0000000FFFF2DE9F04F044687B09946BDF8C5
:1023B00044A0129D0F469046FFF79AF894F83D30DE
:1023C000202B04D00227384607B0BDE8F08F064620
:1023D00005E0FFF78DF8801B192800F2D280D4F8B1
:1023E00000C0DCF81800C04310F0020BF1D094F8E4
:1023F0003C30012BE6D0012384F83C30DCF800307F
:10240000D90737D5DCF8000020F40060CCF80000D4
:10241000109860622220CDE9005684F83D004020EB
:1024200084F83E0000202064A4F82AA0608D208556
:102430009348E06239464B4642462046FFF7A2FCED
:102440000746002840F0AB80228DD2B92368029065
:102450005A6902929A690292029A1A6842F40072C8
:102460001A600023202284F83D2084F83C3084F850
:102470003E30A8E7DCF8003043F00103CCF8003030
:10248000C0E7012A00F02C81022A00F0BD802368F9
:10249000059059690591996905910599032A49D8CB
:1024A000012A00F0EB80022A00F08980691C40F0CC
:1024B000BB805A695207FCD51A68616A22F48062AF
:1024C0001A601B690B70638D616A228D013B0131BB
:1024D000013A9BB2616222856385691C226840F0E3
:1024E000AF8053695B07FCD51368616A43F40073DE
:1024F000136013690B70638D228D606A2168013B44
:102500009BB263850969531E00F1010C2385C4F851
:1025100024C04170228D638D616A013A013B013113
:1025200092B29BB2616222856385002A99D0032A08
:102530002368B5D95DB9C5E05A69D00600F1B2800B
:10254000FEF7D6FF801B8542C0F0868023685A695B
:102550005206F1D5626A1B691370638D2068228D63
:10256000616A013B9BB263854369013A92B201F112
:10257000010C5B072285C4F824C0D6D503694B70D3
:1025800036E02023C4F830B084F83D3084F83EB003
:10259000236C84F83CB043F02003236412E7012746
:1025A000384607B0BDE8F08F5A6950070CD4FEF7E3
:1025B0009FFF801B85424FD3002D4DD02368691C9F
:1025C000F2D15A695207FCD51A6842F400721A60B7
:1025D0001A69636A1A70638D626A013B9BB26385F4
:1025E000238D013B23852368511C1B696162537055
:1025F000636A228D01336362638D013A013B92B2BB
:102600009BB22285638590E72368196821F4806175
:102610001960196841F400611960049059690491C6
:1026200099690491049939E75A6950073FF544AF15
:10263000FEF75EFF801B85420ED36DB1236835E740
:10264000536958073FF550AFFEF752FF801B854294
:1026500002D3002D7FF441AF00222023226384F8AF
:102660003D3084F83E20236C84F83C20012743F061
:1026700020033846236407B0BDE8F08F5DB92BE036
:102680000000FFFF5A69D2060CD4FEF731FF801B11
:102690008542E1D323685A695106F3D51A69636A02
:1026A0001A70A5E700226FF0100020215861226304
:1026B00084F83D1084F83E20236C236484F83C2089
:1026C000012780E65A6952063FF544AF5A69D106A0
:1026D000E8D4FEF70DFFBFE75A695006F6D5DDE7EF
:1026E0002368196821F48061196003905969039186
:1026F000996903910399196841F400711960CDE655
:10270000F0B58BB0002800F0858090F8BD340468E7
:10271000054603F0FF02002B76D02046032385F800
:10272000BD34E36B2E4613F4807308BF2B6102F0B7
:1027300007F956F810EBB446BCE80F006C460FC41E
:10274000BCE80F000FC49CE8030084E803002F1DC1
:1027500097E80E00704601F0EFFF044630B1012407
:102760000223204685F8BD340BB0F0BD0146286831
:1027700002F0EEF8686858B322464FF0010E214689
:1027800002EBC20305EB830302F1010C83F83C204A
:10279000A3F844205FFA8CF28242C3E9121183F855
:1027A0003DE083F840105965EAD3002204EBC403EE
:1027B00005EB8303611C83F87C42CCB28442C3E9FD
:1027C000A22283F87D2283F88022C3F89422EDD3DD
:1027D0000FCE6C460FC40FCE0FC496E8030084E8FA
:1027E000030097E80E00286802F0EAF80446002883
:1027F000B5D1012385F83800286885F8BD3402F08A
:1028000091FD20460BB0F0BD80F8BC24FEF7DEFD44
:10281000286883E7012420460BB0F0BD10B590F87E
:10282000BC34012B0446006816D0A36A01229342EF
:1028300084F8BC2408D002F07BF8206802F062FD26
:10284000002084F8BC0410BDA3699342F3D0836BCD
:1028500043F480338363EEE7022010BD2DE9F04F8F
:10286000056889B00446284602F09AFD10B109B007
:10287000BDE8F08F8346206802F064FD0028F6D0A2
:10288000D5F808382068C3F30D23C4F8FC3402F0EF
:1028900059FD10F0020F206805F5006303931EBF79
:1028A000436903F00203436102F04CFD10F0100F86
:1028B000206812D0836923F0100383612E6AC6F367
:1028C0004343022B06F00F0700F0CB83062B00F0EA
:1028D0000783836943F01003836102F033FD07032C
:1028E00000F16982206802F02DFD460300F111829B
:1028F000206802F027FD0028C0F28281206802F0E3
:1029000021FD070500F13D81206802F01BFDC00498
:1029100000F1A081206802F015FD10F4005F20682E
:1029200040F0818102F00EFD010700F1E98120688D
:1029300002F008FD020671D5AA69636822F08002E0
:10294000012BAA616AD994F8A322012A00F0EA8334
:10295000022B63D994F8C722012A00F0FE83032BCF
:102960005CD994F8EB22012A00F0B382042B55D9EC
:1029700094F80F23012A00F0C682052B4ED994F853
:102980003323012A00F02684062B47D994F85723D5
:10299000012A00F03384072B40D994F87B23012AC5
:1029A00000F04A84082B39D994F89F23012A00F0BB
:1029B0005784092B32D994F8C323012A00F0648488
:1029C0000A2B2BD994F8E723012A00F071840B2BF2
:1029D00024D994F80B24012A00F07E840C2B1DD9F5
:1029E00094F82F24012A00F07F840D2B16D994F837
:1029F0005324012A00F09F840E2B0FD994F87724DA
:102A0000012A00F0A6840F2B08D994F89B34012BDF
:102A100004D1206804F5936102F088FB206802F07D
:102A200091FCC30240F1AB806368012B40F28980C6
:102A300094F86420D5F82019012A00F01382022BA3
:102A40007FD994F88820D5F84019012A00F01D821A
:102A5000032B76D994F8AC20D5F86019012A00F040
:102A60002082042B6DD994F8D020D5F88019012A42
:102A700000F02382052B64D994F8F420D5F8A0192E
:102A8000012A00F04383062B5BD994F81821D5F86E
:102A9000C019012A00F05583072B52D994F83C2124
:102AA000D5F8E019012A00F06083082B49D994F881
:102AB0006021D5F8001A012A00F06383092B40D960
:102AC00094F88421D5F8201A012A00F06E830A2B8D
:102AD00037D994F8A821D5F8401A012A00F082834A
:102AE0000B2B2ED994F8CC21D5F8601A012A00F0CE
:102AF00097830C2B25D994F8F021D5F8801A012A58
:102B000000F0A2830D2B1CD994F81422D5F8A01A3A
:102B1000012A00F0AD830E2B13D994F83822D5F892
:102B2000C01A012A00F0B8830F2B0AD994F85C224E
:102B3000D5F8E01A012A00F0C383102B01D9D5F88B
:102B4000003B2068436903F48013436102F0FAFB01
:102B5000870221D4206802F0F5FB400000F1C78015
:102B6000206802F0EFFB41077FF581AE23685D68C6
:102B70006A0700F197825A682A435A6077E620680C
:102B8000E4E7039B9B68DE0700F1888220684369C5
:102B900003F400634361B8E6D4F804C0BCF1010F4C
:102BA00028D905F532622346012106E0013161454D
:102BB00002F1200203F124031CD093F8A40216684A
:102BC0000128F3D1002EF1DAD4F8FC7406F4803633
:102BD00007F00107BE42E9D183F8A302A86940F0DB
:102BE0008000A86168690606E0D4039A536843F43C
:102BF000007353602068436903F400134361AAE73C
:102C0000039A536823F00103536094F8F434012BC2
:102C100000F03481204603F0BFFD2068436903F0D3
:102C2000004343616BE602F0BFFB206802F00CF842
:102C3000E060266800F0DAFF227B0146304601F0B2
:102C4000FDFD204603F07AFD2068436903F400533C
:102C5000436167E6039A2068536823F001035360D9
:102C6000102101F0C7FF6068E0B105F510634FF671
:102C70007F3199601A6822F400121A60C3F80812B2
:102C8000D3F8002222F40012C3F80022D3F8002265
:102C90000BF1010B42F000628345C3F8002203F1FF
:102CA0002003E6D10399226BCB6943F00113CB617A
:102CB000002A40F0CC804B6943F4005343F02B03CF
:102CC0004B610B6943F00B030B61D5F80038217C95
:102CD000206823F4FE63C5F8003804F2C44202F011
:102CE00075FB2068436903F48053436113E6204673
:102CF00003F05EFD2068436903F08043436130E7E1
:102D0000204603F017FD2068436903F00803436180
:102D10000EE6206802F022FB804600283FF4E8AD72
:102D20004FF0000A20680495274605F510695646BD
:102D3000CDF814B009E05FEA580806F1010607F182
:102D4000240709F1200900F0E58018F0010FF2D006
:102D50005FFA86FA514602F013FBC207054613D507
:102D6000039901204B6B06F00F0200FA02F223EAEE
:102D700002034B632169C9F80800814200F0978182
:102D80005146204603F0CCFC2B0744BF0823C9F86A
:102D90000830E80644BF1023C9F80830690644BF6C
:102DA0004023C9F80830AA0700F14E812B0600F134
:102DB000F5802068BFE7206802F0C8FA06460028C0
:102DC0003FF490AD05F53067A2464FF00009CDF80D
:102DD00010B008E0760809F1010907F120070AF1AF
:102DE000240A00F09A80F007F4D55FFA89FB206886
:102DF000594602F0BBFA10F0010F804640F0AF8058
:102E000018F0080F40F08C8018F0100F1CBF102233
:102E1000BA6018F0020F0ED06A69110604D5039B40
:102E20005A6842F480625A609AF87F22012A00F0C0
:102E300080810223BB6018F0200F1CBF2023BB60E1
:102E400018F4005F1CBF4FF40053BB60C2E7D1F819
:102E5000843043F00B03C1F884304B6C43F00B0318
:102E60004B6432E70029BFF6EAAD214684F86320BF
:102E700051F8600B02F05AF96368E0E5002184F82C
:102E8000F414204600F0FAFBC7E60029BFF6E0ADD7
:102E9000214684F8872051F8840B02F047F96368D3
:102EA000D6E50029BFF6DDAD214684F8AB2051F808
:102EB000A80B02F03BF96368D3E50029BFF6DAAD51
:102EC000214684F8CF2051F8CC0B02F02FF963682B
:102ED000D0E5206804F53A7102F028F9636845E509
:102EE000082204F2C441284607EBC70702F078F92C
:102EF00004EB8702C6F30A13D2F89C1220680B4435
:102F0000C2F89C32E5E4206804F5437102F00EF942
:102F1000636832E5DDE9045BEBE4DDF810B0E1E481
:102F20002168BD4B0822BA6001F53062096C02EBE2
:102F300049129942906840F2CB80000402D54FF4C8
:102F400000419160204603F0DBFB216901297FF4F9
:102F50005BAF206804F2C44202F038FA54E72068FC
:102F600021690122BA6000F5306202EB49120129A1
:102F7000D0F840C0936800F0AF80A8498C4500F0BD
:102F80000C81B9F1000F04D1D4F89422002A00F08A
:102F9000DA815946204603F0B9FB31E7FB6D7D6DC0
:102FA000D4F800B0AB4258463FF6C5AE0BF5106200
:102FB00002EB461211469646BA6C8969CDF81CB0F0
:102FC000A5EB030C624528BF624689B20332B1EB20
:102FD000920FC0F0978052460696CA462646C146D2
:102FE0007446904619E0ED1ABB6CF96C9D4228BFFF
:102FF0001D46337C00934246ABB2584602F0DAF8E5
:10300000FB6CA1692B44FB64FB6D89B22B44033537
:10301000B1EB950FFB656DD37D6D9D42E3D83446D2
:10302000069ED4F800B0C846D146079B06F00F02B2
:1030300003F500610125D3F8343805FA02F223EADA
:10304000020358464B6376E60498314601F0D2FD00
:1030500097F83F30012B00F0B4800223C9F8083004
:10306000A4E647F6F0731E423FF433AC07EBC70704
:1030700004EB8707C6F30A12D7F88C1228461646C7
:1030800002F0AEF8D7F88C3220683344C7F88C329F
:10309000D7F89C323344C7F89C321AE4204603F038
:1030A00063FB73E5204603F087FB236863E5D7E9FC
:1030B00012231344FB64002E7FF462AE636D002B79
:1030C0007FF45EAE206804F2C44202F07FF957E656
:1030D000204603F015FB97E6190740F197804E490B
:1030E0008C457FF68DAE18047FF58AAE4FF4004113
:1030F000916085E634467D6DD4F800B0069EC846E2
:103100005846D146AB42FFF416AE8EE70029BFF613
:10311000BAAC214684F8F32051F8F00B02F006F81F
:103120006368B0E4206804F5287101F0FFFF63686C
:103130000EE4002359468AF87F32204603F030FB24
:1031400077E60029BFF6A8AC206884F8172104F5BB
:103150008A7101F0EBFF63689EE4206804F5317129
:1031600001F0E4FF6368FFF7FABB0029BFF69DACEE
:10317000206884F83B2104F59C7101F0D7FF636857
:1031800093E40029BFF69AAC206884F85F2104F527
:10319000AE7101F0CBFF636890E41904A6D49B06DE
:1031A0007FF5F7AE20219160F3E60029BFF68FACE2
:1031B000206884F8832104F5C07101F0B7FF6368CB
:1031C00085E44FF0000387F83F305146204603F076
:1031D000EBFA42E7206804F54C7101F0A7FF636841
:1031E000FFF7D2BB0029BFF67BAC206884F8A7218B
:1031F00004F5D27101F09AFF636871E4206804F568
:10320000557101F093FF6368FFF7C5BB990673D54D
:1032100020219160F4E500BF0A30544F0A31544F29
:103220000029BFF666AC206884F8CB2104F5E47170
:1032300001F07CFF63685CE4206804F55E7101F0D6
:1032400075FF6368FFF7AEBB0029BFF65BAC206873
:1032500084F8EF2104F5F67101F068FF636851E42A
:10326000206804F5677101F061FF6368FFF7A1BB97
:103270000029BFF650AC206884F8132204F50471CD
:1032800001F054FF636846E4206804F5707101F0B2
:103290004DFF6368FFF794BB0029BFF645AC20687B
:1032A00084F8372204F50D7101F040FF63683BE4B8
:1032B000206804F5797101F039FF6368FFF787BB77
:1032C0000029BFF63AAC206884F85B2204F5167139
:1032D00001F02CFF636830E4206804F5816101F09F
:1032E00025FF6368FFF77ABB206804F22C4101F0E8
:1032F0001DFF6368FFF779BB13F0280F7FF480ADE3
:103300001B498C4502D91B043FF5F0AE1169DAF870
:103310009822C1F31201521ACAF89C22B9F1000F87
:103320007FF437AED4F89412D9B1D4F88C120A4491
:10333000C4F88C222DE6206804F58A6101F0F6FEBF
:103340006368FFF759BB04F2C442494602F03EF8F5
:103350001FE6206804F2744101F0E8FE6368FFF79D
:1033600052BB04F2C442012102F030F811E600BF62
:103370000A30544F90F8BC24012A0DD010B50446F1
:103380000122006884F8BC2484F8381001F0AAFFF8
:10339000002084F8BC0410BD0220704710B501F075
:1033A0000F0E0906044627D44FF0240C0CFB0E0C1C
:1033B0000CF51F710EEBCE0C00EB8C0C00208CF882
:1033C0007D02CA604A7881F800E00B710AB1A1F869
:1033D00008E0022B04BF00234B7194F8BC34012B8E
:1033E00018D0012384F8BC34206801F039FC002394
:1033F00084F8BC34184610BD242000FB0E4000F1B8
:103400003C010EEBCE0004EB80004FF0010C80F885
:103410003DC0D6E7022010BD01F00F0303EBC3024D
:1034200011F0800F4FF0240110B500EB820204462A
:1034300001FB030113D101F51F71002082F87D0209
:103440000B7094F8BC34012B12D00123206884F84F
:10345000BC3401F051FC002084F8BC0410BD3C31A8
:10346000012082F83D000B7094F8BC34012BECD1A4
:10347000022010BD10B501F00F0404EBC40C00EBEA
:103480008C0C2421CCF894320023CCF88C228CF8BC
:103490007C42CCF89C328CF87D32036901FB04013C
:1034A000012B08BFCCF89022006801F51F71DAB239
:1034B0001CB901F08FFD002010BD01F07FFC002041
:1034C00010BD00BF01F00F0101EBC10100EB810154
:1034D000D1F89C02704700BF10B501F00F0404EB57
:1034E000C40C00EB8C0C2421CCF854300023CCF815
:1034F0005C300123CCF84C208CF83C408CF83D30FB
:10350000036901FB0401012B08BFCCF850200068BF
:103510003C31DAB21CB901F05DFD002010BD01F0B4
:103520004DFC002010BD00BF38B5436801F00F0509
:103530009D4233D80B0604461CD401EBC103242260
:1035400002FB010100EB830301F51F71002283F8E8
:103550007D2201238B700D7094F8BC249A421BD0FD
:10356000206884F8BC3401F063FECDB1002084F8FB
:10357000BC0438BD05EBC503242101FB050100EBAC
:10358000830301223C3183F83D2001238B700D70B1
:1035900094F8BC249A42E3D1022038BD012038BD02
:1035A000217C206804F2C44201F010FFDEE700BF76
:1035B000426838B501F00F0393422ED803EBC302E3
:1035C00011F0800F4FF02401044600EB820201FB52
:1035D000030115D101F51F710020002582F87D023D
:1035E0008D700B7094F8BC34012B14D0012320682B
:1035F00084F8BC3401F04AFE84F8BC54284638BD37
:103600003C310120002582F83D008D700B7094F84C
:10361000BC34012BEAD1022038BD012038BD00BFE7
:1036200010B40468606A31B940EA0240A062002028
:103630005DF8044B7047A36AB1F1010C00EB134035
:103640000BD0002303F1400104EB810101334968F1
:10365000DBB2634500EB1140F4D30CF1400C04EBFA
:103660008C0C40EA0240CCF804005DF8044B0020CA
:10367000704700BF0368002059627047704700BF61
:10368000002800F0A2812DE9F0410368DD0782B037
:1036900004462FD59E498A6802F00C02042A00F0E5
:1036A000ED808A6802F00C02082A00F0E38063686B
:1036B000B3F5803F00F0EC80B3F5A02F00F07581EA
:1036C000934D2A6822F480322A602A6822F48022EC
:1036D0002A60002B40F0E180FDF70AFF064605E076
:1036E000FDF706FF801B642800F201812B689B0315
:1036F000F6D423689F0728D5854A916811F00C0FEE
:1037000000F09080916801F00C01082900F086809B
:10371000E368002B00F00E817E4B7D4E01221A6083
:10372000FDF7E6FE054605E0FDF7E2FE401B022838
:1037300000F2DD8033689807F6D53368226923F0FC
:10374000F80343EAC203336023681A0751D45807C9
:103750002FD56F4A136C13F080537FD000256E4E27
:103760003368D90540F1B380A368012B00F0C38012
:10377000052B00F02C81664E326F22F00102326779
:10378000326F22F004023267002B40F0B980FDF75F
:10379000AFFE41F28838074605E0FDF7A9FEC01BE1
:1037A000404500F2A480336F9807F6D4002D40F016
:1037B0000681A069C8B1564DAB6803F00C03082B15
:1037C00000F0C980534B002202281A6600F00981DC
:1037D000FDF78EFE044605E0FDF78AFE001B022879
:1037E00000F285802B689B01F6D4002002B0BDE872
:1037F000F08163690BB3474B454E0122C3F8802E1D
:10380000FDF776FE054604E0FDF772FE401B022838
:103810006DD8736F9B07F7D5236898E752685602F7
:103820003FF576AF3A4A1268950744D5E268012A17
:1038300041D0012002B0BDE8F081364A344EC2F8D2
:10384000803EFDF755FE054604E0FDF751FE401BA6
:1038500002284CD8736F9F07F7D4DDE70193136CF0
:1038600043F080531364136C03F080530193019B66
:10387000012574E74A6850027FF519AF244A12689F
:1038800091037FF537AF6268002A7FF433AFD0E74A
:103890001F4A136843F480331360FDF729FE1C4E62
:1038A000054604E0FDF724FE401B64281FD833685A
:1038B0009A03F7D51DE7164920690A6822F0F80235
:1038C00042EAC0020A601A077FF541AF91E7336808
:1038D00043F480733360FDF70BFE07463368DA0567
:1038E0003FF542AFFDF704FEC01B0228F6D90320C6
:1038F00002B0BDE8F081064A136F43F0010313677D
:10390000FDF7F6FD024F064641F288380BE000BF96
:10391000003802400000474200700040FDF7E8FD1B
:10392000801B4045E3D83B6F9B07F7D5002D3FF444
:1039300040AF44E0424A434E1360FDF7D9FD0546CF
:1039400004E0FDF7D5FD401B0228D0D83368990765
:10395000F7D42368F9E601283FF448AF6B68E269C1
:1039600003F4800191427FF464AF226A03F03F01C7
:1039700091427FF45EAF616A47F6C0721A40B2EBC3
:10398000811F7FF456AFA26A520803F44031013A16
:10399000B1EB024F7FF44DAFE26A03F07063B3EB1B
:1039A000026F14BF0120002020E7264B1A6842F462
:1039B00080221A601A6842F480321A606DE7214A48
:1039C000136C23F080531364F3E6012070471D4B02
:1039D0001A6F42F004021A671A6F42F001021A6766
:1039E0008EE7FDF785FD064605E0FDF781FD801BAE
:1039F00002283FF67CAF2B689901F6D4D4E9073151
:103A0000626A0B4343EA8213D4E90A21520843EA6B
:103A10000163013A0A4943EA024301226B600A66E4
:103A2000FDF766FD074D044605E0FDF761FD001B4F
:103A300002283FF65CAF2B689A01F6D5D5E600BFA9
:103A40000000474200380240164908B58B6803F071
:103A50000C03042B1BD0082B17D14A684B6849680C
:103A600013F4800302F03F0213D10F48C1F3881111
:103A7000A1FB0001FCF704FC0A4B5B68C3F30143A4
:103A800001335B00B0FBF3F008BD074808BD0748F1
:103A900008BD0648C1F388110023A1FB0001FCF713
:103AA000EFFBE9E7003802400024F40040787D0194
:103AB000002800F08780484A136803F007038B4210
:103AC0002DE9F0410D46044609D2CBB213701368BC
:103AD00003F007038B4202D00120BDE8F081236888
:103AE000980714D5590704D53C498A6842F4E05236
:103AF0008A601A0704D539498A6842F460428A60AC
:103B00003649A0688A6822F0F00202438A60DF0723
:103B100021D56268012A57D0931E012B2F4B1B68B9
:103B20004DD99907D8D52D4EB36823F0030313431D
:103B3000B360FDF7DDFC41F28838074604E0FDF78D
:103B4000D7FCC01B404544D8B368626803F00C033F
:103B5000B3EB820FF3D1204A136803F00703AB42A3
:103B600006D9EBB21370136803F00703AB42B3D16D
:103B700023685A0706D51949E0688A6822F4E0529A
:103B800002438A601B0707D5144A2169936823F40E
:103B9000604343EAC1039360FFF756FF0F4A104C9E
:103BA00092681049C2F303120346A25C0E48D34048
:103BB00000680B60FDF79AFA0020BDE8F0819801DB
:103BC000B1D489E701207047044B1B689E03AAD437
:103BD00082E7032081E700BF003C0240003802403A
:103BE0009C9300080801002010010020014B186878
:103BF000704700BF08010020044B05499B68054A37
:103C00000868C3F38223D35CD84070470038024071
:103C100008010020AC930008044B05499B68054A45
:103C20000868C3F34233D35CD84070470038024081
:103C300008010020AC9300080E4B0F2202609A6826
:103C400002F0030242609A6802F0F00282609A6811
:103C500002F4E052C2609B68DB0810B403F4E05346
:103C6000054C036123685DF8044B03F007030B6008
:103C7000704700BF00380240003C0240704700BF60
:103C8000002876D010B590F83D30044603F0FF02CE
:103C9000002B55D022683849022384F83D308A42EF
:103CA000136852D0B2F1804F21D0A1F57C418A42F5
:103CB0001DD001F580618A4219D001F580618A42E8
:103CC00015D001F59A318A4215D001F580618A42FA
:103CD00011D001F580618A420DD0A069E16823F01E
:103CE0008003034313606368D162936210E0A168AC
:103CF00023F070030B432069A16923F4407303434D
:103D000023F08003E0680B4361681360D062916226
:103D10000123536184F8463084F83E3084F83F3004
:103D200084F8403084F8413084F8423084F84330DD
:103D300084F8443084F8453084F83D30002010BDCC
:103D400080F83C20FFF79AFFA4E7A068216923F0E0
:103D50007003034323F440730B43A16923F08003F2
:103D60000B431360E368D362636893626369136310
:103D7000CEE70120704700BF0000014090F83D30C1
:103D8000012B27D103681549022280F83D20DA680B
:103D90008B4242F00102DA6011D0B3F1804F0ED0B5
:103DA0000F4A93420BD002F58062934207D002F58E
:103DB0008062934203D002F59A32934204D19A680A
:103DC00002F00702062A07D01A6842F0010200201A
:103DD0001A607047012070470020704700000140C2
:103DE00000040040002876D010B590F83D3004461D
:103DF00003F0FF02002B55D022683849022384F8D3
:103E00003D308A42136852D0B2F1804F21D0A1F5E3
:103E10007C418A421DD001F580618A4219D001F5AA
:103E200080618A4215D001F59A318A4215D001F598
:103E300080618A4211D001F580618A420DD0A0696B
:103E4000E16823F08003034313606368D1629362E7
:103E500010E0A16823F070030B432069A16923F4EB
:103E60004073034323F08003E0680B4361681360F1
:103E7000D06291620123536184F8463084F83E3069
:103E800084F83F3084F8403084F8413084F8423080
:103E900084F8433084F8443084F8453084F83D3069
:103EA000002010BD80F83C20FDF728FAA4E7A068A8
:103EB000216923F07003034323F440730B43A1698A
:103EC00023F080030B431360E368D362636893625B
:103ED00063691363CEE70120704700BF0000014013
:103EE00070B505460C46002940F0828090F83E10DF
:103EF0000229C8B24FD095F83E10A1F10101B1FAE4
:103F000081F14909002949D0002A45D0002C47D128
:103F1000022185F83E10686A744E11462A68C6630D
:103F2000734E0664734EC6643432FDF7EFFB00280F
:103F300034D12B68DA6842F40072DA60186A012220
:103F400004F01F0402FA04F420EA04001862196A5B
:103F5000694A0C4393421C6200F0C180B3F1804F68
:103F60000ED0664A93420BD002F58062934207D08E
:103F700002F58062934203D002F59A32934205D152
:103F80009A6802F00702062A00F0AE801A6842F032
:103F9000010200201A6070BD002BB7D0012070BD57
:103FA000042C60D0082C4FF0020146D085F8411057
:103FB0000C2CF3D801A151F824F000BF173F0008E2
:103FC0009D3F00089D3F00089D3F00086D40000890
:103FD0009D3F00089D3F00089D3F00089D3F000851
:103FE0009D3F00089D3F00089D3F00089540000848
:103FF000042964D008290CBF90F8401090F84110B3
:10400000A1F10201B1FA81F1490979B9002C3FF41B
:1040100072AF042C5BD0082C0AD095F8411001290E
:10402000BCD1002ABED1002BBCD0B7E7022070BDA6
:1040300095F840100129F4D0B0E7E86A2B4E85F8D6
:10404000401011462A68C663294E0664294EC6648C
:104050003C32FDF75BFB0028A0D12B68DA6842F404
:104060000062DA606AE7022185F83F10A86A1F4EF5
:1040700011462A68C6631E4E06641E4EC664383258
:10408000FDF744FB002889D12B68DA6842F480628E
:10409000DA6053E7286B154E11462A68C663144E42
:1040A0000664144EC6644032FDF730FB00287FF4EE
:1040B00075AF2B68DA6842F48052DA603EE790F818
:1040C0003F10A1F10201B1FA81F149099DE795F88C
:1040D0003F10A1F10101B1FA81F1490912E75A6CCF
:1040E00042F400425A644BE7002070BDFD430008D3
:1040F000854400083D4600080000014000040040DF
:1041000038B50C4605460C2908D8DFE801F045070C
:1041100007073C070707330707070900012038BDD9
:104120000268006BD36823F48053D360FDF72EFB45
:104130002B6804F01F001A6A0121814022EA010263
:104140001A62284A196A1962934238D0196A41F2F0
:104150001112114208D1196A40F24442114203D1AE
:104160001A6822F001021A600123F4B985F83E3082
:10417000204638BD0268C06AD36823F40063D36068
:10418000FDF704FBD4E70268806AD36823F48063F8
:10419000D360FDF7FBFACBE70268406AD36823F4EB
:1041A0000073D360FDF7F2FAC2E7042C16D0082C96
:1041B0000CBF85F8403085F84130002038BD196AC1
:1041C00041F211121142C1D1196A40F24442114226
:1041D000BCD15A6C22F400425A64B7E785F83F30EC
:1041E000002038BD0000014090F83C30012B00F069
:1041F000CA800123F0B480F83C300C2A08D8DFE8EC
:1042000002F03D07070768070707960707070E0034
:10421000002380F83C3001221046F0BC7047036850
:104220000E681A6A22F480521A621A6A5D68DC69A2
:1042300024F4E64444EA06248E6822F4005242EA5A
:1042400006326B4EB34200F0BD805D60DC614C68AD
:104250001C641A62DA690D6942F40062DA61DC6991
:1042600024F48064DC61D96941EA0521D961002325
:1042700080F83C3000221046F0BC704703680E689E
:104280001A6A22F001021A621A6A5D689C6924F0B7
:10429000730434438E6822F002023243544EB34218
:1042A00074D05D609C614C685C631A629A690D69A8
:1042B00042F008029A619C6924F004049C619969A7
:1042C00029439961002380F83C3000221046F0BC5D
:1042D000704703680E681A6A22F010021A621A6A9E
:1042E0005D689C6924F4E64444EA06248E6822F062
:1042F000200242EA06123E4EB34254D05D609C61F9
:104300004C689C631A629A690D6942F400629A6172
:104310009C6924F480649C61996941EA0521996152
:10432000002380F83C3000221046F0BC7047036840
:104330000E681A6A22F480721A621A6A5D68DC6971
:1043400024F0730434438E6822F4007242EA062299
:10435000274EB3423CD05D60DC614C68DC631A627E
:10436000DA690D6942F00802DA61DC6924F00404BC
:10437000DC61D9692943D961002380F83C300022EF
:104380001046F0BC7047022210467047CE6822F0FB
:1043900008023243D1E9056725F440753E4322F017
:1043A000040235437DE7CE6822F0800242EA06121D
:1043B000D1E9056725F440653E4322F0400245EA15
:1043C00086059BE74E6925F4804545EA86153CE75E
:1043D000CE6822F4006242EA0622D1E9056725F49C
:1043E00040553E4322F4806245EA0615B3E700BF1C
:1043F00000000140704700BF704700BF10B5846BDC
:10440000636A83421CD0A36A83420BD0E36A83426F
:1044100023D0236B834229D02046FCF7B3F8002336
:10442000237710BD02222277DB69002BF4D1012310
:1044300084F83F302046FCF7A5F80023237710BD11
:1044400001222277DB69002BE6D184F83E2020464A
:10445000FCF798F80023237710BD04222277DB694C
:10446000002BD9D1012384F84030D5E708222277E8
:10447000DB69002BD0D1012384F84130CCE700BFA9
:10448000704700BF10B5846B636A834218D0A36A7B
:1044900083420DD0E36A83421AD0236B834204BF68
:1044A000082323772046FFF7EBFF0023237710BD77
:1044B000022323772046FFF7E3FF0023237710BD75
:1044C000012323772046FFF7DBFF0023237710BD6E
:1044D000042323772046FFF7D3FF0023237710BD63
:1044E000704700BF03681A69910710B5044602D5EA
:1044F000DA6892075FD41A69500702D5DA68510763
:1045000046D41A69120702D5DA6810072ED41A6940
:10451000D20602D5DA68D00618D41A69D10702D5B6
:10452000DA68D2075DD41A69100602D5DA68110676
:104530005FD41A69520602D5DA68500661D41A6946
:10454000910602D5DA68920643D410BD6FF01001CF
:10455000082219612277DB6913F4407F204664D07A
:10456000FFF74AFF002223682277D6E76FF00801A1
:10457000042219612277DB699907204652D1FFF79F
:1045800039FF2046FBF7FEFF002223682277BEE7B3
:104590006FF004010222196122779B6913F4407FB6
:1045A00020463CD1FFF726FF2046FBF7EBFF002219
:1045B00023682277A5E76FF00201012219610277D3
:1045C0009B699B0725D0FFF717FF002223682277FE
:1045D00091E76FF0200220461A61BDE8104000F01C
:1045E000A7B86FF001021A612046FCF74BFD236863
:1045F00099E76FF080021A61204600F09BF823686B
:1046000097E76FF040021A612046FFF769FF2368C1
:1046100095E7FFF7EFFE2046FBF7B4FFD5E7FFF77E
:10462000EBFEC4E7FFF7E8FEAEE7FFF7E3FE204648
:10463000FBF7A8FF96E700BF704700BF10B5846B7B
:10464000636A83421CD0A36A83420ED0E36A83422A
:1046500020D0236B834228D0012384F83D302046AC
:10466000FFF7EAFF0023237710BD0123022284F81D
:104670003F3022772046FFF7DFFF0023237710BD6E
:104680000123237784F83E302046FFF7D5FF00232F
:10469000237710BD0123042284F84030227720467E
:1046A000FFF7CAFF0023237710BD0123082284F8F7
:1046B000413022772046FFF7BFFF0023237710BD4C
:1046C00090F83C30012B2FD00368022230B480F8E0
:1046D0003D205A680D689C6822F070022A435A6097
:1046E000124A934212D0B3F1804F0FD0A2F57C4210
:1046F00093420BD002F58062934207D002F58062AC
:10470000934203D002F59A32934204D14A6824F0CE
:10471000800414439C600023012280F83D2080F82F
:104720003C3030BC18467047022070470000014002
:10473000704700BF704700BF84B082B00DF10C0C11
:104740008CE80E00089A012A03462CD1826B0F993F
:1047500022F480328263C26822F4840222F0400292
:10476000C260C268012922F44012C2605FD00022F8
:104770003149009202E01A69002A2DDB009A0132C9
:104780000092009A8A42F6D90320069A012A07D19C
:104790009A6842F006029A609A6842F020029A6093
:1047A00002B004B07047C2682349002042F04002C2
:1047B000DA60019002E01A69002A25DB019A0132D1
:1047C0000192019A8A42F6D903200C9ABAB99A6BDF
:1047D00042F480329A63D8E7002200921A6916499F
:1047E00042F001021A6103E0186910F00100CCD018
:1047F000009A01320092009A8A42F5D9C4E79A6B76
:1048000022F480329A63C0E7002201921A690A49B1
:1048100042F001021A6103E0186910F00100D4D0DF
:10482000019A01320192019A8A42F5D9CCE7C26815
:1048300042F48012C2609AE7400D0300022A034648
:104840000BD04FF4105CD96821F47051D960DA684C
:1048500042EA0C020020DA607047264A26480A44E1
:10486000824232D9254A26480A44824230D9254814
:10487000A1F57402A2F5105282422CD92248A1F16E
:104880008372A2F5E742824228D3204A20480A4494
:10489000824226D91F4A20480A44824224D31F4A12
:1048A0001F480A448242CCD31E48A1F1B772A2F538
:1048B000585282421BD31C4A1C480A44824234BFCD
:1048C0004FF4E05C4FF4C05CBDE74FF4705CBAE7B6
:1048D0004FF4605CB7E74FF4505CB4E74FF4405CD2
:1048E000B1E74FF4305CAEE74FF4205CABE74FF438
:1048F000005CA8E7405327FFFF340C00401E1BFF5D
:104900003F420F007F4F120020D6130060B6E5FE35
:104910005FE3160000D3CEFE40771B00C05BB3FE02
:10492000C091210020753800E05459FEE09C410000
:10493000034600209A6842F001029A60704700BF67
:10494000034600209A6822F001029A60704700BF77
:1049500038B5C368012923F0C0430546C36018D0A9
:10496000A9B9C36843F080430C46C36001E0322C10
:104970000DD00120FCF7C2FD6B69DB0704F10104D7
:10498000F5D4A4F13200B0FA80F0400938BD01201E
:1049900038BDC36843F000530024C36001E0322CEB
:1049A000F5D00120FCF7AAFD6B69DA0704F10104D8
:1049B000F5D5A4F13200B0FA80F04009E6E700BF77
:1049C00084B02DE9F04383B00BAC159D84E80E0054
:1049D0000023C0F804310C46C0F80831C0F80C318F
:1049E000C0F81031C0F81431C0F81831C0F81C31CB
:1049F000C0F82031C0F82431C0F82831C0F82C317B
:104A0000C0F83031C0F83431C0F83831C0F83C312A
:104A1000002D40F0AE80D0F8043800F5006C43F073
:104A20000203CCF80430836B43F400138363836B7D
:104A300023F400238363836B23F4802383630023A5
:104A4000C0F8003EDCF80030CCF80030109B012BA1
:104A500000F0BE80DCF8003043F00303CCF80030F7
:104A60000023624A009303E00369002BC0F29D809B
:104A7000009B01330093009B9342F5D90121002351
:104A80005A4A019302E00369002B7DDB019B01334D
:104A90000193019B9342F6D901210022CCF810200A
:104AA000CCF81420CCF81C20E4B100F510631746B4
:104AB0004FF090484FF000694FF67F3E08E01F60CE
:104AC000013294421F61C3F808E003F1200332D0A1
:104AD0001E68002EF3DA12B1C3F80080F0E7C3F8C5
:104AE0000090EDE7DCF8103023F48073CCF8103040
:104AF00000220E9B82616FF0804242611BB9836984
:104B000043F0100383618269394B1343119A836127
:104B10001AB1836943F008038361012D05D18369CC
:104B200043F0804343F004038361084603B0BDE8CB
:104B3000F04304B07047002200F5306317464FF091
:104B400090484FF000694FF67F3E08E01F60013249
:104B500094421F61C3F808E003F12003C2D01E682D
:104B6000002EF3DA12B1C3F80080F0E7C3F800902A
:104B7000EDE7836B23F400138363836B43F400231B
:104B800000F5006C83635AE7002301931023174A52
:104B9000036103E00369DB067FF57FAF019B01330F
:104BA0000193019B9342F5D976E7002300934FF4DC
:104BB00084630E4A036104E0016911F020013FF4AF
:104BC0005EAF009B01330093009B9342F4D955E7FD
:104BD0000D9B23B9DCF80030CCF8003040E7DCF85E
:104BE000003043F00103CCF8003039E7400D0300FA
:104BF00000383C8082B00023124A019302E003692E
:104C0000002B08DB019B01330193019B9342F6D9F2
:104C1000032002B070478901002341F02001019375
:104C2000084A016103E0036913F0200306D0019BE9
:104C300001330193019B9342F5D9E9E7184602B08D
:104C4000704700BF400D0300D0F8083813F006008D
:104C500004D013F0020F14BF02200F20704700BFD2
:104C600030B44B780A78012B22D0D0F81C4802F0DF
:104C70000F0C4FF4803303FA0CF3234300EB421282
:104C8000C0F81C38D2F8003B1B040ED4CB68D2F815
:104C9000000B0979C3F30A03034343EA814343F05A
:104CA000805343F40043C2F8003B002030BC7047FF
:104CB000D0F81C5802F00F0C03FA0CF300F5006456
:104CC0002B4300EB4210E361D0F800391C04ECD414
:104CD000CB68D0F800490979C3F30A03234343EAB8
:104CE000814343EA825242F0805242F40042C0F8CB
:104CF000002930BC0020704710B44A780B78012A94
:104D000000EB43122CD0D2F8001B00291BDBD0F89B
:104D10003C484FF4803103F00F0301FA03F324EA17
:104D20000304C0F83C48D0F81C48224924EA030395
:104D3000C0F81C38D2F8003B5DF8044B1940002045
:104D4000C2F8001B7047D2F8001B41F00061C2F8A6
:104D5000001BD2F8001B41F08041C2F8001BD6E7CF
:104D6000D2F8001900290BDAD2F8001941F00061DD
:104D7000C2F80019D2F8001941F08041C2F80019B8
:104D8000D0F83C1803F00F040123A34021EA0301EB
:104D9000C0F83C18D0F81C48074924EA0303C0F8BF
:104DA0001C38D2F800395DF8044B19400020C2F8D5
:104DB000001970470078F3EF007833EC2DE9F041EB
:104DC0004C7891F800C0012C4FD000EB4C1C0CF536
:104DD00030631C69E40CE4041C611C6924F0FF547A
:104DE00024F4C0141C618C6974B3CD68784E2C44D3
:104DF000013CB4FBF5F4A4B204FB05F506EAC44497
:104E00001E69CD6134431C611C69C5F3120525433D
:104E1000012A1D6124D00B79012B0CD1D0F8083860
:104E200013F4807FDCF8003B0CBF43F0005343F0E9
:104E30008053CCF8003BDCF8003B43F00443CCF853
:104E4000003B0020BDE8F081CC681D69C4F312046A
:104E50002C431C611C69012A44F400241C61DAD132
:104E60000A69002AD7D05A61D5E78E6900EB4C1544
:104E7000DEB3D5F81039CF68DB0CDB04C5F8103988
:104E8000D5F8103923F0FF5323F4C013C5F81039B7
:104E90004F4BD5F8108906EB070E0EF1FF3EBEFB17
:104EA000F7FE03EACE4343EA0803C5F81039D5F804
:104EB0001079C6F312033B43C5F810390F79012F5F
:104EC00005F5106353D0012A6DD0D5F8003943F0B1
:104ED0000443C5F80039D0F834380CF00F0C04FA4C
:104EE0000CF41C43C0F83448ABE7D5F8104924F063
:104EF000FF5424F4C014C5F81049D5F8104944F4FF
:104F00000024C5F81049D5F81049E40CE404C5F8AC
:104F10001049012A05F510630F7939D0D5F80049F9
:104F2000012F44F00444C5F800498AD1D0F808485C
:104F300014F4807F1C680CBF44F0005444F080548B
:104F40001C60002A7FF47DAFB6B20336B6083FF48A
:104F500078AF0B6900EB0C3C0CF5805C03EB860131
:104F600053F8042BCCF800208B42F9D169E71C6977
:104F700024F0C0441C611C69012A44F000541C61E7
:104F800016D0D5F8004944F00444C5F80049CDE7EF
:104F90004A695AB9012F0ED01A6842F004421A60C9
:104FA0000020BDE8F0814A69002AF5D05A61F1E796
:104FB0004A69002AFAD1D0F8082812F4807F1A68CA
:104FC0000CBF42F0005242F080521A60E4E700BF8A
:104FD0000000F81F4B78012BF0B40C7828D000EBC0
:104FE000441000F530631C69E40CE4041C611C6986
:104FF00024F0FF5424F4C0141C618C69ACB9CC6853
:105000001D69CC6145F400251D611D69C4F31204BE
:105010002C43012A1C6143D0D0F8003B43F00443E9
:10502000C0F8003B0020F0BC7047CC688C61E7E71B
:105030008D69002D39D000EB441CCE68DCF81039A6
:10504000DB0CDB04CCF81039DCF8103923F0FF530B
:1050500023F4C013B542CCF810390CF5106352D9C3
:105060001D698E6145F400251D611F69C6F3120597
:105070003D43012A1D613CD0DCF8003943F0044374
:10508000CCF80039002ECDD0D0F8343804F00F021F
:10509000012494401C43C0F834480020F0BC704701
:1050A0000A69002AB8D05A61B6E700EB4410012A19
:1050B000D0F8105925F0FF5525F4C015C0F8105947
:1050C000D0F8105945F40025C0F81059D0F81059FF
:1050D0004FEAD5454FEAC54500F510631D6108D07C
:1050E000D0F8003943F00443C0F80039F0BC002088
:1050F00070474A6902B15A611A6842F004420020BE
:10510000F0BC1A6070471E6946F400261E611E69D5
:10511000C5F312053543012A1D61EAD0DCF80039D8
:1051200043F00443CCF80039AEE700BF4B7882B0BF
:105130000022012B01920B7820D000F5306000EBAB
:1051400043100368002B02DB002002B070470368A5
:1051500043F000630360036843F0804342F210723F
:10516000036002E00368002BEEDA019B0133019338
:10517000019B9342F6D9012002B0704700F5106000
:1051800000EB43131A68002ADEDA1A6842F0006264
:105190001A601A6842F0804242F210711A6002E00E
:1051A0001A68002AD0DA019A01320192019A8A42E1
:1051B000F6D9E0E710B49DF8044064B903339B08C6
:1051C00009D0013200EB023001EB830351F8042BCC
:1051D00002608B42FAD100205DF8044B704700BF9B
:1051E0005FEA920C70B5054602F003061ED000F58A
:1051F000805E0A4600230133DEF8004042F8044B8B
:105200009C45F8D101EB8C007EB105F58055731EED
:105210002A6802709BB23BB1012B4FEA122118BFE2
:10522000120C417018BF8270304470BD0846EBE725
:105230004A780B78012A00EB43100CD0D0F8002BF1
:10524000002A00DBD3B9D0F8003B43F40013C0F8C8
:10525000003B00207047D0F80029002A06DB2BB164
:10526000D0F8003923F08043C0F80039D0F8003975
:1052700043F40013C0F8003900207047D0F8003B19
:1052800023F08043C0F8003BDDE700BF4A780B788D
:10529000012A00EB431013D0D0F8003B23F4001395
:1052A000C0F8003B0B79023B012B01D9002070476D
:1052B000D0F8003B43F08053C0F8003B002070471B
:1052C000D0F8003923F40013C0F800390B79023B01
:1052D000012BEBD8D0F8003943F08053C0F80039E7
:1052E00000207047D0F8003823F4FE63C0F800387F
:1052F000D0F80038090101F4FE611943C0F8001824
:1053000000207047D0F8002E034622F00302C3F8B5
:10531000002ED3F8043800F5006123F002030020CA
:105320004B607047D0F8002E034622F00302C3F80A
:10533000002ED3F8043800F5006143F0020300208A
:105340004B6070474269806910407047D0F8183848
:1053500000F50060C0691840000C7047D0F818389C
:1053600000F50060C069184080B2704700EB411141
:1053700000F50060D1F8082B40691040704700BF6D
:10538000D0F81028D0F8343800EB411001F00F01AC
:10539000CB40DB01D0F80809DBB21343184070475B
:1053A000406900F001007047D0F80029034622F45C
:1053B000FF6222F00702C3F80029D3F8043800F591
:1053C000006143F4807300204B60704710B4144BAD
:1053D000046C9C421AD800F5306000230361036915
:1053E00043F400230361036943F018030361036975
:1053F000012943F0C043036104D14261036843F0D3
:105400008023036000205DF8044B7047D0F8003B18
:10541000002B00F53060E0DA00205DF8044B7047A7
:105420000A30544F08B500F07FFC18491848002294
:1054300000F0D6FC70B91749154800F0E3FC88B9B4
:105440001549134800F032FBA0B9114800F000FDE7
:10545000B8B908BDFBF720FE0E490D4800F0D2FC9C
:105460000028EDD0FBF718FE0B49094800F01EFBA1
:105470000028EAD0FBF710FE054800F0E9FC002800
:10548000E7D0BDE80840FBF707BE00BF28010020B9
:1054900050220020580200201401002000207047F4
:1054A0000020704708B5044A044902EBC01200F01E
:1054B00013FB002008BD00BF7425002050220020EF
:1054C00070B50546084672B6104E136831687BB158
:1054D0000F4B00F1FF3C01EB030E63461CF8014F3C
:1054E0000EF8014F023314681B1A9C42F5D8214470
:1054F000316062B607490246284600F0EDFA0549D8
:10550000284600F01BFB002070BD00BF981B002048
:10551000970B002050220020202922D021292CD1B5
:10552000174B53F83010117010B453F830404FEA55
:10553000142C82F801C053F830404FEA144C82F822
:1055400002C003EBC00153F830305DF8044B1B0E72
:10555000D3700B7913714B7953718B799371002050
:105560007047074B116843F8301003EBC000137904
:10557000037153794371937983710020704700BFA1
:105580006C25002038B50B4D4FF4077303FB005515
:10559000D5F814320BB1012038BD8C4604461346B1
:1055A0000549624600F08AFA20460349BDE83840C2
:1055B00000F09EBAF4270020502200201223014858
:1055C0000B80704744010020042301480B80704782
:1055D0005801002010B5044C04480A46214601F049
:1055E00021F8204610BD00BFF4250020BC93000820
:1055F00010B5044C04480A46214601F013F8204631
:1056000010BD00BFF4250020D093000810B5044C55
:1056100004480A46214601F005F8204610BD00BFA7
:10562000F4250020E893000810B5044C04480A460D
:10563000214600F0F7FF204610BD00BFF4250020F2
:10564000F8930008454AD2F8100AD2F8183A4FF0F9
:105650001A0CC318A1F800C001D141487047D2F814
:10566000141A3F4A180FB3F1204F2CBF3730303097
:105670009070C3F3036009288CBF3730303010714D
:10568000C3F3035009288CBF373030309071C3F317
:10569000034009288CBF373030301072C3F3033019
:1056A00009288CBF373030309072C3F303200928AB
:1056B0008CBF373030301073C3F30310092803F068
:1056C0000F038CBF37303030092B94BF3033373362
:1056D00013740023B1F1204F53744FEA11732CBFA0
:1056E000373330339374C1F30363092B8CBF3733E3
:1056F00030331375C1F30353092B4FF0000C8CBFEB
:105700003733303382F803C04FF0000C82F805C005
:1057100090734FF0000C00209375C1F30343092BE5
:1057200082F807C0D0734FF0000C4FF0000094BF18
:105730003033373382F809C0D0744FF0000C0020AA
:1057400082F80BC050754FF0000C00201376002338
:10575000D07582F80DC00248537670470070FF1F65
:105760005C01002038B5D0F8BC3223B1084C94F865
:105770000012FF2901D1002038BD9D6894F8013244
:1057800022460020A847FF2384F80032002038BDBD
:10579000F42700204B23038000487047B401002009
:1057A0004B23038000487047000200200A23038037
:1057B000004870474C02002010B5044601F0B6F8CE
:1057C000064AD4F8BC32D2F80412DB68C2F80C02E4
:1057D00002F5037200209847002010BDF427002036
:1057E00001EB810C00EB8C0C38B5DCF818400B4653
:1057F000024664B1D0F8105301EBC10E05EB8E0EDA
:10580000DEF84850B4FBF5FE05FB1E4474B1D2F837
:10581000BC220A4914690020C1F8140224B101F520
:105820000472D1F80812A047002038BDCCF8184007
:105830002346224601F05EF8002038BDF427002000
:10584000F0B50B7883B0002713F060050C468DF897
:105850000570ADF80670064624D0202D1AD1CD88EB
:10586000002D3DD01B0655D5D0F8BC2249782B46DB
:1058700038469568304AA847E2882F49072A28BF4A
:105880000722304600F0F8FE3D4608E090F89C32D2
:10589000032B4AD02146304600F0B8FE03252846A7
:1058A00003B0F0BD4F780B2FF4D801A353F827F0C5
:1058B0008D5800089F580008955800089558000812
:1058C0009558000895580008955800089558000804
:1058D000955800089558000801590008F758000825
:1058E000D0F8BC222B46966828460A464978B0472D
:1058F000284603B0F0BD90F89C32032BCFD0C9E707
:1059000090F89C32032BC5D101220DF1050100F066
:10591000B3FEC4E70849637881F800322A4681F86B
:10592000015200F0BFFE3D46B9E702220DF106012B
:1059300000F0A2FE3D46B2E7F427002070B5184DF6
:10594000184E2978044600F089FF2B78317803F04F
:105950000F0303EB830304EB830300259D842046A0
:1059600000F07CFF3378104E03F00F0303EB83034A
:1059700004EB83033178A3F86451204600F06EFFF6
:105980003378D4F8BC2203F00F0303EB830304EB5A
:1059900083042846536865629847284670BD00BF57
:1059A0001C2A0020202A0020102A0020F8B5037CA1
:1059B000374D0446002B4ED12978364E4FF40073F4
:1059C000022200F03BFF2B78334D03F00F0303EB73
:1059D000830304EB8303012729789F844FF400732A
:1059E0000222204600F02AFF31782B7801F00F02C6
:1059F00003F00F0303EB830302EB820204EB830348
:105A000004EB82021020A3F86471D08408230322DF
:105A1000204600F013FF3378D4F8BC2203F00F03C4
:105A200003EB830304EB83030121126899840020B4
:105A300090471A4B0022C3F81422C3F81822227C84
:105A4000E2B9D3F8042229784FF40073204600F01D
:105A50005FFF0020F8BD29780E4E4023022200F09F
:105A6000EDFE2B780C4D03F00F0303EB830304EBE7
:105A7000830301279F8429784023B1E7D3F80422C8
:105A800029784023204600F043FF0020F8BD00BFE6
:105A90001C2A0020102A0020202A0020F4270020A1
:105AA0004B23038000487047B401002019B1C0F8AF
:105AB000BC12002070470320704700BF05494FF417
:105AC000077C0CFB0010C0F80822C0F81032002040
:105AD000704700BFF4270020044B4FF4077101FB0F
