:020000040800F2
:100000000000022031170008B5130008B9130008DA
:10001000BD130008C1130008C5130008000000004C
:10002000000000000000000000000000D190000867
:10003000C91300080000000061910008F575000870
:100040008117000881170008811700088117000830
:100050008117000881170008811700088117000820
:10006000811700088117000881170008CD130008C8
:100070008117000881170008811700088117000800
:100080008117000881170008811700080000000090
:10009000000000000000000000000000D91300086C
:1000A00081170008E1130008811700088117000874
:1000B00081170008811700088117000881170008C0
:1000C00081170008811700088117000881170008B0
:1000D0008117000881170008811700080000000040
:1000E000ED130008811700088117000800000000C8
:1000F0000000000000000000000000008117000860
:10010000000000008117000881170008811700080F
:1001100000000000000000000000000000000000DF
:10012000811700088117000881170008811700084F
:10013000811700080000000000000000000000001F
:10014000000000000000000000000000F51300089F
:10015000811700088117000881170008811700081F
:10016000811700088117000800000000000000004F
:10017000000000000000000000000000000000007F
:1001800000000000811700080000000000000000CF
:08019000811700088117000827
:1001A00010B5054C237833B9044B13B10448AFF3B1
:1001B00000800123237010BDE80300200000000030
:1001C000F49E000808B5034B1BB103490348AFF385
:1001D000008008BD00000000EC030020F49E000831
:1001E00001F0FF01102A2BDB10F0070F08D010F8E8
:1001F000013B013A8B422DD010F0070F42B3F6D1EC
:10020000F0B441EA012141EA014122F007047FF004
:1002100000070023F0E80256083C85EA010586EA5B
:10022000010685FA47F5A3FA87F586FA47F6A5FA97
:1002300087F68EB9EED1F0BC01F0FF0102F00702A3
:1002400032B110F8013B013A83EA010313B1F8D14E
:100250000020704701387047002D06BF354603382F
:10026000073815F0010F07D1013015F4807F02BF68
:10027000013015F4C03F0130F0BC0138704700BFB9
:1002800053B94AB9002908BF00281CBF4FF0FF31FD
:100290004FF0FF3000F074B9ADF1080C6DE904CEF9
:1002A00000F006F8DDF804E0DDE9022304B0704751
:1002B0002DE9F047089D04468E46002B4DD18A4219
:1002C000944669D9B2FA82F252B101FA02F3C2F14C
:1002D000200120FA01F10CFA02FC41EA030E9440DD
:1002E0004FEA1C48210CBEFBF8F61FFA8CF708FBFE
:1002F00016E341EA034306FB07F199420AD91CEBD6
:10030000030306F1FF3080F01F81994240F21C8107
:10031000023E63445B1AA4B2B3FBF8F008FB10334F
:1003200044EA034400FB07F7A7420AD91CEB040484
:1003300000F1FF3380F00A81A74240F20781644454
:10034000023840EA0640E41B00261DB1D4400023D9
:10035000C5E900433146BDE8F0878B4209D9002D3D
:1003600000F0EF800026C5E9000130463146BDE8C7
:10037000F087B3FA83F6002E4AD18B4202D3824231
:1003800000F2F980841A61EB030301209E46002DE0
:10039000E0D0C5E9004EDDE702B9FFDEB2FA82F235
:1003A000002A40F09280A1EB0C014FEA1C471FFA93
:1003B0008CFE0126200CB1FBF7F307FB131140EA7A
:1003C00001410EFB03F0884208D91CEB010103F147
:1003D000FF3802D2884200F2CB804346091AA4B209
:1003E000B1FBF7F007FB101144EA01440EFB00FEDD
:1003F000A64508D91CEB040400F1FF3102D2A64542
:1004000000F2BB800846A4EB0E0440EA03409CE7E0
:10041000C6F12007B34022FA07FC4CEA030C20FA8D
:1004200007F401FA06F31C43F9404FEA1C4900FAAD
:1004300006F3B1FBF9F8200C1FFA8CFE09FB18112A
:1004400040EA014108FB0EF0884202FA06F20BD99D
:100450001CEB010108F1FF3A80F08880884240F2ED
:100460008580A8F102086144091AA4B2B1FBF9F031
:1004700009FB101144EA014100FB0EFE8E4508D92C
:100480001CEB010100F1FF346CD28E456AD90238B1
:10049000614440EA0840A0FB0294A1EB0E01A14296
:1004A000C846A64656D353D05DB1B3EB080261EB04
:1004B0000E0101FA07F722FA06F3F1401F43C5E9DE
:1004C000007100263146BDE8F087C2F12003D84014
:1004D0000CFA02FC21FA03F3914001434FEA1C4756
:1004E0001FFA8CFEB3FBF7F007FB10360B0C43EA48
:1004F000064300FB0EF69E4204FA02F408D91CEBF8
:10050000030300F1FF382FD29E422DD902386344F5
:100510009B1B89B2B3FBF7F607FB163341EA034195
:1005200006FB0EF38B4208D91CEB010106F1FF38E4
:1005300016D28B4214D9023E6144C91A46EA0046DB
:1005400038E72E46284605E70646E3E61846F8E66D
:100550004B45A9D2B9EB020864EB0C0E0138A3E7B6
:100560004646EAE7204694E74046D1E7D0467BE797
:10057000023B614432E7304609E76444023842E70F
:10058000704700BF0148002104F01EB9201E002062
:1005900000B51D481D4901600122002385B04FF4BC
:1005A00080310276C2614261194A0361CDE90033AC
:1005B000CDE90233C0E9011380F82030C36080F830
:1005C00030300023C0E90A2301F01AF968B99FED21
:1005D0000C7B00230C48029369468DED007B01F0F3
:1005E00045FA28B905B05DF804FB00F06DFEEEE7B2
:1005F00000F06AFE05B05DF804FB00BFAFF30080B9
:100600000500000001000000E80B00200020014070
:100610000100000F10B5204B02688AB000249A42F6
:10062000CDE90444CDE90644089401D00AB010BDD8
:1006300003F58C3301945A6C184842F480725A6462
:100640005A6C02F480720192019A02941A6B42F081
:1006500001021A631A6B02F001020292029A0394D9
:100660001A6B42F002021A631B6B03F0020303933E
:1006700004A9E0220323CDE90423039B01F0ECFC51
:10068000032203230648069404A9CDE9042301F0BC
:10069000E3FC0AB010BD00BF002001400000024092
:1006A000000402402DE9F04F1B4C1C4F1C4EDFF89C
:1006B00078B085B004F1100825464FF0640A4FF079
:1006C000010915F8012F0096CDE9019A01236E2149
:1006D000584602F0CBF908B933783B70454507F12D
:1006E0000107EED10F4DDFF844904FF0640A012767
:1006F000CDE9017A14F8012F009601236E214846B6
:1007000002F0B4F908B933782B70444505F10105BE
:10071000EED105B0BDE8F08FCB000020300C0020FA
:10072000500C0020400C0020C81C00201C1D002084
:10073000F0B587B001230DF113026424CDE9013433
:10074000009255488DF813308A226E2102F08EF9FE
:100750009DF81330012B40F09D80504F504E802566
:10076000CDE901540097012300226E21304602F0AA
:1007700089F80028F4D10323494F8DF8143005AED1
:1007800064250124CDE901450096012386226E21CE
:10079000384602F077F80028F4D14FF4FA7006F0EA
:1007A000AFFF404C3E4F64260225CDE90156009430
:1007B000012394226E21384602F058F90028F4D122
:1007C0003849374F022205F089FB642006F098FF74
:1007D00064260225CDE90156009401237E226E2174
:1007E000384602F04FF80028F4D12D4F8DF81550FF
:1007F0000DF1150664250124CDE90145009601237C
:1008000086226E21384602F03DF80028F4D1DC2023
:1008100006F076FF224F02238DF816300DF11606F2
:1008200064250124CDE901450096012388226E212B
:10083000384602F01BF90028F4D19DF81630DBB1E0
:10084000174F0DF1170401264FF47A7006F058FF88
:1008500000238DF817306425CDE90165009401234C
:1008600089226E21384602F001F90028F4D10122D4
:10087000214605F033FBE7E70DF11703FF26009350
:10088000CDE9014506488DF81760012386226E21C7
:1008900001F0F8FF07B0F0BDC81C00203C9F000825
:1008A0001C1D0020C800002030B583B000231E4A64
:1008B0000093116B1D481E4D41F400111163116B23
:1008C00001F40011009100990193116B436041F410
:1008D00080011163126B436102F480020192802255
:1008E0004FF4007482604FF48062C0E903420199C2
:1008F000056004210322C0E90633C0E90831C0E9DC
:100900000A23036301F0CEF950B90B200022052120
:1009100001F07CF90B2003B0BDE8304001F0B4B920
:1009200000F0D2FCF1E700BF00380240540C002078
:10093000106402402DE9F04105208AB006F0E0FE87
:10094000FFF7F6FEDFF8ACE0264CDFF8AC80264E71
:10095000BEE80F00EC46ACE80F00BEE80F00ACE8C4
:100960000F009EE803004CF8040BA4F11F05FE27BE
:100970008CF800100A2006F0C3FE98F80030012B16
:10098000F8D1FFF78FFE194A4FF4907104E0FD2B68
:1009900006D0A242194408D012F8013FFF2BF6D12D
:1009A000FE23A24217701944F6D1114B0DF1020239
:1009B00013F8010F285C02F8010F9E42F8D149425A
:1009C000C9B2FF2914BF8DF823104FF6FD634FF015
:1009D000250269464FF0000008BFADF8233005F04E
:1009E0007DFAC7E74F0C0020DB9F00082F0C00208A
:1009F000BB9F00080C9F0008701D00202DE9F84FD8
:100A0000894C8A4B8A4D1F7800263046314666E075
:100A100013F0010F14BF5227182713F0020F0CBF59
:100A20004FF0180B4FF0520B13F0040F0CBF4FF0A8
:100A3000180A4FF0520A13F0080F0CBF4FF01809B4
:100A40004FF052090A1813F0100F4FEAC2020CBF00
:100A50004FF018084FF0520813F0200F0CBF4FF062
:100A6000180C4FF0520C13F0400F24F8127014BF02
:100A70004FF0520E4FF0180EDF0902F1010701F19D
:100A8000010124F817B002F10207C9B224F817A037
:100A900002F1030724F8179002F1040724F81780E5
:100AA00002F1050724F817C002F1060C02F1070253
:100AB0000CBF1827522724F81CE024F812701F4698
:100AC000002800F09280012800F08C80431C00D1A7
:100AD0000020584B9D426CD0602900F0918015F8A1
:100AE000013FFD2B7CD0002E92D0013313F0010F7B
:100AF00014BF5227182713F0020F0CBF4FF0180B2A
:100B00004FF0520B13F0040F0CBF4FF0180A4FF0C8
:100B1000520A13F0080F0CBF4FF018094FF052099A
:100B20000A1813F0100F4FEAC2020CBF4FF018085A
:100B30004FF0520813F0200F0CBF4FF0180C4FF07D
:100B4000520C13F0400F24F8127014BF4FF0520EE5
:100B50004FF0180EDFB213F0800F02F1010301F124
:100B6000010124F813B002F10203C9B224F813A062
:100B700002F1030324F8139002F1040324F8138014
:100B800002F1050324F813C002F1060C02F107027A
:100B90000CBF1823522324F81CE024F8123068B349
:100BA000012827D0421C22D0224B9D424FF0000644
:100BB00092D11E4B60291F7024D0C1F1600504EB57
:100BC0000113EDB200214FF018120131C8B2A84252
:100BD0001A605A609A60DA6003F11003F5D311E0ED
:100BE000012676E74FF0FF3073E7012071E7002020
:100BF00006466EE74FF0FF3000266AE73046D3E73F
:100C00000A4B1F70084A0C4840F20133002103F0E0
:100C1000CBFC0A4A0848F023002103F0C5FC32202F
:100C200006F06EFDEDE600BF04040020060A002079
:100C300002000020C7000020201E0020080A00201B
:100C40002DE9F84F4FF00009714D724CDFF8D88153
:100C5000DFF8D8A1DFF8D8B14F464E46012006F0A4
:100C60004FFD2368002BF9D02A78FF2A04D0002FEB
:100C700040F084802660F1E76A78102A78D8002A4C
:100C8000F8D0013A0F2AF5D801A151F822F000BF9F
:100C9000690D0008030D0008EF0C0008DD0C0008CA
:100CA000750C0008750C0008750C0008750C000820
:100CB000750C0008750C0008750C0008750C000810
:100CC000750C0008750C0008750C0008D10C0008A4
:100CD00051490422002005F001F9CBE701224FF42D
:100CE000005158468AF8006001F0A8FAC2E70123D3
:100CF00000224FF4005158468AF8003001F09EFA65
:100D0000B8E7FF22012B88F800205FFA83F929D089
:100D1000A3F10A02F52A70D803F1FF3E3F4840498B
:100D20004FEA9E0C0022013250F8047B41F8047B0C
:100D30006245F8D30EF0FC02511C1EF0030FC9B23D
:100D400010D0901CC0B26F5C08F80170834209D9C2
:100D50000332D2B2295C08F80010934202D9AB5C8E
:100D600008F80230012785E701238AF8003081E77F
:100D7000F02A7FF47FAF00F0A9FA7BE7012B08F897
:100D800009202CD0A3F10A02F52A2AD803F1FF3C4E
:100D900009F1010121484FEA9C0741440022013238
:100DA00050F804EB41F804EB9742F8D80CF0FC0241
:100DB000511C1CF0030FC9B211D0901C08EB09079D
:100DC000C0B215F801C007F801C0834207D9033249
:100DD000D2B2295C3954934201D9AB5CBB54002791
:100DE00048E7104A08EB09011344013212F8010FD9
:100DF00001F8010F9A42F9D1F1E70A4A0A4913446E
:100E0000013212F8010F01F8010F9342F9D1A9E75D
:100E1000C40C0020C41C0020DC000020C50C0020F5
:100E200001000020C30C002000000020701D0020E5
:100E3000000802402DE9F04F2A4A2B4BDFF8B08022
:100E4000DFF8B09092E8030087B00DF1100B02902C
:100E50008DF80C1093E803008BE803004FF0000AB4
:100E6000ADF804A002AF0DF112060024404600F0D8
:100E700075FD651C4FF0FF33022201A948468DF82D
:100E8000045004F057F8322006F03AFC404600F0D7
:100E9000E9FD0122A240B0F5676F134613D99DF812
:100EA000053017F8011B06F8011B1A43052D2C46C7
:100EB0008DF80520DAD1082259460C48ADF810A06B
:100EC00005F0B0FDCEE79DF8052006F801AB22EA5B
:100ED0000303052D2C468DF8053007F10107C5D118
:100EE000E9E700BFDC9F0008349F0008C023002012
:100EF000E80B0020681E002010B5104A10480021A1
:100F000006F0B2FB0F4B104A044600210F481C604C
:100F100006F0AAFB0E4B0F4A044600210E481C6047
:100F200006F0A2FB0D4B0E4A044600210D481C6042
:100F300006F09AFB0C4B186010BD00BF74A00008AF
:100F400035090008C00C002008A00008FD090008B1
:100F5000B40C00202CA00008410C0008B80C0020A4
:100F600050A00008350E0008BC0C002010B500246D
:100F70008AB0CDE90444CDE906442D4B0094089491
:100F80001A6B2C4842F004021A631A6B02F0040236
:100F90000092009A01941A6B42F080021A631A6B55
:100FA00002F080020192019A02941A6B42F001024F
:100FB0001A631A6B02F001020292029A03941A6BEE
:100FC00042F002021A631B6B03F0020303932246F2
:100FD0004FF40051039B01F031F94FF4005201230B
:100FE000CDE9042304A9012200231248CDE90623F8
:100FF00001F032F848F280024FF40413CDE90423E3
:1010000004A901230C48069301F026F82246052185
:10101000172000F0FBFD172000F036FE22460521C8
:10102000282000F0F3FD282000F02EFE0AB010BDAD
:1010300000380240000802400004024010B50B488E
:101040000B4C0C4900234FF48042C0E90041C0E939
:101050000233C0E90423C0E90633036201F04AFB0E
:1010600000B910BDBDE8104000F02EB9C81C00202A
:1010700000540040A086010010B50B480B4C0C49F1
:1010800000234FF48042C0E90041C0E90233C0E9C7
:101090000423C0E90633036201F02CFB00B910BD44
:1010A000BDE8104000F010B91C1D0020005C00409D
:1010B000A0860100F0B50368384A8DB00024934241
:1010C000CDE90644CDE908440A9404D0344A934259
:1010D00027D00DB0F0BD334D01942B6B324843F057
:1010E00002032B632B6B03F0020301934FF4407256
:1010F0001223CDE9062301220323CDE9082306A903
:1011000004230A93019A00F0A7FF02942B6C43F486
:1011100000132B642B6C03F400130293029B0DB09D
:10112000F0BD204D03942B6B204843F001032B634B
:101130002B6B03F001030393039B04942B6B43F08D
:1011400002032B632B6B03F0020304934FF48072B2
:101150001223CDE906230126049B032706A90423B5
:101160000A93CDE9086700F077FF09230A9310225C
:1011700012230D4806A9CDE90623CDE9086700F042
:101180006BFF05942B6C43F400032B642B6C03F46E
:1011900000030593059B0DB0F0BD00BF0054004057
:1011A000005C0040003802400004024000000240A1
:1011B00010B5002394B0CDE90A33CDE90C33CDE965
:1011C0000233CDE90433264900930693086C254A7F
:1011D00040F080500864096C01F080510091009942
:1011E0000193136843F44043136013689FED167B2B
:1011F00003F44043022101934FF480001923CDE909
:101200000E10C022109308A804238DED087BCDE9B1
:101210001121019C139302F097FD08B172B6FEE70D
:101220009FED0B7B8DED027B9FED0B7B0346032136
:1012300002A88DED047B069302F09EFF08B172B602
:10124000FEE714B010BD00BF010000000000010067
:101250000F0000000200000000000000001000006D
:10126000003802400070004008B500F08BFAFFF72C
:101270009FFFFFF77BFEFFF717FBFFF7DFFEFFF790
:10128000FBFE00F0E9F900F0E7F8FFF781F900F064
:101290008BF904F073FD01224FF40051044800F073
:1012A000CDFF06F0B5F9FFF727FE06F0C3F9FEE71C
:1012B00000080240034B02689A4200D0704700F0D9
:1012C0007BBA00BF0000014072B6FEE7024925224A
:1012D000002004F003BE00BFE000002082B00E4BEF
:1012E00000220092596C41F480415964586C00F41A
:1012F0008040009000980192186C40F08050186473
:101300001B6C03F080530193019B0F216FF00100D0
:1013100002B000F07BBC00BF0038024070B588B05E
:1013200000251F4B02955A6C1E4C42F001025A6474
:101330005B6C03F0010301A90293064603A8029B1C
:1013400002F0DEFF02F0CCFF174A22600346174886
:10135000256140F2E732E260A0FB03239B0C013BD6
:101360002046C4E90135A56102F0EEFF054610B143
:10137000284608B070BD204603F064F805460028F2
:10138000F6D1192000F080FC0F2E01D90125EFE7DE
:101390002A463146192000F039FC054B1E60E7E76C
:1013A00000380240741D00200000014083DE1B4312
:1013B00010010020FEE700BFFEE700BFFEE700BF10
:1013C000FEE700BFFEE700BF704700BF014800F026
:1013D00053BD00BFC01D0020802000F035BF00BFFE
:1013E000014803F0E3BB00BF741D00204FF4004030
:1013F00000F02ABF014801F095BD00BFB01E0020DB
:1014000010B50C4C0C4B0D492268591A2AB11044E6
:10141000884207D82060104610BD094A2260104457
:101420008842F7D908F0B2F80C234FF0FF3203607E
:10143000104610BDBC1D002000000220004000002E
:1014400018760020034AD2F8883043F47003C2F8BB
:101450008830704700ED00E010B5314C314A226011
:1014600092B0002377222046CDE90233CDE90A333A
:10147000CDE90C33CDE90E33C4E901331093E260BA
:101480002361A36103F012F800BB0022002324486B
:1014900002A9CDE9022303F077FCE8B99FED1C7B9C
:1014A00000221F480C920AA98DED0A7B0E9203F0D0
:1014B000FFF970B91B4A216800239142CDE904333A
:1014C000CDE9063308930AD012B010BDFFF7FCFE39
:1014D000DBE7FFF7F9FEEDE7FFF7F6FEDEE702F5E3
:1014E0000C320193136B104843F002031363136B28
:1014F0009FED097B03F00203019304A902238DED04
:10150000047B019A089300F0A7FD12B010BD00BF44
:101510006000000000000000400000000200000029
:10152000201E002000080040000402401A4B026800
:101530009A4200D0704730B583B00023174A019318
:10154000116C174D41F004011164126C1549EB60E8
:1015500002F0040201924FF08062C5E900124021BE
:101560004FF48062A9602A614FF400614FF4005289
:10157000C5E9051204464FF4003201986B62284613
:10158000C5E9073200F08EFB18B96562AC6303B0A1
:1015900030BDFFF799FEF8E7000800400038024030
:1015A000C01D00201060024010B50B480B4C0023FA
:1015B0004FF4E1310C22C0E90041C0E90233C0E937
:1015C0000432C0E9063303F01BFC00B910BDBDE8CE
:1015D0001040FFF779BE00BF681E002000440040A5
:1015E00010B51B4A016888B000239142CDE902334F
:1015F000CDE90433069301D008B010BD02F5FA32EC
:101600000093106C40F400301064106C00F4003053
:10161000009000980193136B0E4843F0010313638D
:10162000136B9FED097B03F0010301930322072352
:1016300002A98DED027BCDE90523019C00F00CFD94
:1016400008B010BDAFF300800C00000002000000E5
:1016500000440040000002409FED0F7B124810B58F
:1016600080ED067B9FED0E7B00234FF0A04404210C
:10167000022280ED087BC0E90041C0E90323C0E9F4
:101680000B3301F0A1FB00B910BDBDE81040FFF71E
:101690001BBE00BFAFF3008002000000000000008E
:1016A0000000000000000000B01E002030B50368FC
:1016B00089B00024B3F1A04FCDE90244CDE9044440
:1016C000069401D009B030BD174D00942B6B17481C
:1016D00043F001032B632B6B03F0010300934FF4E2
:1016E000C0520223CDE90223032302A905930A2352
:1016F000009A069300F0B0FC6B6B43F080036B63C1
:1017000001946B6C43F480436B646B6C03F4804313
:101710002246052101934320019B00F077FA4320E4
:1017200000F0B2FA09B030BD0038024000000240BB
:10173000DFF834D00D480E490E4A002302E0D45899
:10174000C4500433C4188C42F9D30B4A0B4C002309
:1017500001E013600432A242FBD3FFF773FE07F0EF
:101760001BFFFFF781FD70470000022000000020F2
:10177000E403002084A10008E8030020187600207C
:10178000FEE7000008B50B4B1A6842F400721A60BD
:101790001A6842F480621A601A6842F480721A6011
:1017A000032000F021FA0F20FFF7B8FDFFF796FDA8
:1017B000002008BD003C0240034A044B11681B781E
:1017C0000B441360704700BFBC2300200C010020B5
:1017D000014B1868704700BFBC23002038B5044691
:1017E000FFF7F6FF631C054602D0044B1B781C4430
:1017F000FFF7EEFF431BA342FAD338BD0C010020D4
:10180000002800F09F8038B5056C04463DB1236C7C
:10181000DB060CD5002384F83C30012038BDFEF7F0
:10182000F9FE6564236C84F83C50DB06F2D4236C2B
:10183000484A23F4885323F0020343F0020323644D
:101840005168236821F44031516051686068014358
:1018500051605A682569A06822F480725A605968FC
:1018600041EA05215960596821F0407159605A6870
:1018700002435A609968E06821F4006199609A68AF
:10188000A16A02439A60344A914252D09868E56A4C
:1018900020F0706098609A6811439960996821F00F
:1018A000405199609A682A439A609A6822F002022D
:1018B0009A609A68217E42EA41029A6094F8202058
:1018C000002A41D05968626A41F400615960586841
:1018D00020F460405860511E5A6842EA41325A6012
:1018E000DA6AE169656922F47002DA62DA6A01395A
:1018F00042EA0152DA62996821F4007199609968AC
:1019000094F8302041EA42219960996821F480617D
:1019100099609A68002042EA85229A606064236C8C
:1019200023F0030343F001032364002384F83C30D5
:1019300038BD9A6822F070629A609A6822F040522C
:101940009A60B2E7012070475A6822F400625A6038
:10195000C6E700BF002301400100000F10B490F85B
:101960003C3083B00021012B01916DD0016801232F
:1019700080F83C308B680246D80714D4354B364C7F
:101980001B688868A4FB03439B0C03EB430340F0F4
:10199000010088600193019B2BB1019B013B0193E6
:1019A000019B002BF9D18868136C10F001002ED038
:1019B00023F4E06323F0010343F4807313644B6862
:1019C0005B0505D5136C23F4405343F48053136433
:1019D000136C13F480531CBF536C23F00603536441
:1019E00000201E4B82F83C006FF022040C605A6805
:1019F00012F01F0216D1886810F040501FD18B687A
:101A000043F080438B6003B05DF8044B704743F0B4
:101A100010031364536C43F00103536403B05DF887
:101A2000044B70470E4B9942F8D18B6813F040532A
:101A3000F4D18A6842F0804218468A60EEE7104688
:101A400003B05DF8044B7047022003B05DF8044B0F
:101A5000704700BF0801002083DE1B4300230140C4
:101A6000002001400368D86C704700BF30B590F883
:101A70003C3083B00022012B019200F09B800123B7
:101A800080F83C300C680368092C2DD81D698A68E1
:101A900004EB440E4FF0070C0CFA0EFC25EA0C0583
:101AA0001D611D6902FA0EF22A431A614A68062A6C
:101AB000A4462FD802EB8202596B053A4FF01F0E55
:101AC0000CFA02FC0EFA02F221EA02025A635A6B85
:101AD0004CEA02025A633F4A934230D0002380F816
:101AE0003C30184603B030BD1FFA84FC0CEB4C02AE
:101AF000DD68A2F11E0E072202FA0EF225EA0202AA
:101B0000DA608A68DD6802FA0EF22A43DA604A680F
:101B1000062ACFD90C2A02EB820232D8196B233A5B
:101B20001F250CFA02FC05FA02F221EA02021A63EE
:101B30001A6B4CEA02021A63264A9342CED1122C47
:101B40002ED0254B9C4238D1244A254B5168254C38
:101B500021F480015160516841F4000151601B681B
:101B6000A4FB03239B0C03EB83035B000193019B0A
:101B7000002BB3D0019B013B0193019B002BF9D1BA
:101B8000ACE7D96A413A1F250CFA02FC05FA02F2C9
:101B900021EA0202DA62DA6A4CEA0202DA629AE7BF
:101BA0000E4B5A6822F400025A605A6842F48002CE
:101BB0005A6093E7022003B030BD112C8ED1074B41
:101BC0005A6822F480025A605A6842F400025A604D
:101BD00084E700BF002001401200001000230140F4
:101BE0000801002083DE1B430749CA6803024FF641
:101BF000FF0003F4E0630240134343F0BF6343F488
:101C00000033CB60704700BF00ED00E01C4BDB6889
:101C1000C3F3022300B5C3F1070EBEF1040F03F1B5
:101C2000040C28BF4FF0040EBCF1060F1BD9033B78
:101C30004FF0FF3C0CFA03FC22EA0C024FF0FF3C91
:101C40000CFA0EFC21EA0C019940002841EA02013D
:101C50000CDB00F16040090100F56140C9B280F879
:101C600000135DF804FB00221346E7E7054B00F084
:101C70000F0009010344C9B219765DF804FB00BFE7
:101C800000ED00E0FCEC00E0002808DB4109044A1C
:101C900000F01F00012303FA00F042F82100704712
:101CA00000E100E038B50446FFF792FD002C52D069
:101CB00023680022022184F8351084F834201A6841
:101CC00022F0010205461A6005E0FFF781FD431B83
:101CD000052B39D823681A68D107F6D4D4E9012036
:101CE000E16802430A43D4E90451A0692A430A4344
:101CF000E1691D6802430A4333492940256A2A43A2
:101D00000A43616A042928D01A605A6922F007023E
:101D10001143D8B22D4A59611038A2FB0052120962
:101D20002B4923F47F73895CE16523F003035F286B
:101D300088BF04333F228A40A36500209A600123B4
:101D4000606584F8353038BD03232022626584F84D
:101D50003530184638BD012038BDD4E90B51294330
:101D60000A431A605969A26A21F00701114341F040
:101D70000401002DCDD078B1B0F5005F16D0022A55
:101D800003D9032AC5D1EA01C3D5012340226265E4
:101D900084F83530184638BD012A03D032F00202EB
:101DA000B7D1F0E7B5F1C07FB3D1EEE7032AB0D8E1
:101DB00001A050F822F000BF8B1D0008871D00080D
:101DC0008B1D0008A51D00083F8010F0ABAAAAAA31
:101DD000B0A0000870B490F83440856D012C35D067
:101DE00090F835404FF0010C644580F834C005D0C0
:101DF000002380F8343070BC02207047022680F83F
:101E00003560046800264665266826F4802626602C
:101E100063608368402B0EBFA260A160E260C26D68
:101E200008BFE1603F239340AB602368026C43F03E
:101E3000160323601AB1236843F008032360236864
:101E400043F001030020236070BC7047022070BC87
:101E5000704700BF90F83530022B03D080234365D4
:101E6000012070470268052380F83530136823F09D
:101E700001030020136070472DE9F04182B0744ADD
:101E8000866D156800230193C36D346808229A405B
:101E90002242804604D001680F68780700F18A80EA
:101EA00001229A40224204D0D8F80010496909065C
:101EB00078D404229A40224204D0D8F8001009684D
:101EC0008F0767D410229A40224204D0D8F800101D
:101ED0000F68380749D420229A40224217D0D8F8F8
:101EE00000100C68E00612D5B26098F83520052A7B
:101EF00073D00B6813F4802F0B6800F090801903E7
:101F000040F19B80D8F83C300BB140469847D8F858
:101F100054303BB3D8F85430DA071BD5D8F800203A
:101F20004C49052388F835301368A1FB051523F0CB
:101F30000103AD0A136002E01368DB0704D5019BBF
:101F40000133AB420193F7D90122002388F83520F1
:101F500088F83430D8F84C3023B1404602B0BDE8A0
:101F6000F041184702B0BDE8F081B2600A6812F48F
:101F7000802F0A682AD1D70503D40A6822F0080204
:101F80000A60D8F84020002AA5D040469047D8F8EB
:101F90005C30A0E7B260D8F8542042F00402C8F8E0
:101FA00054208FE7B260D8F8542042F00202C8F8FB
:101FB00054207EE70F6827F004070F60B260D8F85E
:101FC000542042F00102C8F8542069E71203D8D522
:101FD000D8F84820002AD8D17DE70A6822F01602F6
:101FE0000A604A6922F080024A61D8F8402052B360
:101FF0000A6822F008020A603F2202FA03F3D8F8C6
:102000005010B3600122002388F8352088F834305E
:102010000029A7D0404602B0BDE8F041084713F4BC
:1020200080737FF46FAF0A6822F010020A60012209
:1020300088F8352088F8343064E7D8F84430002B2D
:102040007FF463AF63E7D8F84820002AD0D1D3E704
:1020500008010020B5814E1B2DE9F04F00220C68CD
:10206000704E85B013464FF0010A894604E00133F3
:10207000102B02F1020278D00AFA03F101EA040BF4
:10208000A143F4D1D9F804C00CF003014D1E012D79
:102090006ED9032940F0AE809140CD4307683D40A2
:1020A00029431CF4403F0160E1D05F4D00210391C2
:1020B000696C41F480416964696C01F48041039169
:1020C000039923F0030101F1804101F59C3103F0F4
:1020D0000307D1F808E0BF000F25BD402EEA050830
:1020E000524DA84217D005F58065A84200F08680C1
:1020F0004F4DA84200F087804E4DA84200F08A80E4
:102100004D4DA8420CBF4FF0040E4FF0070E0EFAD3
:1021100007F748EA0708C1F80880B1686FEA0B07BB
:102120001CF4801F0CBF39404BEA0101B160F56817
:102130001CF4001F0CBF3D404BEA0505F5607568B7
:102140001CF4003F0CBF3D404BEA0505756031684B
:102150001CF4803F03F101030CBF39404BEA01013D
:10216000102B316002F1020286D105B0BDE8F08F7C
:10217000D9F80C50876805FA02F8032505FA02FE23
:1021800027EA0E0748EA0707876047686FEA0E05E7
:1021900027EA0B0ECCF300179F4047EA0E07476073
:1021A000C76807EA050ED9F80870974047EA0E0796
:1021B0000229C76001FA02F17FF470AF4FEAD30E33
:1021C00000EB8E0E03F00708DEF820700097D9F8B8
:1021D00010704FEA880807FA08F701970F2707FAE7
:1021E00008F8009F27EA0808019F47EA0807CEF889
:1021F000207053E703259540ED43D1E70AFA07F72E
:1022000048EA070887E74FF0020E0EFA07F748EA98
:10221000070880E74FF0030E0EFA07F748EA0708B1
:1022200079E700BF003C0140003802400000024056
:1022300000080240000C02400010024002B90904EC
:1022400081617047704700BF044A5169014200D163
:10225000704708B55061FFF7F5FF08BD003C01402D
:102260002DE9F04F046883B098462368DDF830907C
:10227000DDF834B043F4807306468A46174623607F
:10228000B9F1FF3F35D16569E807FCD50AF0FE01D9
:102290002161B9F1FF3F03D04EE061694D055CD487
:1022A00061698B07F9D50023019363690193A369E1
:1022B0000193019BB9F1FF3F40F0878063691A06E3
:1022C00063D463695B05F9D5002220236FF4806134
:1022D0006161326386F83D3086F83E20336C86F8C3
:1022E0003C2043F004033364336C042B66D001209C
:1022F0001FE06369D907C9D4FFF76AFAA0EB0B00A6
:10230000814504D3B9F1000F01D03468B8E7002348
:102310002022336386F83D2086F83E30326C3168E7
:1023200086F83C3042F0200232640B68DC0535D47C
:10233000032003B0BDE8F08F63699807B3D46369E5
:102340005A050AD4FFF744FAA0EB0B0081454ED39F
:10235000B9F1000F4BD034689BE7236843F4007356
:10236000236000226FF4806120236161326386F86C
:102370003D3086F83E20336C86F83C2043F0040361
:102380000120336403B0BDE8F08FB8F1010F09D12B
:10239000FFB20020276103B0BDE8F08F4FF4007357
:1023A0003364C5E73B0A2361B9F1FF3F2ED163696E
:1023B0001906EDD463695A05F9D585E732681368C3
:1023C00043F4007301201360B3E763691D06DCD496
:1023D000636959053FF578AFFFF7FAF9A0EB0B00F9
:1023E000814525D3B9F1000F22D0346862E700227D
:1023F0002023326386F83D3086F83E20336C86F821
:102400003C2043F020033364012092E763691B06FC
:10241000BED4636958053FF557AFFFF7D9F9A0EB74
:102420000B00814504D3B9F1000F01D03468BBE73C
:1024300000222023326386F83D3086F83E20336C3C
:1024400086F83C2043F0200333644DE72DE9F04F3C
:1024500004689846236843F480632360236883B04C
:1024600043F48073DDF830A0DDF834902360064635
:102470008B461746BAF1FF3F39D16569EB07FCD5AA
:102480000BF0FE0323615FFA8BFBBAF1FF3F03D031
:1024900068E061694A0550D461698907F9D500236C
:1024A000019363690193A3690193019BBAF1FF3F13
:1024B00040F0B8806369180667D463695905F9D597
:1024C000002220236FF480616161326386F83D3021
:1024D00086F83E20336C86F83C2043F004033364D6
:1024E000336C042B6CD0012003B0BDE8F08F63691E
:1024F000DD07C5D4FFF76CF9A0EB0900824504D3D2
:10250000BAF1000F01D03468B4E70023202233630E
:1025100086F83D2086F83E30326C316886F83C30D3
:1025200042F0200232640B68DC0502D54FF40073E0
:102530003364032003B0BDE8F08F236843F40073D5
:102540002360002220236FF480616161326386F88A
:102550003D3086F83E20336C86F83C2043F004037F
:102560003364C0E763699B0799D463695805E4D471
:10257000FFF72EF9A0EB09008245C0F08B80BAF17D
:10258000000F00F0878034687FE7B8F1010F0BD1AE
:10259000FFB22761BAF1FF3F6AD163691B0616D407
:1025A00063695F05F9D58BE73B0A2361BAF1FF3F09
:1025B0007FD163691D06EBD463695805F9D57FE7C0
:1025C0003268136843F40073012013608CE72368BA
:1025D00043F480732360BAF1FF3F13D16369D807D6
:1025E000FCD54BF001032361BAF1FF3F03D02BE090
:1025F00063695B05A1D46369DB4313F00203F7D180
:10260000184671E76369D907EBD4FFF7E1F8A0EB4F
:1026100009008245FFF479AFBAF1000F3FF475AFBE
:102620003468D8E763691A06AFD463695D053FF57E
:1026300047AFFFF7CDF8A0EB090082454CD3BAF1C4
:10264000000F49D0346831E76369DB4313F00203BC
:10265000D6D063695A053FF570AFFFF7B9F8A0EB24
:102660000900824516D3BAF1000F13D03468BBE7D6
:1026700063691D06ABD463695A053FF521AFFFF7C7
:10268000A7F8A0EB0900824526D3BAF1000F23D0AA
:1026900034687FE700222023326386F83D3086F8D5
:1026A0003E20336C86F83C2043F020033364012045
:1026B0001AE7636919063FF56BAF63695B053FF580
:1026C000FFAEFFF785F8A0EB0900824504D3BAF10D
:1026D000000F01D0346869E700222023326386F8B6
:1026E0003D3086F83E20336C86F83C2043F02003D2
:1026F0003364F5E6002800F0B98070B590F83D30FD
:10270000044603F0FF02002B00F098802368242287
:1027100084F83D201A6822F001021A601A6842F417
:1027200000421A601A6822F400421A6001F0C8FDE3
:1027300063684F498B424FD84E4A90427CD94E4DE8
:102740005A00A5FB0035431EB3FBF2F32268506824
:1027500020F03F0040EA95405060A90C01F1010CC7
:10276000116A21F03F0141EA0C011162D16940F682
:10277000FC7E013321F44F4113EA0E0F21F0FF01DB
:1027800061D104230B43D361D4E9073011680343BB
:1027900021F0C0010B4313609168D4E9030321F4D5
:1027A0000341034321F0FF010B439360D4E905305B
:1027B000D168034321F0FF010B43D360116800236C
:1027C00041F0010120201160236484F83D0023635F
:1027D00084F83E30184670BD284A90422CD9264DC8
:1027E000274EA5FB002C2268556825F03F0545EAD9
:1027F0009C4555604FEA9C414FF4967505FB01F1ED
:10280000A6FB0151156A890925F03F0501312943CD
:102810001162D169A56821F44F4121F0FF01ADB9E2
:10282000013803EB4303B0FBF3F30133C3F30B03B2
:10283000D3B143F40043A5E7012070BD80F83C20EC
:10284000FEF738FC62E7C3F30B039BE703EB83035C
:10285000013803EB8303B0FBF3F30133C3F30B0342
:1028600013B143F440438DE701238BE70120704708
:10287000A08601007F841E0083DE1B43FF083D000D
:10288000D34D62102DE9F04F044683B09946BDF850
:1028900034A00E9E0F469046FEF79AFF94F83D3006
:1028A000202B04D00227384603B0BDE8F08F054640
:1028B00005E0FEF78DFF401B192800F2AA80206872
:1028C00083696FEA030C1CF0020BF2D094F83C30E1
:1028D000012BE7D0012384F83C300368DB0771D576
:1028E0003946076827F4006707600C98606221206A
:1028F000CDE9006584F83D00402084F83E000020CA
:102900002064A4F82AA0608D20855748E0624B46D9
:1029100042462046FFF7A4FC0746F8B9238D002B5A
:1029200000F0A0802368721C58D15A6910061AD48E
:102930005A695105F9D500226FF480602021586151
:10294000226384F83D1084F83E20236C84F83C20F8
:1029500043F004032364236C042B38D0012738464A
:1029600003B0BDE8F08FD4F824C0B4F828E0614685
:102970000EF1FF3011F8012B1A61628D6162013A8C
:1029800092B2628582B258692285400717D542B952
:10299000721C59D15A69500749D45A695105F9D561
:1029A000C9E79CF8011019610CF102016162618DA7
:1029B000AEF10202013992B289B222856185002A04
:1029C000B1D1E5E7036843F00103036088E72268BB
:1029D000136843F400730127136064E75A69120611
:1029E000C1D45A695105A6D4FEF7F2FE401B8642B7
:1029F00001D3002E96D100222023226384F83D309B
:102A000084F83E20236C84F83C2043F020032364A8
:102A1000A1E72023C4F830B084F83D3084F83EB0FC
:102A2000236C84F83CB043F0200323643AE71A682F
:102A3000002142F4007220201A6084F83D0084F8DE
:102A40003C1084F83E102EE75A695207EFD45A69B9
:102A500051053FF570AFFEF7BBFE401B8642CAD35F
:102A6000002EC8D0236893E70000FFFF2DE9F04F48
:102A7000044687B09946BDF844A0129D0F46904683
:102A8000FEF7A6FE94F83D30202B04D002273846EE
:102A900007B0BDE8F08F064605E0FEF799FE801B03
:102AA000192800F2D280D4F800C0DCF81800C04326
:102AB00010F0020BF1D094F83C30012BE6D001234A
:102AC00084F83C30DCF80030D90737D5DCF800005A
:102AD00020F40060CCF80000109860622220CDE95C
:102AE000005684F83D00402084F83E000020206419
:102AF000A4F82AA0608D20859348E06239464B46B1
:102B000042462046FFF7A2FC0746002840F0AB8073
:102B1000228DD2B9236802905A6902929A69029270
:102B2000029A1A6842F400721A600023202284F884
:102B30003D2084F83C3084F83E30A8E7DCF80030D3
:102B400043F00103CCF80030C0E7012A00F02C81EB
:102B5000022A00F0BD8023680590596905919969A2
:102B600005910599032A49D8012A00F0EB80022A31
:102B700000F08980691C40F0BB805A695207FCD57F
:102B80001A68616A22F480621A601B690B70638D97
:102B9000616A228D013B0131013A9BB2616222855B
:102BA0006385691C226840F0AF8053695B07FCD5E0
:102BB0001368616A43F40073136013690B70638DCB
:102BC000228D606A2168013B9BB263850969531EAF
:102BD00000F1010C2385C4F824C04170228D638D5F
:102BE000616A013A013B013192B29BB26162228576
:102BF0006385002A99D0032A2368B5D95DB9C5E059
:102C00005A69D00600F1B280FEF7E2FD801B8542D2
:102C1000C0F0868023685A695206F1D5626A1B6942
:102C20001370638D2068228D616A013B9BB26385BE
:102C30004369013A92B201F1010C5B072285C4F8A5
:102C400024C0D6D503694B7036E02023C4F830B0D9
:102C500084F83D3084F83EB0236C84F83CB043F0F7
:102C60002003236412E70127384607B0BDE8F08F40
:102C70005A6950070CD4FEF7ABFD801B85424FD339
:102C8000002D4DD02368691CF2D15A695207FCD53A
:102C90001A6842F400721A601A69636A1A70638DC6
:102CA000626A013B9BB26385238D013B23852368C8
:102CB000511C1B6961625370636A228D0133636228
:102CC000638D013A013B92B29BB22285638590E706
:102CD0002368196821F480611960196841F4006162
:102CE000196004905969049199690491049939E72C
:102CF0005A6950073FF544AFFEF76AFD801B8542D5
:102D00000ED36DB1236835E7536958073FF550AFCF
:102D1000FEF75EFD801B854202D3002D7FF441AF9C
:102D200000222023226384F83D3084F83E20236C67
:102D300084F83C20012743F020033846236407B081
:102D4000BDE8F08F5DB92BE00000FFFF5A69D206A5
:102D50000CD4FEF73DFD801B8542E1D323685A6900
:102D60005106F3D51A69636A1A70A5E700226FF05D
:102D7000100020215861226384F83D1084F83E2021
:102D8000236C236484F83C20012780E65A695206AC
:102D90003FF544AF5A69D106E8D4FEF719FDBFE705
:102DA0005A695006F6D5DDE72368196821F4806179
:102DB00019600390596903919969039103991968FE
:102DC00041F400711960CDE6F0B58BB0002800F039
:102DD000858090F8BD340468054603F0FF02002B9F
:102DE00076D02046032385F8BD34E36B2E4613F4DA
:102DF000807308BF2B6102F04FFA56F810EBB4460F
:102E0000BCE80F006C460FC4BCE80F000FC49CE880
:102E1000030084E803002F1D97E80E00704602F0BF
:102E200037F9044630B101240223204685F8BD3429
:102E30000BB0F0BD0146286802F036FA686858B356
:102E400022464FF0010E214602EBC20305EB83033D
:102E500002F1010C83F83C20A3F844205FFA8CF2C5
:102E60008242C3E9121183F83DE083F840105965AE
:102E7000EAD3002204EBC40305EB8303611C83F84F
:102E80007C42CCB28442C3E9A22283F87D2283F83B
:102E90008022C3F89422EDD30FCE6C460FC40FCE20
:102EA0000FC496E8030084E8030097E80E00286842
:102EB00002F032FA04460028B5D1012385F8380023
:102EC000286885F8BD3402F0D9FE20460BB0F0BD6D
:102ED00080F8BC24FEF7EAFB286883E7012420463B
:102EE0000BB0F0BD10B590F8BC34012B044600685F
:102EF00016D0A36A0122934284F8BC2408D002F0C1
:102F0000C3F9206802F0AAFE002084F8BC0410BDBA
:102F1000A3699342F3D0836B43F480338363EEE77A
:102F2000022010BD2DE9F04F056889B004462846FF
:102F300002F0E2FE10B109B0BDE8F08F83462068D0
:102F400002F0ACFE0028F6D0D5F808382068C3F3AC
:102F50000D23C4F8FC3402F0A1FE10F0020F20682B
:102F600005F5006303931EBF436903F00203436149
:102F700002F094FE10F0100F206812D0836923F045
:102F8000100383612E6AC6F34343022B06F00F073A
:102F900000F0CB83062B00F00783836943F0100316
:102FA000836102F07BFE070300F16982206802F072
:102FB00075FE460300F11182206802F06FFE0028C2
:102FC000C0F28281206802F069FE070500F13D81B0
:102FD000206802F063FEC00400F1A081206802F0C6
:102FE0005DFE10F4005F206840F0818102F056FE23
:102FF000010700F1E981206802F050FE020671D558
:10300000AA69636822F08002012BAA616AD994F848
:10301000A322012A00F0EA83022B63D994F8C72285
:10302000012A00F0FE83032B5CD994F8EB22012ADD
:1030300000F0B382042B55D994F80F23012A00F035
:10304000C682052B4ED994F83323012A00F026843A
:10305000062B47D994F85723012A00F03384072B15
:1030600040D994F87B23012A00F04A84082B39D9EF
:1030700094F89F23012A00F05784092B32D994F841
:10308000C323012A00F064840A2B2BD994F8E72388
:10309000012A00F071840B2B24D994F80B24012A07
:1030A00000F07E840C2B1DD994F82F24012A00F007
:1030B0007F840D2B16D994F85324012A00F09F84A5
:1030C0000E2B0FD994F87724012A00F0A6840F2B39
:1030D00008D994F89B34012B04D1206804F593613E
:1030E00002F0D0FC206802F0D9FDC30240F1AB80B1
:1030F0006368012B40F2898094F86420D5F8201988
:10310000012A00F01382022B7FD994F88820D5F889
:103110004019012A00F01D82032B76D994F8AC20C7
:10312000D5F86019012A00F02082042B6DD994F89B
:10313000D020D5F88019012A00F02382052B64D90C
:1031400094F8F420D5F8A019012A00F04383062B47
:103150005BD994F81821D5F8C019012A00F05583DD
:10316000072B52D994F83C21D5F8E019012A00F038
:103170006083082B49D994F86021D5F8001A012AF8
:1031800000F06383092B40D994F88421D5F8201AE4
:10319000012A00F06E830A2B37D994F8A821D5F8BC
:1031A000401A012A00F082830B2B2ED994F8CC21EF
:1031B000D5F8601A012A00F097830C2B25D994F8D2
:1031C000F021D5F8801A012A00F0A2830D2B1CD91A
:1031D00094F81422D5F8A01A012A00F0AD830E2B22
:1031E00013D994F83822D5F8C01A012A00F0B88310
:1031F0000F2B0AD994F85C22D5F8E01A012A00F0C6
:10320000C383102B01D9D5F8003B2068436903F430
:103210008013436102F042FD870221D4206802F04E
:103220003DFD400000F1C780206802F037FD4107F6
:103230007FF581AE23685D686A0700F197825A685E
:103240002A435A6077E62068E4E7039B9B68DE0721
:1032500000F188822068436903F400634361B8E6A3
:10326000D4F804C0BCF1010F28D905F53262234619
:10327000012106E00131614502F1200203F124033E
:103280001CD093F8A40216680128F3D1002EF1DABD
:10329000D4F8FC7406F4803607F00107BE42E9D189
:1032A00083F8A302A86940F08000A8616869060657
:1032B000E0D4039A536843F4007353602068436971
:1032C00003F400134361AAE7039A536823F0010350
:1032D000536094F8F434012B00F03481204604F05C
:1032E000B1F82068436903F0004343616BE602F0E4
:1032F00007FD206802F054F9E060266800F0DAFF6C
:10330000227B0146304601F045FF204604F06CF870
:103310002068436903F40053436167E6039A206819
:10332000536823F001035360102102F00FF9606825
:10333000E0B105F510634FF67F3199601A6822F409
:1033400000121A60C3F80812D3F8002222F4001207
:10335000C3F80022D3F800220BF1010B42F0006207
:103360008345C3F8002203F12003E6D10399226BC1
:10337000CB6943F00113CB61002A40F0CC804B694C
:1033800043F4005343F02B034B610B6943F00B03F1
:103390000B61D5F80038217C206823F4FE63C5F862
:1033A000003804F2C44202F0BDFC2068436903F413
:1033B0008053436113E6204604F050F820684369C7
:1033C00003F08043436130E7204604F009F82068A9
:1033D000436903F0080343610EE6206802F06AFCCB
:1033E000804600283FF4E8AD4FF0000A20680495BD
:1033F000274605F510695646CDF814B009E05FEA96
:10340000580806F1010607F1240709F1200900F028
:10341000E58018F0010FF2D05FFA86FA514602F00B
:103420005BFCC207054613D5039901204B6B06F0E0
:103430000F0200FA02F223EA02034B632169C9F882
:103440000800814200F097815146204603F0BEFFFC
:103450002B0744BF0823C9F80830E80644BF1023EF
:10346000C9F80830690644BF4023C9F80830AA07E4
:1034700000F14E812B0600F1F5802068BFE720683F
:1034800002F010FC064600283FF490AD05F53067C9
:10349000A2464FF00009CDF810B008E0760809F117
:1034A000010907F120070AF1240A00F09A80F007C9
:1034B000F4D55FFA89FB2068594602F003FC10F04E
:1034C000010F804640F0AF8018F0080F40F08C806C
:1034D00018F0100F1CBF1022BA6018F0020F0ED0A7
:1034E0006A69110604D5039B5A6842F480625A60E7
:1034F0009AF87F22012A00F080810223BB6018F035
:10350000200F1CBF2023BB6018F4005F1CBF4FF4CA
:103510000053BB60C2E7D1F8843043F00B03C1F81D
:1035200084304B6C43F00B034B6432E70029BFF649
:10353000EAAD214684F8632051F8600B02F0A2FA4C
:103540006368E0E5002184F8F414204600F0FAFBFB
:10355000C7E60029BFF6E0AD214684F8872051F880
:10356000840B02F08FFA6368D6E50029BFF6DDAD63
:10357000214684F8AB2051F8A80B02F083FA636867
:10358000D3E50029BFF6DAAD214684F8CF2051F803
:10359000CC0B02F077FA6368D0E5206804F53A7145
:1035A00002F070FA636845E5082204F2C441284637
:1035B00007EBC70702F0C0FA04EB8702C6F30A1351
:1035C000D2F89C1220680B44C2F89C32E5E42068D3
:1035D00004F5437102F056FA636832E5DDE9045BF5
:1035E000EBE4DDF810B0E1E42168BD4B0822BA60DD
:1035F00001F53062096C02EB49129942906840F281
:10360000CB80000402D54FF400419160204603F0C6
:10361000CDFE216901297FF45BAF206804F2C4422A
:1036200002F080FB54E7206821690122BA6000F5AE
:10363000306202EB49120129D0F840C0936800F0D3
:10364000AF80A8498C4500F00C81B9F1000F04D17E
:10365000D4F89422002A00F0DA815946204603F07B
:10366000ABFE31E7FB6D7D6DD4F800B0AB42584640
:103670003FF6C5AE0BF5106202EB461211469646B8
:10368000BA6C8969CDF81CB0A5EB030C624528BF64
:10369000624689B20332B1EB920FC0F09780524676
:1036A0000696CA462646C1467446904619E0ED1A6B
:1036B000BB6CF96C9D4228BF1D46337C009342468B
:1036C000ABB2584602F022FAFB6CA1692B44FB64B2
:1036D000FB6D89B22B440335B1EB950FFB656DD3C0
:1036E0007D6D9D42E3D83446069ED4F800B0C846AE
:1036F000D146079B06F00F0203F500610125D3F8C0
:10370000343805FA02F223EA020358464B6376E6A0
:103710000498314601F01AFF97F83F30012B00F072
:10372000B4800223C9F80830A4E647F6F0731E42BD
:103730003FF433AC07EBC70704EB8707C6F30A1265
:10374000D7F88C122846164602F0F6F9D7F88C32D4
:1037500020683344C7F88C32D7F89C323344C7F81A
:103760009C321AE4204603F055FE73E5204603F030
:1037700079FE236863E5D7E912231344FB64002E26
:103780007FF462AE636D002B7FF45EAE206804F2BE
:10379000C44202F0C7FA57E6204603F007FE97E658
:1037A000190740F197804E498C457FF68DAE18047D
:1037B0007FF58AAE4FF40041916085E634467D6D19
:1037C000D4F800B0069EC8465846D146AB42FFF436
:1037D00016AE8EE70029BFF6BAAC214684F8F32076
:1037E00051F8F00B02F04EF96368B0E4206804F57C
:1037F000287102F047F963680EE4002359468AF8FD
:103800007F32204603F022FE77E60029BFF6A8ACFF
:10381000206884F8172104F58A7102F033F963688F
:103820009EE4206804F5317102F02CF96368FFF71B
:10383000FABB0029BFF69DAC206884F83B2104F553
:103840009C7102F01FF9636893E40029BFF69AACFB
:10385000206884F85F2104F5AE7102F013F9636803
:1038600090E41904A6D49B067FF5F7AE2021916061
:10387000F3E60029BFF68FAC206884F8832104F5B5
:10388000C07102F0FFF8636885E44FF0000387F829
:103890003F305146204603F0DDFD42E7206804F545
:1038A0004C7102F0EFF86368FFF7D2BB0029BFF656
:1038B0007BAC206884F8A72104F5D27102F0E2F80D
:1038C000636871E4206804F5557102F0DBF8636801
:1038D000FFF7C5BB990673D520219160F4E500BFC1
:1038E0000A30544F0A31544F0029BFF666AC2068A5
:1038F00084F8CB2104F5E47102F0C4F863685CE459
:10390000206804F55E7102F0BDF86368FFF7AEBB96
:103910000029BFF65BAC206884F8EF2104F5F6714E
:1039200002F0B0F8636851E4206804F5677102F0B2
:10393000A9F86368FFF7A1BB0029BFF650AC206867
:1039400084F8132204F5047102F09CF8636846E4DD
:10395000206804F5707102F095F86368FFF794BB76
:103960000029BFF645AC206884F8372204F50D71B4
:1039700002F088F863683BE4206804F5797102F08E
:1039800081F86368FFF787BB0029BFF63AAC20686F
:1039900084F85B2204F5167102F074F8636830E471
:1039A000206804F5816102F06DF86368FFF77ABB67
:1039B000206804F22C4102F065F86368FFF779BBD8
:1039C00013F0280F7FF480AD1B498C4502D91B04EE
:1039D0003FF5F0AE1169DAF89822C1F31201521ADC
:1039E000CAF89C22B9F1000F7FF437AED4F89412D4
:1039F000D9B1D4F88C120A44C4F88C222DE6206880
:103A000004F58A6102F03EF86368FFF759BB04F2DF
:103A1000C442494602F086F91FE6206804F2744168
:103A200002F030F86368FFF752BB04F2C442012190
:103A300002F078F911E600BF0A30544F90F8BC2428
:103A4000012A0DD010B504460122006884F8BC2478
:103A500084F8381002F0F2F8002084F8BC0410BD9D
:103A60000220704710B501F00F0E0906044627D456
:103A70004FF0240C0CFB0E0C0CF51F710EEBCE0C52
:103A800000EB8C0C00208CF87D02CA604A7881F82B
:103A900000E00B710AB1A1F808E0022B04BF00237B
:103AA0004B7194F8BC34012B18D0012384F8BC343A
:103AB000206801F081FD002384F8BC34184610BD55
:103AC000242000FB0E4000F13C010EEBCE0004EB85
:103AD00080004FF0010C80F83DC0D6E7022010BDF9
:103AE00001F00F0303EBC30211F0800F4FF024012C
:103AF00010B500EB8202044601FB030113D101F56E
:103B00001F71002082F87D020B7094F8BC34012BE9
:103B100012D00123206884F8BC3401F099FD002004
:103B200084F8BC0410BD3C31012082F83D000B70CC
:103B300094F8BC34012BECD1022010BD10B501F07B
:103B40000F0404EBC40C00EB8C0C2421CCF8943251
:103B50000023CCF88C228CF87C42CCF89C328CF878
:103B60007D32036901FB0401012B08BFCCF89022D0
:103B7000006801F51F71DAB21CB901F0D7FE002010
:103B800010BD01F0C7FD002010BD00BF01F00F0106
:103B900001EBC10100EB8101D1F89C02704700BF2D
:103BA00010B501F00F0404EBC40C00EB8C0C2421C5
:103BB000CCF854300023CCF85C300123CCF84C20F6
:103BC0008CF83C408CF83D30036901FB0401012B6B
:103BD00008BFCCF8502000683C31DAB21CB901F0C3
:103BE000A5FE002010BD01F095FD002010BD00BF16
:103BF00038B5436801F00F059D4233D80B060446E3
:103C00001CD401EBC103242202FB010100EB83035E
:103C100001F51F71002283F87D2201238B700D7046
:103C200094F8BC249A421BD0206884F8BC3401F07C
:103C3000ABFFCDB1002084F8BC0438BD05EBC50353
:103C4000242101FB050100EB830301223C3183F8B1
:103C50003D2001238B700D7094F8BC249A42E3D16F
:103C6000022038BD012038BD217C206804F2C44206
:103C700002F058F8DEE700BF426838B501F00F03E4
:103C800093422ED803EBC30211F0800F4FF02401B2
:103C9000044600EB820201FB030115D101F51F71FF
:103CA0000020002582F87D028D700B7094F8BC34E2
:103CB000012B14D00123206884F8BC3401F092FF5A
:103CC00084F8BC54284638BD3C310120002582F8D8
:103CD0003D008D700B7094F8BC34012BEAD10220AA
:103CE00038BD012038BD00BF10B40468606A31B926
:103CF00040EA0240A06200205DF8044B7047A36ACE
:103D0000B1F1010C00EB13400BD0002303F1400193
:103D100004EB810101334968DBB2634500EB1140DC
:103D2000F4D30CF1400C04EB8C0C40EA0240CCF8CC
:103D300004005DF8044B0020704700BF03680020BA
:103D400059627047704700BF002800F0A2812DE93A
:103D5000F0410368DD0782B004462FD59E498A688A
:103D600002F00C02042A00F0ED808A6802F00C02D6
:103D7000082A00F0E3806368B3F5803F00F0EC8030
:103D8000B3F5A02F00F07581934D2A6822F480329C
:103D90002A602A6822F480222A60002B40F0E18009
:103DA000FDF716FD064605E0FDF712FD801B6428B1
:103DB00000F201812B689B03F6D423689F0728D566
:103DC000854A916811F00C0F00F09080916801F025
:103DD0000C01082900F08680E368002B00F00E81BA
:103DE0007E4B7D4E01221A60FDF7F2FC054605E090
:103DF000FDF7EEFC401B022800F2DD8033689807D7
:103E0000F6D53368226923F0F80343EAC20333602E
:103E100023681A0751D458072FD56F4A136C13F033
:103E200080537FD000256E4E3368D90540F1B380B2
:103E3000A368012B00F0C380052B00F02C81664E97
:103E4000326F22F001023267326F22F004023267D1
:103E5000002B40F0B980FDF7BBFC41F288380746E3
:103E600005E0FDF7B5FCC01B404500F2A480336FB0
:103E70009807F6D4002D40F00681A069C8B1564DD0
:103E8000AB6803F00C03082B00F0C980534B0022F1
:103E900002281A6600F00981FDF79AFC044605E045
:103EA000FDF796FC001B022800F285802B689B0121
:103EB000F6D4002002B0BDE8F08163690BB3474B34
:103EC000454E0122C3F8802EFDF782FC054604E032
:103ED000FDF77EFC401B02286DD8736F9B07F7D55A
:103EE000236898E7526856023FF576AF3A4A12685F
:103EF000950744D5E268012A41D0012002B0BDE80F
:103F0000F081364A344EC2F8803EFDF761FC05462A
:103F100004E0FDF75DFC401B02284CD8736F9F073F
:103F2000F7D4DDE70193136C43F080531364136CF3
:103F300003F080530193019B012574E74A68500206
:103F40007FF519AF244A126891037FF537AF626895
:103F5000002A7FF433AFD0E71F4A136843F480335D
:103F60001360FDF735FC1C4E054604E0FDF730FC00
:103F7000401B64281FD833689A03F7D51DE71649FC
:103F800020690A6822F0F80242EAC0020A601A07B1
:103F90007FF541AF91E7336843F480733360FDF7F9
:103FA00017FC07463368DA053FF542AFFDF710FC12
:103FB000C01B0228F6D9032002B0BDE8F081064AF2
:103FC000136F43F001031367FDF702FC024F06462F
:103FD00041F288380BE000BF003802400000474241
:103FE00000700040FDF7F4FB801B4045E3D83B6FB9
:103FF0009B07F7D5002D3FF440AF44E0424A434EC3
:104000001360FDF7E5FB054604E0FDF7E1FB401B0F
:104010000228D0D833689907F7D42368F9E6012835
:104020003FF448AF6B68E26903F4800191427FF48A
:1040300064AF226A03F03F0191427FF45EAF616A90
:1040400047F6C0721A40B2EB811F7FF456AFA26AE6
:10405000520803F44031013AB1EB024F7FF44DAF07
:10406000E26A03F07063B3EB026F14BF012000201B
:1040700020E7264B1A6842F480221A601A6842F43C
:1040800080321A606DE7214A136C23F08053136469
:10409000F3E6012070471D4B1A6F42F004021A67C5
:1040A0001A6F42F001021A678EE7FDF791FB064690
:1040B00005E0FDF78DFB801B02283FF67CAF2B68E7
:1040C0009901F6D4D4E90731626A0B4343EA8213BB
:1040D000D4E90A21520843EA0163013A0A4943EA52
:1040E000024301226B600A66FDF772FB074D04462E
:1040F00005E0FDF76DFB001B02283FF65CAF2B6867
:104100009A01F6D5D5E600BF0000474200380240CC
:10411000164908B58B6803F00C03042B1BD0082B41
:1041200017D14A684B68496813F4800302F03F02D4
:1041300013D10F48C1F38811A1FB0001FCF7A0F8CF
:104140000A4B5B68C3F3014301335B00B0FBF3F040
:1041500008BD074808BD074808BD0648C1F38811D7
:104160000023A1FB0001FCF78BF8E9E700380240CF
:104170000024F40040787D01002800F08780484A40
:10418000136803F007038B422DE9F0410D46044606
:1041900009D2CBB21370136803F007038B4202D02D
:1041A0000120BDE8F0812368980714D5590704D58C
:1041B0003C498A6842F4E0528A601A0704D53949BA
:1041C0008A6842F460428A603649A0688A6822F0B0
:1041D000F00202438A60DF0721D56268012A57D0C6
:1041E000931E012B2F4B1B684DD99907D8D52D4E07
:1041F000B36823F003031343B360FDF7E9FA41F218
:104200008838074604E0FDF7E3FAC01B404544D870
:10421000B368626803F00C03B3EB820FF3D1204A5A
:10422000136803F00703AB4206D9EBB213701368AF
:1042300003F00703AB42B3D123685A0706D51949E7
:10424000E0688A6822F4E05202438A601B0707D5BF
:10425000144A2169936823F4604343EAC1039360DD
:10426000FFF756FF0F4A104C92681049C2F3031231
:104270000346A25C0E48D34000680B60FDF74EF881
:104280000020BDE8F0819801B1D489E70120704792
:10429000044B1B689E03AAD482E7032081E700BF7A
:1042A000003C02400038024098A0000808010020AD
:1042B00010010020014B1868704700BF0801002062
:1042C000044B05499B68054A0868C3F38223D35C05
:1042D000D84070470038024008010020A8A000081C
:1042E000044B05499B68054A0868C3F34233D35C15
:1042F000D84070470038024008010020A8A00008FC
:104300000E4B0F2202609A6802F0030242609A6824
:1043100002F0F00282609A6802F4E052C2609B6888
:10432000DB0810B403F4E053054C036123685DF827
:10433000044B03F007030B60704700BF00380240D6
:10434000003C0240704700BF002876D010B590F8BE
:104350003D30044603F0FF02002B55D02268384957
:10436000022384F83D308A42136852D0B2F1804F64
:1043700021D0A1F57C418A421DD001F580618A429D
:1043800019D001F580618A4215D001F59A318A422F
:1043900015D001F580618A4211D001F580618A4211
:1043A0000DD0A069E16823F08003034313606368C4
:1043B000D162936210E0A16823F070030B4320697F
:1043C000A16923F44073034323F08003E0680B43A7
:1043D00061681360D06291620123536184F84630B2
:1043E00084F83E3084F83F3084F8403084F841301F
:1043F00084F8423084F8433084F8443084F84530FF
:1044000084F83D30002010BD80F83C20FFF79AFF73
:10441000A4E7A068216923F07003034323F44073E9
:104420000B43A16923F080030B431360E368D3625D
:104430006368936263691363CEE70120704700BF2E
:104440000000014090F83D30012B27D10368154949
:10445000022280F83D20DA688B4242F00102DA60E5
:1044600011D0B3F1804F0ED00F4A93420BD002F51A
:104470008062934207D002F58062934203D002F536
:104480009A32934204D19A6802F00702062A07D0B2
:104490001A6842F0010200201A607047012070473C
:1044A000002070470000014000040040002876D042
:1044B00010B590F83D30044603F0FF02002B55D0B4
:1044C00022683849022384F83D308A42136852D06A
:1044D000B2F1804F21D0A1F57C418A421DD001F577
:1044E00080618A4219D001F580618A4215D001F5B8
:1044F0009A318A4215D001F580618A4211D001F5C6
:1045000080618A420DD0A069E16823F080030343F3
:1045100013606368D162936210E0A16823F07003B6
:104520000B432069A16923F44073034323F0800304
:10453000E0680B4361681360D062916201235361AC
:1045400084F8463084F83E3084F83F3084F84030B8
:1045500084F8413084F8423084F8433084F84430A1
:1045600084F8453084F83D30002010BD80F83C20B0
:10457000FCF7DCFFA4E7A068216923F07003034384
:1045800023F440730B43A16923F080030B431360B2
:10459000E368D3626368936263691363CEE70120C3
:1045A000704700BF0000014070B505460C46002969
:1045B00040F0828090F83E100229C8B24FD095F8A2
:1045C0003E10A1F10101B1FA81F14909002949D058
:1045D000002A45D0002C47D1022185F83E10686A98
:1045E000744E11462A68C663734E0664734EC664E1
:1045F0003432FDF7EFFB002834D12B68DA6842F43F
:104600000072DA60186A012204F01F0402FA04F44E
:1046100020EA04001862196A694A0C4393421C623A
:1046200000F0C180B3F1804F0ED0664A93420BD0A8
:1046300002F58062934207D002F58062934203D074
:1046400002F59A32934205D19A6802F00702062ACF
:1046500000F0AE801A6842F0010200201A6070BDBE
:10466000002BB7D0012070BD042C60D0082C4FF077
:10467000020146D085F841100C2CF3D801A151F865
:1046800024F000BFDF4500086546000865460008C5
:10469000654600083547000865460008654600087D
:1046A000654600086546000865460008654600083E
:1046B000654600085D470008042964D008290CBF3E
:1046C00090F8401090F84110A1F10201B1FA81F187
:1046D000490979B9002C3FF472AF042C5BD0082C47
:1046E0000AD095F841100129BCD1002ABED1002B77
:1046F000BCD0B7E7022070BD95F840100129F4D076
:10470000B0E7E86A2B4E85F8401011462A68C66368
:10471000294E0664294EC6643C32FDF75BFB002837
:10472000A0D12B68DA6842F40062DA606AE70221FD
:1047300085F83F10A86A1F4E11462A68C6631E4EB0
:1047400006641E4EC6643832FDF744FB002889D14A
:104750002B68DA6842F48062DA6053E7286B154E02
:1047600011462A68C663144E0664144EC66440326D
:10477000FDF730FB00287FF475AF2B68DA6842F450
:104780008052DA603EE790F83F10A1F10201B1FAE1
:1047900081F149099DE795F83F10A1F10101B1FAB6
:1047A00081F1490912E75A6C42F400425A644BE71E
:1047B000002070BDC54A00084D4B0008054D00089B
:1047C000000001400004004038B50C4605460C29A5
:1047D00008D8DFE801F0450707073C07070733075C
:1047E00007070900012038BD0268006BD36823F475
:1047F0008053D360FDF72EFB2B6804F01F001A6A6C
:104800000121814022EA01021A62284A196A1962CA
:10481000934238D0196A41F21112114208D1196A33
:1048200040F24442114203D11A6822F001021A6098
:104830000123F4B985F83E30204638BD0268C06ACD
:10484000D36823F40063D360FDF704FBD4E7026868
:10485000806AD36823F48063D360FDF7FBFACBE76B
:104860000268406AD36823F40073D360FDF7F2FA5C
:10487000C2E7042C16D0082C0CBF85F8403085F810
:104880004130002038BD196A41F211121142C1D1E4
:10489000196A40F244421142BCD15A6C22F40042DF
:1048A0005A64B7E785F83F30002038BD000001406A
:1048B00090F83C30012B00F0CA800123F0B480F85E
:1048C0003C300C2A08D8DFE802F03D0707076807EC
:1048D0000707960707070E00002380F83C300122E7
:1048E0001046F0BC704703680E681A6A22F48052C2
:1048F0001A621A6A5D68DC6924F4E64444EA062414
:104900008E6822F4005242EA06326B4EB34200F047
:10491000BD805D60DC614C681C641A62DA690D69F7
:1049200042F40062DA61DC6924F48064DC61D969F4
:1049300041EA0521D961002380F83C30002210466D
:10494000F0BC704703680E681A6A22F001021A620E
:104950001A6A5D689C6924F0730434438E6822F0FF
:1049600002023243544EB34274D05D609C614C6885
:104970005C631A629A690D6942F008029A619C6947
:1049800024F004049C61996929439961002380F80B
:104990003C3000221046F0BC704703680E681A6A6B
:1049A00022F010021A621A6A5D689C6924F4E644D7
:1049B00044EA06248E6822F0200242EA06123E4EA5
:1049C000B34254D05D609C614C689C631A629A69E2
:1049D0000D6942F400629A619C6924F480649C61D0
:1049E000996941EA05219961002380F83C30002251
:1049F0001046F0BC704703680E681A6A22F4807291
:104A00001A621A6A5D68DC6924F0730434438E68A4
:104A100022F4007242EA0622274EB3423CD05D6087
:104A2000DC614C68DC631A62DA690D6942F00802E5
:104A3000DA61DC6924F00404DC61D9692943D961B5
:104A4000002380F83C3000221046F0BC7047022260
:104A500010467047CE6822F008023243D1E905675C
:104A600025F440753E4322F0040235437DE7CE68CD
:104A700022F0800242EA0612D1E9056725F440657A
:104A80003E4322F0400245EA86059BE74E6925F445
:104A9000804545EA86153CE7CE6822F4006242EA8A
:104AA0000622D1E9056725F440553E4322F4806291
:104AB00045EA0615B3E700BF00000140704700BF9C
:104AC000704700BF10B5846B636A83421CD0A36A31
:104AD00083420BD0E36A834223D0236B834229D0E5
:104AE0002046FBF74FFD0023237710BD02222277DB
:104AF000DB69002BF4D1012384F83F302046FBF71B
:104B000041FD0023237710BD01222277DB69002BB2
:104B1000E6D184F83E202046FBF734FD00232377BE
:104B200010BD04222277DB69002BD9D1012384F840
:104B30004030D5E708222277DB69002BD0D1012352
:104B400084F84130CCE700BF704700BF10B5846BDC
:104B5000636A834218D0A36A83420DD0E36A83421A
:104B60001AD0236B834204BF082323772046FFF724
:104B7000EBFF0023237710BD022323772046FFF7A6
:104B8000E3FF0023237710BD012323772046FFF79F
:104B9000DBFF0023237710BD042323772046FFF794
:104BA000D3FF0023237710BD704700BF03681A6945
:104BB000910710B5044602D5DA6892075FD41A69E6
:104BC000500702D5DA68510746D41A69120702D590
:104BD000DA6810072ED41A69D20602D5DA68D00630
:104BE00018D41A69D10702D5DA68D2075DD41A69D8
:104BF000100602D5DA6811065FD41A69520602D58A
:104C0000DA68500661D41A69910602D5DA6892060C
:104C100043D410BD6FF01001082219612277DB69BF
:104C200013F4407F204664D0FFF74AFF0022236838
:104C30002277D6E76FF00801042219612277DB6939
:104C40009907204652D1FFF739FF2046FBF79AFC1F
:104C5000002223682277BEE76FF004010222196167
:104C600022779B6913F4407F20463CD1FFF726FF53
:104C70002046FBF787FC002223682277A5E76FF028
:104C800002010122196102779B699B0725D0FFF77A
:104C900017FF00222368227791E76FF02002204659
:104CA0001A61BDE8104000F0A7B86FF001021A6168
:104CB0002046FCF7FFFA236899E76FF080021A613B
:104CC000204600F09BF8236897E76FF040021A61D6
:104CD0002046FFF769FF236895E7FFF7EFFE2046C0
:104CE000FBF750FCD5E7FFF7EBFEC4E7FFF7E8FE64
:104CF000AEE7FFF7E3FE2046FBF744FC96E700BF74
:104D0000704700BF10B5846B636A83421CD0A36AEE
:104D100083420ED0E36A834220D0236B834228D0A3
:104D2000012384F83D302046FFF7EAFF0023237774
:104D300010BD0123022284F83F3022772046FFF77E
:104D4000DFFF0023237710BD0123237784F83E3053
:104D50002046FFF7D5FF0023237710BD012304224F
:104D600084F8403022772046FFF7CAFF00232377DC
:104D700010BD0123082284F8413022772046FFF736
:104D8000BFFF0023237710BD90F83C30012B2FD0BC
:104D90000368022230B480F83D205A680D689C6890
:104DA00022F070022A435A60124A934212D0B3F1A1
:104DB000804F0FD0A2F57C4293420BD002F5806267
:104DC000934207D002F58062934203D002F59A32F3
:104DD000934204D14A6824F0800414439C60002369
:104DE000012280F83D2080F83C3030BC18467047E6
:104DF0000220704700000140704700BF704700BFAD
:104E0000002800F08F8038B590F83D30044603F05C
:104E1000FF02002B00F081802368E068242284F8E0
:104E20003D20DA6822F40052DA601969A26821F4A0
:104E3000405101432069196102436069D968024306
:104E4000E06921F4164121F00C0102430A43DA60C3
:104E50005A69A069344922F4407202438B425A6174
:104E600035D0324A934232D0FFF72AFAE369B3F5DC
:104E7000004F32D0636819219A00A0FB01019B0FFB
:104E8000FBF7FEF92A49A1FB00325209642505FB14
:104E90001200000132302368A1FB0010120102EB66
:104EA000501098601A6922F490421A615A6922F0EF
:104EB0002A025A61DA680025202142F40052DA60A1
:104EC000256484F83D1084F83E10284638BDFFF76D
:104ED00007FAE369B3F5004FCCD162681921921843
:104EE0004FF000035B41A0FB0101FBF7C9F9104B38
:104EF000A3FB00214D09642202FB1502D2003232CD
:104F0000A3FB0232C2F342111209236801EB05111F
:104F100002F4F8720A449A60C4E780F83C20FCF777
:104F20005FFB79E701207047001001400014014049
:104F30001F85EB512DE9F843054690F83D002028E8
:104F400077D18946002940D01446002A3DD01E461C
:104F500095F83C30012B6CD0012385F83C304FF0A4
:104F600000082123C5F8408085F83D30FCF730FC6F
:104F7000AB68AC84B3F5805FEC8407465CD0EB8C07
:104F800000229BB285F83C20002B7ED02C68721C3E
:104F90001ED122681306FCD5B9F1000F44D019F8D0
:104FA000013B6360EB8C013B9BB2EB84EB8C9BB2CF
:104FB000002BECD1711C45D123685A06FCD5202367
:104FC00085F83D300020BDE8F8830120BDE8F88376
:104FD00023681806E0D42EB1FCF7FAFBC01B86420A
:104FE0002C68D4D204F10C0353E8003F23F4D073AF
:104FF00004F10C0141E80032002AF3D104F114035A
:1050000053E8003F23F0010304F1140141E80032AA
:10501000002AF3D1202385F83D3085F83C2085F81F
:105020003E300320BDE8F88338F8023BC3F30803A1
:10503000B7E70220BDE8F8832B69002B9FD1C84653
:1050400099469CE723685B06B9D42EB1FCF7C0FBF8
:10505000C01B86422C68ADD204F10C0353E8003F1C
:1050600023F4D07304F10C0141E80032002AF3D19B
:1050700004F1140353E8003F23F0010304F1140189
:1050800041E80032002AF3D1C4E72C6892E700BF60
:1050900084B082B00DF10C0C8CE80E00089A012A45
:1050A00003462CD1826B0F9922F480328263C2684E
:1050B00022F4840222F04002C260C268012922F474
:1050C0004012C2605FD000223149009202E01A69AA
:1050D000002A2DDB009A01320092009A8A42F6D90A
:1050E0000320069A012A07D19A6842F006029A60C4
:1050F0009A6842F020029A6002B004B07047C26819
:105100002349002042F04002DA60019002E01A696F
:10511000002A25DB019A01320192019A8A42F6D9CE
:1051200003200C9ABAB99A6B42F480329A63D8E79A
:10513000002200921A69164942F001021A6103E046
:10514000186910F00100CCD0009A01320092009A48
:105150008A42F5D9C4E79A6B22F480329A63C0E799
:10516000002201921A690A4942F001021A6103E021
:10517000186910F00100D4D0019A01320192019A0D
:105180008A42F5D9CCE7C26842F48012C2609AE73D
:10519000400D0300022A03460BD04FF4105CD9687F
:1051A00021F47051D960DA6842EA0C020020DA601A
:1051B0007047264A26480A44824232D9254A264860
:1051C0000A44824230D92548A1F57402A2F5105252
:1051D00082422CD92248A1F18372A2F5E742824291
:1051E00028D3204A20480A44824226D91F4A204810
:1051F0000A44824224D31F4A1F480A448242CCD325
:105200001E48A1F1B772A2F5585282421BD31C4A24
:105210001C480A44824234BF4FF4E05C4FF4C05C47
:10522000BDE74FF4705CBAE74FF4605CB7E74FF44A
:10523000505CB4E74FF4405CB1E74FF4305CAEE74C
:105240004FF4205CABE74FF4005CA8E7405327FF26
:10525000FF340C00401E1BFF3F420F007F4F120027
:1052600020D6130060B6E5FE5FE3160000D3CEFE45
:1052700040771B00C05BB3FEC09121002075380051
:10528000E05459FEE09C4100034600209A6842F039
:1052900001029A60704700BF034600209A6822F01E
:1052A00001029A60704700BF38B5C368012923F036
:1052B000C0430546C36018D0A9B9C36843F0804312
:1052C0000C46C36001E0322C0DD00120FCF786FAB9
:1052D0006B69DB0704F10104F5D4A4F13200B0FAE4
:1052E00080F0400938BD012038BDC36843F0005349
:1052F0000024C36001E0322CF5D00120FCF76EFAE7
:105300006B69DA0704F10104F5D5A4F13200B0FAB3
:1053100080F04009E6E700BF84B02DE9F04383B098
:105320000BAC159D84E80E000023C0F804310C4638
:10533000C0F80831C0F80C31C0F81031C0F8143191
:10534000C0F81831C0F81C31C0F82031C0F8243141
:10535000C0F82831C0F82C31C0F83031C0F83431F1
:10536000C0F83831C0F83C31002D40F0AE80D0F8A4
:10537000043800F5006C43F00203CCF80430836B72
:1053800043F400138363836B23F400238363836BF1
:1053900023F4802383630023C0F8003EDCF8003050
:1053A000CCF80030109B012B00F0BE80DCF8003000
:1053B00043F00303CCF800300023624A009303E07B
:1053C0000369002BC0F29D80009B01330093009B7A
:1053D0009342F5D9012100235A4A019302E003695F
:1053E000002B7DDB019B01330193019B9342F6D996
:1053F00001210022CCF81020CCF81420CCF81C207D
:10540000E4B100F5106317464FF090484FF0006983
:105410004FF67F3E08E01F60013294421F61C3F8DF
:1054200008E003F1200332D01E68002EF3DA12B137
:10543000C3F80080F0E7C3F80090EDE7DCF8103027
:1054400023F48073CCF8103000220E9B82616FF041
:10545000804242611BB9836943F010038361826912
:10546000394B1343119A83611AB1836943F00803DE
:105470008361012D05D1836943F0804343F0040328
:105480008361084603B0BDE8F04304B070470022D2
:1054900000F5306317464FF090484FF000694FF623
:1054A0007F3E08E01F60013294421F61C3F808E0AC
:1054B00003F12003C2D01E68002EF3DA12B1C3F844
:1054C0000080F0E7C3F80090EDE7836B23F400134E
:1054D0008363836B43F4002300F5006C83635AE716
:1054E000002301931023174A036103E00369DB06DD
:1054F0007FF57FAF019B01330193019B9342F5D967
:1055000076E7002300934FF484630E4A036104E0BE
:10551000016911F020013FF45EAF009B013300935D
:10552000009B9342F4D955E70D9B23B9DCF800307A
:10553000CCF8003040E7DCF8003043F00103CCF851
:10554000003039E7400D030000383C8082B0002372
:10555000124A019302E00369002B08DB019B01332F
:105560000193019B9342F6D9032002B07047890151
:10557000002341F020010193084A016103E003691F
:1055800013F0200306D0019B01330193019B93424A
:10559000F5D9E9E7184602B0704700BF400D030097
:1055A000D0F8083813F0060004D013F0020F14BF2F
:1055B00002200F20704700BF30B44B780A78012BCF
:1055C00022D0D0F81C4802F00F0C4FF4803303FABD
:1055D0000CF3234300EB4212C0F81C38D2F8003B16
:1055E0001B040ED4CB68D2F8000B0979C3F30A036D
:1055F000034343EA814343F0805343F40043C2F83A
:10560000003B002030BC7047D0F81C5802F00F0C53
:1056100003FA0CF300F500642B4300EB4210E36146
:10562000D0F800391C04ECD4CB68D0F800490979D3
:10563000C3F30A03234343EA814343EA825242F01D
:10564000805242F40042C0F8002930BC002070476C
:1056500010B44A780B78012A00EB43122CD0D2F810
:10566000001B00291BDBD0F83C484FF4803103F0CD
:105670000F0301FA03F324EA0304C0F83C48D0F80E
:105680001C48224924EA0303C0F81C38D2F8003B26
:105690005DF8044B19400020C2F8001B7047D2F897
:1056A000001B41F00061C2F8001BD2F8001B41F062
:1056B0008041C2F8001BD6E7D2F8001900290BDAA6
:1056C000D2F8001941F00061C2F80019D2F80019AF
:1056D00041F08041C2F80019D0F83C1803F00F04E3
:1056E0000123A34021EA0301C0F83C18D0F81C486C
:1056F000074924EA0303C0F81C38D2F800395DF8E2
:10570000044B19400020C2F8001970470078F3EFED
:10571000007833EC2DE9F0414C7891F800C0012C71
:105720004FD000EB4C1C0CF530631C69E40CE40416
:105730001C611C6924F0FF5424F4C0141C618C69A2
:1057400074B3CD68784E2C44013CB4FBF5F4A4B29C
:1057500004FB05F506EAC4441E69CD6134431C61AF
:105760001C69C5F312052543012A1D6124D00B795C
:10577000012B0CD1D0F8083813F4807FDCF8003B03
:105780000CBF43F0005343F08053CCF8003BDCF8EF
:10579000003B43F00443CCF8003B0020BDE8F0811F
:1057A000CC681D69C4F312042C431C611C69012AD6
:1057B00044F400241C61DAD10A69002AD7D05A6166
:1057C000D5E78E6900EB4C15DEB3D5F81039CF68FC
:1057D000DB0CDB04C5F81039D5F8103923F0FF5382
:1057E00023F4C013C5F810394F4BD5F8108906EBD8
:1057F000070E0EF1FF3EBEFBF7FE03EACE4343EA7F
:105800000803C5F81039D5F81079C6F312033B43E5
:10581000C5F810390F79012F05F5106353D0012A0F
:105820006DD0D5F8003943F00443C5F80039D0F8FD
:1058300034380CF00F0C04FA0CF41C43C0F8344854
:10584000ABE7D5F8104924F0FF5424F4C014C5F890
:105850001049D5F8104944F40024C5F81049D5F88A
:105860001049E40CE404C5F81049012A05F5106359
:105870000F7939D0D5F80049012F44F00444C5F818
:1058800000498AD1D0F8084814F4807F1C680CBF06
:1058900044F0005444F080541C60002A7FF47DAF33
:1058A000B6B20336B6083FF478AF0B6900EB0C3C98
:1058B0000CF5805C03EB860153F8042BCCF8002038
:1058C0008B42F9D169E71C6924F0C0441C611C6952
:1058D000012A44F000541C6116D0D5F8004944F068
:1058E0000444C5F80049CDE74A695AB9012F0ED0E2
:1058F0001A6842F004421A600020BDE8F0814A694B
:10590000002AF5D05A61F1E74A69002AFAD1D0F8A5
:10591000082812F4807F1A680CBF42F0005242F04F
:1059200080521A60E4E700BF0000F81F4B78012B9B
:10593000F0B40C7828D000EB441000F530631C69FB
:10594000E40CE4041C611C6924F0FF5424F4C0142A
:105950001C618C69ACB9CC681D69CC6145F400252B
:105960001D611D69C4F312042C43012A1C6143D03C
:10597000D0F8003B43F00443C0F8003B0020F0BCEB
:105980007047CC688C61E7E78D69002D39D000EB5A
:10599000441CCE68DCF81039DB0CDB04CCF8103981
:1059A000DCF8103923F0FF5323F4C013B542CCF8D0
:1059B00010390CF5106352D91D698E6145F400252C
:1059C0001D611F69C6F312053D43012A1D613CD0CC
:1059D000DCF8003943F00443CCF80039002ECDD078
:1059E000D0F8343804F00F02012494401C43C0F86E
:1059F00034480020F0BC70470A69002AB8D05A61C8
:105A0000B6E700EB4410012AD0F8105925F0FF55F5
:105A100025F4C015C0F81059D0F8105945F40025E8
:105A2000C0F81059D0F810594FEAD5454FEAC5458E
:105A300000F510631D6108D0D0F8003943F004432D
:105A4000C0F80039F0BC002070474A6902B15A61C1
:105A50001A6842F004420020F0BC1A6070471E69C8
:105A600046F400261E611E69C5F312053543012A5E
:105A70001D61EAD0DCF8003943F00443CCF800396A
:105A8000AEE700BF4B7882B00022012B01920B7869
:105A900020D000F5306000EB43100368002B02DBE0
:105AA000002002B07047036843F00063036003689E
:105AB00043F0804342F21072036002E00368002B5F
:105AC000EEDA019B01330193019B9342F6D9012049
:105AD00002B0704700F5106000EB43131A68002A0B
